:1000000000400020052B0000412B0000412B000088
:10001000412B0000412B0000412B0000000000009C
:10002000000000000000000000000000412B000064
:10003000412B000000000000412B0000412B00007C
:1000400055190000412B0000412B0000412B0000FE
:10005000412B0000412B00008D14000041140000D2
:100060008D1600007106000081060000412B000083
:10007000412B0000412B000005240000412B000013
:10008000412B0000412B0000210F0000B9030000AC
:10009000412B0000412B0000412B0000412B0000B0
:1000A000412B0000412B0000412B0000412B0000A0
:1000B000252700004D270000412B0000412B0000A8
:1000C000412B0000412B0000412B0000412B000080
:1000D000412B0000412B0000412B0000412B000070
:1000E000412B00009D130000412B0000391300003C
:1000F000412B0000412B0000412B000000000000BC
:1001000000000000000000000000000000000000EF
:1001100000000000000000000000000000000000DF
:10012000412B0000412B0000412B0000412B00001F
:10013000412B0000412B0000412B0000412B00000F
:10018000FFFFFFFFFFFFFFFFFFFFFFFFFFFFFFFF7F
:1001900003329CA77F000000FFFFFFFFFFFFFFFF70
:1001A00010B5054C237833B9044B13B10448AFF3B1
:1001B00000800123237010BD000C0420000000000B
:1001C000B8B301000C4B43B10C4810B50C49AFF368
:1001D00000800C48036823B910BD0A48036833B98E
:1001E0007047094B002BF7D0BDE810401847064B6D
:1001F000002BF5D0184700BF00000000B8B3010085
:10020000040C04207C0B042000000000154B002B84
:1002100008BF134B9D46A3F5803A00218B460F463D
:100220001348144A121A10F015FC0F4B002B00D083
:1002300098470E4B002B00D0984700200021040067
:100240000D000D48002802D00C4815F033F90FF0CE
:10025000CFFF2000290003F07FF80FF061FD00BF01
:100260000000080000400020000000000000000026
:10027000000C04204C3A0420B55401008D660100A6
:1002800080B483B000AF0346FB7197F90730002BB1
:100290000BDB084997F907305B09FA7902F01F0276
:1002A000012000FA02F241F8232000BF0C37BD46BE
:1002B00080BC704700E100E080B584B000AF00234F
:1002C000FB60EFF310837B607B68FB6072B61B4BB7
:1002D0001B7883F00103DBB2002B26D0174B0122E1
:1002E0001A70174A164B5B6843F001035360144BB6
:1002F000144A9A601320FFF7C3FF6FF07843BB6086
:100300000F4ABB6813620E4ABB68D3620C4ABB68D3
:1003100053630B4ABB68D363094ABB689364084ABA
:10032000BB68D364064ABB681365FB683B603B68E7
:1003300083F3108800BF1037BD4680BD0014042031
:10034000000001400010042080B489B000AF0346D3
:10035000B9607A60FB730023FB77164AFB7BDB00F6
:1003600013440433BB61BB69BA681A60BB697A681D
:100370005A60FB7B012202FA03F37B61BB68002B0E
:1003800008D00C490B4BD3F8DC207B691343C1F830
:10039000DC3008E00749074BD3F8DC207B69DB43FE
:1003A0001340C1F8DC30FB7F18462437BD4680BCC3
:1003B000704700BF0014042080B58AB000AF2C4BFA
:1003C000DB6CFB612A4B9B6CBB61294B1B6D7B611A
:1003D000284BD3F8DC20B9697B690B4313407B625F
:1003E0007B6A002B37D020233B617B6AB3FA83F30F
:1003F0003B622CE03A693B6AD31A013BFB60012265
:10040000FB6802FA03F3BB601A4AFB68DB00134483
:1004100004337B607B681B68002B0FD0BA69BB6814
:100420001340002B01D0012300E002233B607B68D6
:100430001B687A685068002239689847BB68DB43BC
:100440007A6A13407B627B6AB3FA83F33B623A6A4F
:100450003B699A42CED3064ABB699364044A7B69DE
:100460001365034AFB69D36400BF2837BD4680BDCE
:10047000000001400014042080B483B000AF0346A4
:10048000FB7197F90730002B0BDB084997F9073010
:100490005B09FA7902F01F02012000FA02F241F82A
:1004A000232000BF0C37BD4680BC704700E100E050
:1004B00080B584B000AF78603960144BDB68002BE6
:1004C0001ED1124A7B68D3600023FB600FE00F4B04
:1004D000DB68FA68002143F832100C4BDA68FB68DD
:1004E000DB00134400225A60FB680133FB60FB68A9
:1004F000012BECD90920FFF7BFFF0A20FFF7BCFF53
:10050000002318461037BD4680BD00BF04000420FC
:1005100080B487B000AF0346FB710B46BB80134627
:10052000BB7100237B61FB79154A52F823303B6194
:10053000EFF31083FB60FB687B6172B6BB79002B25
:1005400008D03B699B889AB2BB8813439AB23B6937
:100550009A8009E03B699B889AB2BB88DB439BB2D7
:1005600013409AB23B699A807B69BB60BB6883F396
:100570001088002318461C37BD4680BC704700BF5A
:100580000400042080B485B000AF03460A46FB7126
:100590001346BB80FB79064A52F82330FB60FB68A8
:1005A000BA881A83002318461437BD4680BC7047AA
:1005B0000400042080B485B000AF03460A46FB71F6
:1005C0001346BB80FB79064A52F82330FB60FB6878
:1005D000BA889A83002318461437BD4680BC7047FA
:1005E0000400042080B586B000AF03460A46FB71C4
:1005F0001346BB711D4BDA68FB79DB0013443B618A
:100600000023FB752BE0FB7D184A52F82330FB607A
:1006100097F90630092B03D1FB681B8DBB8202E0E2
:10062000FB689B8DBB82FB681B8E9AB2BB8A134012
:100630009BB27B817A89FB681A863B691B68002B19
:100640000AD07B89002B07D03B691B683A69506848
:10065000F97D07F10A029847FB7D0133FB75FB7DAD
:10066000022BD0D900BF1837BD4680BD040004203E
:1006700080B500AF09210020FFF7B4FF00BF80BDA7
:1006800080B500AF0A210120FFF7ACFF00BF80BD9D
:1006900080B483B000AF0346FB7197F90730002B9D
:1006A0000BDB084997F907305B09FA7902F01F0262
:1006B000012000FA02F241F8232000BF0C37BD46AA
:1006C00080BC704700E100E080B483B000AF034617
:1006D000FB7197F90730002B10DB0B4997F90730B6
:1006E0005B09FA7902F01F02012000FA02F22033BE
:1006F00041F82320BFF34F8FBFF36F8F00BF0C373C
:10070000BD4680BC704700BF00E100E080B588B006
:1007100000AFF860B9607A603B60BB68FB61234B57
:10072000BB61BB691B689B8C9BB2B3F5217F05D174
:100730001F4A1F4B1B6843F0300313603B680022C5
:100740001A601C4AFB681B0113440C33BA681A6018
:100750007A680021B86810F07DF9FB681B01154A22
:100760001A44FB695A60134AFB681B0113440433A3
:100770001A68FB691A60FB695968FA6813465B00DE
:1007800013449B000C4A13448B60FB690022DA621D
:10079000F86900F033FA0346FB753B68FA691A60A2
:1007A000002318462037BD4680BD00BF300004201E
:1007B00034000240140004202400042080B584B0DA
:1007C00000AF7860786800F019FA0346FB737B6825
:1007D0005B680022DA60002318461037BD4680BDF2
:1007E00080B586B000AFF860B9607A60FB6800221F
:1007F0001A74B968F86800F0B1F8FB6893F82A3009
:10080000002B19D1FB682C3300221946002000F080
:1008100071FE0346FB75FB7D002B01D00D231DE00F
:1008200000BF104B1B881A46FB681B689B889BB255
:1008300003F488639A42F4D1FB6893F82B301A468C
:100840007B681A60FB6893F82B30002B03D0FB68A1
:10085000082283F82A20FB6893F82A3018461837B4
:10086000BD4680BDE014042080B582B000AF786042
:100870007B680022DA62786800F0C0F90346184607
:100880000837BD4680BD000080B586B000AF7860F7
:10089000396007F108031946002000F045FC0346C3
:1008A000002B01D0042335E03B681C4A934201D958
:1008B00001232FE0BA683B68B2FBF3F35B087B616E
:1008C0007B697B827A8A7B699A4201D0012321E08D
:1008D0007B8A073B3B827B8A013BFB813B8A1B0275
:1008E0003B820F4B1B881A463B8ADBB29A4207D1E8
:1008F0000B4B1B881A46FB8903F47F439A4201D0B5
:10090000012307E07B681B68398AFA890A4392B29F
:100910009A84002318461837BD4680BD801A060009
:10092000E014042080B483B000AF78600B467B8075
:10093000094B1B8819467A884FF6807313409942F9
:1009400001D00B2303E07B687A889A810023184644
:100950000C37BD4680BC7047E014042080B582B0DF
:1009600000AF786039607B68002283F82A207B68BA
:10097000002283F82B2000BF2B4B1B881A467B6874
:100980001B689B889BB203F488639A42F4D13B684E
:100990001A687B685A613B689A887B681A833B684F
:1009A000DA7B7B689A727B689B895B009BB2DBB2C7
:1009B0009AB27B68DA813B689B7B002B18D03B683E
:1009C0009A687B685A623B689A897B681A857B685B
:1009D0000022DA617B6800221A847B68DB8943F09D
:1009E00001039AB27B68DA81786800F087F817E033
:1009F0007B6800225A627B6800221A853B689A68ED
:100A00007B68DA613B689A897B681A847B68DB893A
:100A100023F001039AB27B68DA81786800F006F867
:100A200000BF0837BD4680BDE014042080B584B007
:100A300000AF78607B685B6893F900301846FFF779
:100A400027FE7B681B687A681268128892B242F0AF
:100A5000210292B21A807B681B689B889BB203F0CC
:100A600003039BB2C3F10203FB8116E07B681B68A2
:100A70007A6852691278D2B292B29A817B685B69C5
:100A80005A1C7B685A617B681B8B9BB2013B9AB2F4
:100A90007B681A83FB89013BFB817B681B8B9BB2C4
:100AA000002B1AD0FB89002BE0D116E07B681B6875
:100AB0007A68D2691278D2B292B29A817B68DB6985
:100AC0005A1C7B68DA617B681B8C9BB2013B9AB233
:100AD0007B681A84FB89013BFB817B681B8C9BB282
:100AE000002B02D0FB89002BE0D17B681B687A6861
:100AF000D2891A8300BF1037BD4680BD80B584B04F
:100B000000AF78607B685B6893F900301846FFF7A8
:100B1000BFFD7B681B687A681268128892B242F047
:100B2000110292B21A807B681B8D9BB2B3F5807F55
:100B30000DD97B681B684FF480721A827B681B8D0D
:100B40009BB2A3F580739AB27B681A850AE07B6832
:100B50001B687A68128D92B2013A92B21A827B684F
:100B600000221A857B681B8B9BB2002B3CD07B68D4
:100B70001B687A681268128892B242F0200292B220
:100B80001A807B681B689B889BB203F003039BB2AF
:100B9000C3F10203FB8116E07B681B687A68526927
:100BA0001278D2B292B29A817B685B695A1C7B68D8
:100BB0005A617B681B8B9BB2013B9AB27B681A839C
:100BC000FB89013BFB817B681B8B9BB2002B02D016
:100BD000FB89002BE0D17B681B687A68D28922F000
:100BE000010292B21A8304E07B681B687A68D2899A
:100BF0001A8300BF1037BD4680BD000080B584B0A9
:100C000000AF78607B685B6893F900301846FFF7A7
:100C10005BFD7B681B689B889BB2FB817B681B68C4
:100C2000FA8992B29A8004E07B681B689B899BB228
:100C3000BB81234B1B881A467B681B68B3F84C307A
:100C40009BB203F0C0039A42EED17B681B6800227E
:100C50001A807B681B680122A3F850207B681B6800
:100C60007A685268926812881A807B681B687A6872
:100C70005268926852889A847B681B687A685268C6
:100C800092689288A3F850207B681B687A68526843
:100C90009268D288A3F854207B681B687A685268EF
:100CA00092681289A3F858207B685B689B685A8910
:100CB0007B689A81002318461037BD4680BD00BF6F
:100CC000E014042080B485B000AF78607B681B68B6
:100CD000B3F84C309BB21B119BB203F003039BB2E1
:100CE000C3F10203FB8116E07B681B687A685269D6
:100CF0001278D2B292B29A817B685B695A1C7B6887
:100D00005A617B681B8B9BB2013B9AB27B681A834A
:100D1000FB89013BFB817B681B8B9BB2002B02D0C4
:100D2000FB89002BE0D17B681B8B9BB2002B29D168
:100D30007B681B8D9BB2002B1CD07B681B687A687C
:100D4000D2891A831EE07B681B687A68D2691278A0
:100D5000D2B292B29A817B68DB695A1C7B68DA61F5
:100D60007B681B8C9BB2013B9AB27B681A84FB891F
:100D7000013BFB817B681B8C9BB2002B02D0FB8963
:100D8000002BE0D17B681B8C9BB2002B03D17B68CE
:100D90001B6804229A8000BF1437BD4680BC704790
:100DA00080B485B000AF78607B681B68B3F84C30C6
:100DB0009BB29B119BB203F00303FB8139E0FB89DB
:100DC000013BFB817B685B6A7A681268128992B288
:100DD000D2B21A707B685B6A5A1C7B685A627B6865
:100DE0001B689B8A9BB2002B23D17B681B8D9BB217
:100DF000B3F5807F0DD97B681B684FF480721A822F
:100E00007B681B8D9BB2A3F580739AB27B681A85B1
:100E10000FE07B681B8D9BB2002B0AD07B681B68A0
:100E20007A68128D92B2013A92B21A827B680022DD
:100E30001A85FB89002BC2D100BF1437BD4680BC88
:100E40007047000080B582B000AF786000BF0D4BE6
:100E50001B881A467B681B689B889BB203F48863D7
:100E60009A42F4D17B685B6893F900301846FFF72B
:100E70002BFC7B681B68044A12881A8000BF083765
:100E8000BD4680BDE01404202400042080B483B05B
:100E900000AF7860214B1B881A467B681B8903F0E2
:100EA00010039A4208D07B6893F82B3043F001037B
:100EB000DAB27B6883F82B20184B1B881A467B68B4
:100EC0001B8903F080039A4208D07B6893F82B308B
:100ED00043F00203DAB27B6883F82B200F4B1B88A8
:100EE0001A467B681B8903F020039A4208D07B686E
:100EF00093F82B3043F00403DAB27B6883F82B209D
:100F00007B6893F82B30002B03D17B68082283F891
:100F10002B2000BF0C37BD4680BC7047E014042076
:100F200080B582B000AF0023FB712A4BDB683B60C9
:100F30003B681B689B889AB23B681A813B689B7A26
:100F4000002B07D03B681B683A68D2891A833B683C
:100F500000229A72204B1B881A463B681B8903F0BB
:100F600004039A4202D03868FFF7ACFE1A4B1B8884
:100F70001A463B681B8903F008039A4202D038687E
:100F8000FFF70EFF144B1B881A463B681B8903F0C2
:100F9000B0039A4204D03868FFF778FF0123FB7151
:100FA0000D4B1B881A463B681B8903F480739A42D9
:100FB00004D03868FFF746FF0123FB71FB79002B53
:100FC00004D03B682C33184600F032FB00BF0837D2
:100FD000BD4680BD14000420E014042080B483B01A
:100FE00000AF0346FB7197F90730002B0BDB084974
:100FF00097F907305B09FA7902F01F02012000FA25
:1010000002F241F8232000BF0C37BD4680BC704778
:1010100000E100E080B500AF284B4CF61432DA60F6
:10102000264B02221A61264B00221A60234B4CF6F3
:101030001432DA60214A214B1B6943F00203136129
:1010400000BF1E4B1B6903F40073002BF9D01D4A2F
:101050001C4B1B6823F0030313601A4B00221A6019
:10106000184B194A5A60174B46F61A02DA60154BAC
:101070001F225A61154B00221A60144B00229A60FD
:10108000124B00225A640D4B4CF61432DA600B4AB4
:101090000A4B1B6923F0040313610620FFF79EFF30
:1010A0000720FFF79BFF2920FFF798FF2B20FFF772
:1010B00095FF01F049FD0023184680BD00C10440A2
:1010C000E414042000C304400404100000C00440E1
:1010D00080B487B000AF0346FB7100237B61EFF360
:1010E0001083BB60BB687B6172B60E4B4CF614324A
:1010F000DA600C4B1B6923F001033B61FB79023B77
:101100003A6913433B61074A3B6913617B69FB60A2
:10111000FB6883F31088002318461C37BD4680BC4B
:10112000704700BF00C1044080B584B000AF0346E3
:101130003960FB7101F008FD134B1B68BB60FB7944
:10114000002B07D0012B0CD1104B5B6803F03F0341
:10115000FB6008E00D4B5B681B0A03F03F03FB607C
:1011600001E004230BE0FB68002B01D10123FB60AD
:10117000BA68FB68B2FBF3F23B681A6000231846BA
:101180001037BD4680BD00BFF014042000C30440EA
:1011900080B588B000AF03460A46FB711346BB809A
:1011A00000237B61FB79012B04D0022B0ED0002B96
:1011B00005D012E03F23FB61BB88BB610FE04FF419
:1011C0007C53FB61BB881B02BB6108E04FF47F03CB
:1011D000FB61BB881B04BB6101E004231CE0EFF34F
:1011E0001083BB60BB687B6172B60D4B5B683B6173
:1011F000FB69DB433A6913403B613A69BB691343BE
:101200003B61074A3B6953607B69FB60FB6883F382
:10121000108801F099FC002318462037BD4680BD98
:1012200000C3044080B48BB000AF03460A46FB7194
:101230001346BB7100237B6200233B620023FB61EA
:101240000023BB61FB79042B2DD801A252F823F0B7
:10125000651200007512000085120000A712000040
:101260009512000008237B622F4B3B624FF4006312
:10127000FB611AE004237B622B4B3B624FF48063DB
:10128000FB6112E002237B62274B3B624FF4007349
:10129000FB610AE04FF400737B62244B3B624FF426
:1012A0000073FB6101E0092338E0EFF310833B6139
:1012B0003B69BB6172B61E4B4CF61432DA60BB79E7
:1012C000002B11D03B6A1A687B6A1A433B6A1A608A
:1012D000FB79042B0FD1174B1B6803F001037B61D3
:1012E0007B69012BF7D106E03B6A1A687B6ADB4316
:1012F0001A403B6A1A60BB69FB60FB6883F3108885
:10130000FB69002B09D0BB79002B06D000BF084B2E
:101310001A69FB691340002BF9D0002318462C37BB
:10132000BD4680BC704700BF10C104400CC30440E0
:1013300000C1044018C3044080B582B000AF144B14
:101340009B6903F006037B60124B1B68002B18D0CF
:101350007B6803F00403002B07D00E4B1B680E4A7A
:1013600010680022082198470BE07B6803F0020315
:10137000002B06D0074B1B68074A10680022072184
:101380009847034A7B68936100BF0837BD4680BD1C
:1013900000C30440E4140420E814042080B582B0A3
:1013A00000AF244B9B6903F4CC433B6000237B607C
:1013B000214B1B68002B33D03B68002B30D03B689F
:1013C00003F48043002B04D07B6843F004037B606C
:1013D0001CE03B6803F40053002B04D07B6843F00F
:1013E00003037B6012E03B6803F40073002B04D01E
:1013F0007B6843F005037B6008E03B6803F480638F
:10140000002B03D07B6843F006037B607B68002BD6
:1014100006D0094B1B68094A106800227968984772
:101420003B68002B02D0034A3B68936100BF08373A
:10143000BD4680BD00C30440E4140420E814042029
:1014400080B582B000AF0E4B5B687B607B6803F0B9
:101450000103002B10D00B4B1B68002B06D0094B4F
:101460001B68094A1068002279689847044A044BAF
:101470005B6843F00103536000BF0837BD4680BD81
:1014800000C00440E4140420E814042080B582B0B5
:1014900000AF154B5B687B60144B1B68002B17D0AB
:1014A0007B6803F00403002B06D0104B1B68104A26
:1014B00010680022002198477B6803F00203002B8C
:1014C00006D00A4B1B680A4A10680022012198477F
:1014D0000549054B5A687B6803F0060313434B60CC
:1014E00000BF0837BD4680BD00C00440E41404209E
:1014F000E814042080B48FB000AF03463960FB715C
:101500001346BB7100237B6300233B630023FB6214
:101510003B68002B05D17B6B43F002037B63404BA0
:101520003B60FB79032B1CD801A252F823F000BFCB
:1015300045150000411500004F1500005915000029
:10154000002367E03B6B43F006033B630BE07B6BE0
:1015500043F004037B6306E07B6B43F006037B638D
:1015600001E0062356E0EFF31083BB61BB69FB6229
:1015700072B62C4B44F65902DA602A49294B9B6813
:1015800023F00302FB7913438B602749264B1A692A
:101590007B6B1A433B6BDB4313400B61EFF311830F
:1015A000FB61FB69BB62214B1B89FB84BB795B013F
:1015B0003B623B6A83F311880DE0BFF34F8F30BF6E
:1015C000FB6A3B613B6983F31088EFF310837B6117
:1015D0007B69FB6272B63B681B68002BEDD03B68F1
:1015E0001B685A1E3B681A60BB6ABB60BB6883F30A
:1015F00011880E4AFB8C13810B4A0B4B1B6923F09D
:1016000002031361BFF34F8FFB6AFB60FB6883F338
:101610001088002318463C37BD4680BC704700BF89
:10162000EC14042000C0044000ED00E0002C004059
:1016300080B487B000AF786000237B617B68002BAB
:1016400014D1104B7B60EFF31083FB60FB687B6170
:1016500072B60D4A0C4B1B6923F002031361BFF3F2
:101660004F8F7B693B613B6983F310887B681B6804
:101670005A1C7B681A60002318461C37BD4680BC84
:10168000704700BFEC14042000ED00E080B586B088
:1016900000AF00237B6100233B619B4B9B68FB6099
:1016A000FB681B681B889BB21A464FF60403134065
:1016B0003B61FB681B689B889BB203F07E037B81C8
:1016C0007B89002B56D03B69002B53D03B6903F03C
:1016D0001003002B08D07B8903F00403002B03D0F8
:1016E0007B6943F002037B613B6903F00403002B39
:1016F00008D07B8903F00203002B03D07B6943F001
:1017000001037B613B6903F48053002B08D07B8984
:1017100003F00803002B03D07B6943F004037B61D3
:101720003B6903F40043002B08D07B8903F040039E
:10173000002B03D07B6943F020037B613B6903F4FA
:101740008043002B08D07B8903F02003002B03D0BB
:101750007B6943F010037B613B6903F40053002B6A
:1017600008D07B8903F01003002B03D07B6943F082
:1017700008037B61FB681B681B8D9BB203F01F0392
:101780003B61FB681B689B8D9BB203F00F033B81A1
:101790003B89002B3AD03B69002B37D03B6903F0E3
:1017A0000803002B08D03B8903F00803002B03D06B
:1017B0007B6943F400737B613B6903F00403002BF6
:1017C00008D03B8903F00403002B03D07B6943F46A
:1017D00080737B613B6903F00203002B08D03B89D7
:1017E00003F00203002B03D07B6943F080037B618D
:1017F0003B6903F00103002B08D03B8903F0010390
:10180000002B03D07B6943F040037B61FB681B68BE
:10181000B3F850309BB21A4641F6FE7313403B6159
:10182000FB681B68B3F848309AB240F21D3313408E
:10183000FB80FB88002B10D03B69002B0DD03B694F
:1018400003F40073002B08D0FB8803F40073002B13
:1018500003D07B6943F400637B61FB681B68B3F8CA
:1018600050309BB21A464FF21C4313403B61FB8839
:10187000002B3AD03B69002B37D03B6903F48043FF
:10188000002B08D0FB8803F01003002B03D07B69EA
:1018900043F480237B613B6903F40053002B08D0A1
:1018A000FB8803F00803002B03D07B6943F400336B
:1018B0007B613B6903F48053002B08D0FB8803F065
:1018C0000403002B03D07B6943F480337B613B69C5
:1018D00003F48063002B08D0FB8803F00103002B86
:1018E00003D07B6943F400437B61FB685B68002B9A
:1018F0000CD07B69002B09D0FB685B68FA689068A4
:1019000000227969984701E034000420FB681B68D5
:10191000FA681268928891B27A890A4392B29A80E0
:10192000FB681B68FA681268928D91B23A890A4383
:1019300092B29A85FB681B68FA681268B2F8482070
:1019400091B2FA880A4392B2A3F8482000BF183730
:10195000BD4680BD80B586B000AF00237B6100230B
:101960003B61A24B5B69FB60FB681B681B889BB2F9
:101970001A464FF6040313403B61FB681B689B88C3
:101980009BB203F07E037B817B89002B56D03B69A1
:10199000002B53D03B6903F01003002B08D07B8948
:1019A00003F00403002B03D07B6943F002037B6147
:1019B0003B6903F00403002B08D07B8903F002038A
:1019C000002B03D07B6943F001037B613B6903F487
:1019D0008053002B08D07B8903F00803002B03D031
:1019E0007B6943F004037B613B6903F40043002BF4
:1019F00008D07B8903F04003002B03D07B6943F0C0
:101A000020037B613B6903F48043002B08D07B8972
:101A100003F02003002B03D07B6943F010037B61AC
:101A20003B6903F40053002B08D07B8903F01003BB
:101A3000002B03D07B6943F008037B61FB681B68C4
:101A40001B8D9BB203F01F033B61FB681B689B8DE2
:101A50009BB203F01F033B813B89002B48D03B69BD
:101A6000002B45D03B6903F01003002B08D03B89C5
:101A700003F01003002B03D07B6943F480637B6188
:101A80003B6903F00803002B08D03B8903F00803EF
:101A9000002B03D07B6943F400737B613B6903F047
:101AA0000403002B08D03B8903F00403002B03D070
:101AB0007B6943F480737B613B6903F00203002B75
:101AC00008D03B8903F00203002B03D07B6943F06D
:101AD00080037B613B6903F00103002B08D03B8945
:101AE00003F00103002B03D07B6943F040037B61CB
:101AF000FB681B68B3F850309BB21A4641F6FE7380
:101B000013403B61FB681B68B3F848309AB240F25F
:101B10001D331340FB80FB88002B10D03B69002B4A
:101B20000DD03B6903F40073002B08D0FB8803F44D
:101B30000073002B03D07B6943F400637B61FB6877
:101B40001B68B3F84C309BB21A464FF21C4313404B
:101B50003B61FB88002B3AD03B69002B37D03B69B7
:101B600003F48043002B08D0FB8803F01003002B04
:101B700003D07B6943F480237B613B6903F400530A
:101B8000002B08D0FB8803F00803002B03D07B69EF
:101B900043F400337B613B6903F48053002B08D08E
:101BA000FB8803F00403002B03D07B6943F48033EC
:101BB0007B613B6903F48063002B08D0FB8803F052
:101BC0000103002B03D07B6943F400437B61FB6876
:101BD0005B68002B0CD07B69002B09D0FB685B682D
:101BE000FA68906800227969984701E0340004207F
:101BF000FB681B68FA681268928891B27A890A4376
:101C000092B29A80FB681B68FA681268928D91B252
:101C10003A890A4392B29A85FB681B68FA6812688F
:101C2000B2F8482091B2FA880A4392B2A3F8482049
:101C300000BF1837BD4680BD80B483B000AF0346F7
:101C4000FB7197F90730002B0BDB084997F9073038
:101C50005B09FA7902F01F02012000FA02F241F852
:101C6000232000BF0C37BD4680BC704700E100E078
:101C700080B483B000AF0346FB7197F90730002BA7
:101C800010DB0B4997F907305B09FA7902F01F0264
:101C9000012000FA02F2203341F82320BFF34F8FD6
:101CA000BFF36F8F00BF0C37BD4680BC704700BFCD
:101CB00000E100E080B483B000AF0346FB7197F908
:101CC0000730002B0CDB094997F907305B09FA79DB
:101CD00002F01F02012000FA02F2603341F82320D3
:101CE00000BF0C37BD4680BC704700BF00E100E07C
:101CF00080B588B000AFF860B9607A60FB68BB61FE
:101D0000BB695B6ADB6A1B697B610023FB61BB68A3
:101D1000012B02D0022B05D009E0FB6943F480734C
:101D2000FB6109E0FB6943F48063FB6104E0FB694C
:101D300043F48053FB6100BF7B691B68002B13D009
:101D40007B695B7B002B0FD0BB699A69FB691A43E7
:101D5000BB699A617B6900221A73BB695B6A0022C6
:101D60001946B86900F0A9FDBB699A69FB691A4375
:101D7000BB699A61BB695B6A00221946B86900F0C9
:101D80009CFD00BF2037BD4680BD80B588B000AF48
:101D9000F860B9607A60FB68BB61BB691B6ADB6A8B
:101DA0001B697B610023FB61BB68012B02D0022B06
:101DB00005D009E0FB6943F40073FB6109E0FB69AE
:101DC00043F40063FB6104E0FB6943F40053FB61EF
:101DD00000BF7B691B68002B13D07B695B7B002BEA
:101DE0000FD0BB699A69FB691A43BB699A617B6929
:101DF00000221A73BB691B6A01221946B86900F0F8
:101E00005CFDBB699A69FB691A43BB699A61BB694E
:101E10001B6A01221946B86900F04FFD00BF203748
:101E2000BD4680BD80B586B000AFF8607A603B608B
:101E30000B46FB720023FB823B6A00221A607B6820
:101E40003B613A68002178680EF004FEFB681B01D4
:101E50006E4A1A443B695A606C4AFB681B01134482
:101E600008331A683B699A603B69FA7A1A707B6892
:101E700030337B60FEF720FAFB7A012B3CD03B69C4
:101E80007A681A623B691B6A002283F834203B6936
:101E90001B6A3A69126A9A623B691B6A3A69126A5A
:101EA0001A633B691B6A3A69126ADA623B691B6A08
:101EB0000022DA633B691B6A554A9A633B691B6AD5
:101EC0003A69126A14321A613B691B6A3A69126AEA
:101ED0005A623B695B681B783A694E491846FEF7BF
:101EE00033FA0346002B04D0386900F09BF80F2327
:101EF00087E07B6840337B60FB7A002B39D03B69FD
:101F00007A685A623B695B6A002283F834203B6935
:101F10005B6A3A69526A9A623B695B6A3A69526AD9
:101F20001A633B695B6A3A69526ADA623B695B6AC7
:101F30000022DA633B695B6A374A9A633B695B6AF2
:101F40003A69526A14321A613B695B6A3A69526AA9
:101F50005A623B695B685B783A6930491846FEF71C
:101F6000F3F90346002B04D0386900F05BF80F2327
:101F700047E0F968386900F049FD3B699B681B8CB4
:101F80009BB203F00103002B14BF01230023DAB23C
:101F90003B6983F82D203B699B681B8C9BB29B118E
:101FA0009BB203F00303FB82FB8A1D4AD25C3B69B0
:101FB00083F82E203B6A3A691A60144AFB681B01B9
:101FC00013440C333A691A603B695B6893F9043037
:101FD0001846FFF76FFE3B695B6893F904301846BB
:101FE000FFF72AFE3B695B6893F902301846FFF75A
:101FF00023FE3B695B6893F903301846FFF71CFE2C
:10200000002318461837BD4680BD00BF4C00042091
:10201000F12000008B1D000055220000F11C000083
:10202000C886010080B582B000AF78607B689B688D
:1020300000229A807B685B6893F903301846FFF7AB
:1020400017FE7B685B6893F902301846FFF710FEB5
:102050007B685B6893F904301846FFF709FE7B68DC
:102060005B680022DA60002318460837BD4680BD51
:1020700080B584B000AFF860B9607A60FB70FB682F
:102080001B6A9B6ABA681A60FB681B6A9B6A7A685B
:102090005A60FB681B6A9B6A00229A60FB681B6A95
:1020A0009B6A01221A73FB681B6A9B6AFA785A734F
:1020B000FB681B6AFA68126A926A12699A62FB6884
:1020C0001B6A93F83430002B0DD1FB681B6A022287
:1020D00083F83420FB681B6A9B6BFA68126AD26A29
:1020E0001146F8689847002318461037BD4680BD52
:1020F00080B483B000AF786039603B685B7B002BB5
:1021000054D0324A7B685B681B78194601238B40A8
:10211000C2F814382D4A7B685B681B781946012386
:102120008B409362294A7B685B681B7819460123C0
:102130008B405362254A7B685B681B7819460123F4
:102140008B405363224B1A687B685B681B781B01CA
:1021500013443A68126811463A6852680A44013AD0
:102160001A601B4B1A687B685B681B781B01134461
:102170007A6892685A60164B1A687B685B681B78AD
:102180001B011A443B685B68013B1B0143F0404361
:1021900043F0010393607B689B687A689268928839
:1021A00092B242F0100292B29A8009E07B689B687A
:1021B0007A689268928892B242F0020292B29A8051
:1021C00000BF0C37BD4680BC704700BF0000014017
:1021D000B486010080B584B000AFF860B9607A6061
:1021E000FB70FB685B6A9B6ABA681A60FB685B6A93
:1021F0009B6A7A685A60FB685B6A9B6A00229A60F5
:10220000FB685B6A9B6A01221A73FB685B6A9B6AC4
:10221000FA785A73FB685B6AFA68526A926A1269C2
:102220009A62FB685B6A93F83430002B0DD1FB682F
:102230005B6A022283F83420FB685B6A9B6BFA6856
:10224000526AD26A1146F868984700231846103738
:10225000BD4680BD80B483B000AF786039603B6814
:102260005B7B002B54D0324A7B685B685B781946F5
:1022700001238B40C2F81C382D4A7B685B685B7871
:10228000194601238B409362294A7B685B685B781F
:10229000194601238B405362254A7B685B685B7853
:1022A000194601238B405363224B1A687B685B6895
:1022B0005B781B0113447A6892681A601D4B1A6898
:1022C0007B685B685B781B0113443A6812681146AF
:1022D0003A6852680A44013A5A60164B1A687B6899
:1022E0005B685B781B011A443B685B68013B1B0120
:1022F00043F0406343F0010393607B689B687A6816
:102300009268928892B242F0200292B29A8009E0DA
:102310007B689B687A689268928892B242F0010268
:1023200092B29A8000BF0C37BD4680BC704700BF98
:1023300000000140B486010080B485B000AFF860B1
:10234000B9607A60FB68BA68DA60FB687A681A611B
:10235000002318461437BD4680BC704780B485B052
:1023600000AF7860084611461A460346FB700B46DC
:10237000BB7013467B707B689B689B899BB223F084
:102380000F03FB817A78BB781343DAB2FB781343EF
:10239000DBB29AB2FB891343FB817B689B68FA89A5
:1023A0009A81002318461437BD4680BC704780B41C
:1023B00085B000AFF860084611461A4603467B8197
:1023C0000B467B721346FB80FB689B687A891A85F3
:1023D000FB689A687B7A9BB2DB0299B2FB880B435D
:1023E0009BB26FEA43436FEA53439BB29384FB680B
:1023F0009B683A7E92B29A85002318461437BD46F0
:1024000080BC704780B582B000AF054BDB687B6055
:10241000786800F007F800BF0837BD4680BD00BFF0
:102420004C00042080B58EB002AF78607B689B685A
:102430001B899BB203F00E030C2B00F26C8101A2EE
:1024400052F823F0392500001727000079240000F6
:10245000172700009524000017270000A52400007E
:102460001727000017270000172700001727000074
:102470001727000081240000786800F0E1F94DE1A1
:102480007B689B689B8E9BB2DBB21946786800F034
:1024900071F943E17B6893F82E301946786800F0B3
:1024A00069F93BE10023FB627B689B689B8ABB83E5
:1024B000BB8B03F010039BB2002B05D07B689B689D
:1024C0001B888023FB6209E0BB8B03F008039BB2EF
:1024D000002B03D0FB6A43F01003FB62BB8B03F0BD
:1024E00004039BB2002B03D0FB6A43F02003FB6282
:1024F000BB8B03F002039BB2002B03D0FB6A43F0BB
:102500004003FB62FB6A002B00F007817B681B7DA8
:1025100083F00103DBB2002B00F0FF807B689A6937
:10252000FB6A1A437B689A617B685B6A04221946DE
:10253000786800F0C2F9F0E00023BB627B689B681A
:10254000B3F844309BB203F00F037B837B689B6836
:10255000B3F840309BB203F001033B837B8B002B2D
:1025600000F0C9803B8B002B00F0C58007F10C0305
:1025700019460020FEF7D8FD0346002B01D00023AA
:10258000FB607B689B68B3F848309BB21B037B61A0
:102590007B689B68B3F844309BB21B099BB21A4618
:1025A0007B6913437B617B8B03F00103002B6FD0AE
:1025B0007B689B689B8C9BB203F40043B3F5004F90
:1025C0004DD1002387F827304FF400633B6101238E
:1025D000FB837B693F2B06D87B695B02DA083B698A
:1025E000D31A3B6228E07B697F2B09D87B691B02E9
:1025F000DA083B69D31A3B62012387F827301BE0D6
:102600007B69FF2B09D87B69DB01DA083B69D31AA8
:102610003B62022387F827300EE07B691B0AFB83AD
:102620007B699A01FB8BDB00B2FBF3F23B69D31AA7
:102630003B62032387F827303B6A9AB2F98B97F8FD
:1026400027300093134601227868FFF7B0FEFB683D
:10265000DA007B69B2FBF3F27B689A6206E0FB6802
:10266000DA007B69B2FBF3F27B689A627B68DB6815
:10267000002B3DD07B6893F82C30002B38D07B6842
:10268000DB687A6810697A68926A032198472FE0BC
:102690007B8B03F00203002B03D0BB6A43F400736F
:1026A000BB627B8B03F00403002B03D0BB6A43F4B3
:1026B0008073BB627B8B03F00803002B03D0BB6AE3
:1026C00043F48063BB627B68DB68002B0DD07B68C2
:1026D0005B6A93F83430022B07D17B68DB687A6839
:1026E0001069BA6A0521984702E07B68BA6ADA6124
:1026F0007B689B681B887B689B687A689268B2F8E5
:10270000402092B222F0070292B2A3F840207B68E8
:1027100000221A7502E000BF00E000BF00BF3037A2
:10272000BD4680BD80B582B000AF074BDB687B60E3
:102730007B681B6A01221946786800F0BEF800BF6A
:102740000837BD4680BD00BF4C00042080B582B074
:1027500000AF074BDB687B607B685B6A0022194631
:10276000786800F0AAF800BF0837BD4680BD00BFFA
:102770004C00042080B586B000AF78600B46FB703B
:102780007B685B6ADB6A7B617B691B683B613B69D9
:10279000002B05D07B691B7B002B01D0012300E0BF
:1027A0000023FB73FB7B03F00103FB73FB7B002B1C
:1027B00028D00EE07B699B683A6913447A68926876
:1027C000128892B2D2B21A707B699B685A1C7B69DC
:1027D0009A60FB785A1EFA70002B05D07B699A68C4
:1027E0007B695B689A42E5D37B699A687B695B6821
:1027F0009A4221D17B685B6A00221946786800F012
:102800005CF819E07B68DB68002B06D07B68DB682E
:102810007A6810690022022198477B691B68002BA7
:102820000AD17B691B7B83F00103DBB2002B03D051
:102830007B689B681B8800BF00BF1837BD4680BD02
:1028400080B584B000AF78607B681B6ADB6A1B6868
:10285000002B2ED07B681B6ADB6A1B7B002B28D0E9
:102860007B681B6ADB6A1B68FB607B689B687A6815
:10287000126AD26A9268F9680A441278D2B292B2A5
:102880001A807B681B6ADB6A9A6801329A607B68EF
:102890001B6ADB6A9A687B681B6ADB6A5B689A4220
:1028A00007D37B681B6A01221946786800F005F897
:1028B00000BF00BF1037BD4680BD80B586B000AFF9
:1028C000F860B9601346FB71BB68DB6A00221A73BB
:1028D000BB68DB6A1A69BB68DA62FB79012B0AD133
:1028E000FB689B68FA689268928892B222F01202A2
:1028F00092B29A801BE0FB689B68FA6892689288A3
:1029000092B222F0200292B29A80FB6893F82D30A6
:1029100083F00103DBB2002B09D0FB689B68FA68E7
:102920009268928892B222F0010292B29A80FB6879
:10293000DB68002B38D0BB6893F83430022B33D1DE
:10294000FB689B697B61FB6800229A61BB681B6B1B
:102950001B683B61BB681B6B00221A60BB681B6B6A
:102960001A69BB681A63BB681B6B1B68002B03D119
:10297000BB68002283F834207B69002B07D0FB68FA
:10298000DB68FA6810697A690421984706E0FB68F9
:10299000DB68FA681069F9793A699847BB683C3393
:1029A0001846FEF745FE20E0FB79012B0ED100BF53
:1029B000FB689B689B8A9BB203F04003402BF7D1D6
:1029C000FB689B681B8F9BB2002BF1D1BB681B6B14
:1029D0001B691B68002B03D1BB68002283F83420DD
:1029E000BB683C331846FEF723FEBB68DB6A1B7BE3
:1029F000002B06D0BB689B6BBA68D26A1146F86898
:102A0000984700BF1837BD4680BD000080B485B030
:102A100000AF786039603A681346DB009B1A5B00B0
:102A2000154A1344FB607B689B68FA6812889A8198
:102A30007B689B68FA6852881A857B689B68FA688D
:102A400092889A847B689B68FA68D2889A857B68AA
:102A50009B68FA6812891A847B689B68FA685289B5
:102A60009A877B689B68FA6892899A8000BF1437BE
:102A7000BD4680BC704700BFB886010080B586B0F7
:102A800000AF78600F4A07F10C0307CA03C31A703E
:102A90000D4A07F108031268114619800233120C1F
:102AA0001A7007F10C0318460EF02EF878680EF035
:102AB0002BF807F1080318460EF026F800BF183768
:102AC000BD4680BDD8860100E486010080B584B093
:102AD00000AF78600A4A07F10C03126811461980AA
:102AE0000233120C1A7078680EF00EF807F10C031E
:102AF00018460EF009F800BF1037BD4680BD00BF74
:102B0000E486010080B582B000AF0A4B7B600A4BBF
:102B10003B6007E03B681A1D3A607A68111D7960D6
:102B200012681A603B68054A9342F3D300F076F8C6
:102B3000FDF76CFBC0BB010000000420800B0420EB
:102B400080B400AFFEE7000080B487B000AF2E4B2A
:102B50001B6803F00303032B50D801A252F823F0A3
:102B6000712B0000792B0000812B0000E92B000065
:102B7000264B274A1A603CE0244B254A1A6038E06D
:102B8000214B1B6803F40063002B02D0204B7B61B8
:102B900001E01F4B7B611C4BDB6803F01F033B61B3
:102BA000194BDB68DB0A03F00F03FB60164BDB6895
:102BB0001B0C03F00103BB60134BDB681B0A03F023
:102BC00001037B607A69BB6802FA03F33A6902FB8E
:102BD00003F2FB68B2FBF3F27B6822FA03F37B613A
:102BE0000A4A7B69136004E00A4B1B68074A1360BA
:102BF00000BF064B1B68084A136000E000BF1C378B
:102C0000BD4680BC704700BF00C30440F0140420E0
:102C100080BA8C01F4140420F814042080B584B028
:102C200000AF0121062000F01FF8EFF310837B6056
:102C30007B68FB6072B60A4B0A4A9A60084B4FF4F5
:102C4000E0225A62BFF36F8FBFF34F8FFB68BB6008
:102C5000BB6883F3108800BF1037BD4680BD00BF3E
:102C600000ED00E00000000080B483B000AF7860A9
:102C70000B46FB700E4B44F65902DA60FB78002BD2
:102C800007D00B490A4B5A697B685B0813434B61B9
:102C900007E00749064B5A697B685B08DB43134032
:102CA0004B61002318460C37BD4680BC704700BFFF
:102CB00000C0044080B584B000AFF860B9607A60AD
:102CC000BB68002B06D0012B00D034E01C4B012246
:102CD0001A7030E01B4B1B785A1CD1B2194A117084
:102CE0001A46194B1978194B9954164B1B783F2BE0
:102CF00006DD144B00221A70154B01221A7012E0E7
:102D0000104B1B78013B114AD35C0D2B0BD10D4BA3
:102D10001B78013B0D4A0021D1540A4B00221A7046
:102D20000B4B01221A700B4B186800230122064935
:102D3000FFF750FA00BF00BF1037BD4680BD00BF8F
:102D40005C00042008180420C4170420C8170420BD
:102D50000918042010150420B0B582B002AF504B02
:102D60000093B0234F4A02210020FFF75BF803468F
:102D70001A464D4B1A704C4B1B78002B17D04B4A00
:102D80004B4B15461C460FCC28606960AA60EB606F
:102D900007CC28616961AA612388A278AB831346B6
:102DA000AB774248FFF792FE3F4B1B7874E03C4BF9
:102DB0001868032300220021FFF7D0FA03461A46C1
:102DC000394B1A70384B1B78002B13D0374A394BCC
:102DD00015461C460FCC28606960AA60EB6003CCE6
:102DE0002861696123782B763048FFF76FFE2E4B00
:102DF0001B7851E02A4B1868022300931F230222FC
:102E00000721FFF7D4FA03461A46274B1A70264BC0
:102E10001B78002B14D0254A274B15461C460FCC97
:102E200028606960AA60EB6007CC28616961AA61CB
:102E30002388AB831D48FFF749FE1B4B1B782BE013
:102E4000174B1B6800221D491846FFF775FA034609
:102E50001A46154B1A70144B1B78002B14D0134ACA
:102E6000174B15461C460FCC28606960AA60EB60C2
:102E700007CC28616961AA612388AB830B48FFF7FF
:102E800025FE094B1B7807E0054B1868002301223B
:102E90000C49FFF79FF903461846BD46B0BD00BF79
:102EA0001015042014150420FC1404208C3904206F
:102EB000FC8601001C87010038870100B52C00004A
:102EC00058870100C417042080B582B000AF0023EA
:102ED000FB7110211948FDF7EBFA03461A46184B0F
:102EE0001A700023FB71FB79032B20DCFB79154A58
:102EF000D05CFB79144A32F8133001221946FDF7F1
:102F000007FB03461A460E4B1A70FB790D4AD05C3C
:102F1000FB790D4A32F813301946FDF733FB0346AF
:102F20001A46074B1A70FB790133FB71DBE7044B40
:102F30001B7818460837BD4680BD00BF0015042029
:102F4000FD140420E8860100EC86010080B586B0FF
:102F500000AF78600023FB744D4B1B883B814D4BC9
:102F60007B61FF2279684C480EF082FA4A4B0022BE
:102F700083F8FF20484BFB60F8680EF0FBF903462E
:102F80007B81464B1B78DBB2002B0CBF0123002357
:102F9000DBB2002B07D07B69013B7B617B69002B97
:102FA00000D0EEE700BF3D4B00221A703C4B186882
:102FB0007A890023F968FFF75BF80346002B14BFFA
:102FC00001230023DBB2002B01D000235CE00123AE
:102FD000FB74304B7B61314B1B78DBB2002B0CBF99
:102FE00001230023DBB2002B07D07B69013B7B610F
:102FF0007B69002B00D0EEE700BF284B00221A703F
:10300000274B186807F1080100230122FFF730F869
:103010000346002B14BF01230023DBB2002B01D099
:10302000002331E00123FB741A4B7B611B4B1B789F
:10303000DBB2002B0CBF01230023DBB2002B07D037
:103040007B69013B7B617B69002B00D0EEE700BF11
:10305000124B00221A70124B186807F10803591C12
:1030600000230122FFF704F80346002B14BF0123BD
:103070000023DBB2002B01D0002305E00123FB7409
:10308000022003F0EBFBFB7C18461837BD4680BDE1
:103090007887010080969800C41604205C00042004
:1030A0001015042080B586B000AF78600023FB7453
:1030B000204B7B61FF2279681F480EF0D9F91E4B27
:1030C000002283F8FF201C4BFB60F8680EF052F9D9
:1030D00003467B81194B1B78DBB2002B0CBF01230D
:1030E0000023DBB2002B07D07B69013B7B617B694E
:1030F000002B00D0EEE700BF104B00221A70104BDF
:1031000018687A890023F968FEF7B2FF0346002B9E
:1031100014BF01230023DBB2002B01D0002305E004
:103120000123FB74022003F099FBFB7C184618373F
:10313000BD4680BD80969800C41604205C00042023
:103140001015042080B582B000AF0023FB71FB791D
:10315000032B3ADCFB79264AD25CFB790133DBB2E4
:103160001946104603F0CAFA0346BB71BB79002B1F
:1031700012D1204B1B78042B06D11F48FFF7E6FE27
:103180001E48FFF7E3FEFEE7FB791D4A0121D154FB
:10319000184B01221A7014E0BB790E2B11D1154B7C
:1031A0001B78012B06D11448FFF7D0FE1348FFF718
:1031B000CDFEFEE7FB79124A0121D1540D4B0422CA
:1031C0001A70FB790133FB71C1E703F033FB03464F
:1031D000002B06D00B48FFF7B9FE0B4B01221A70EB
:1031E00003E00A48FFF7B2FEFEE70837BD4680BDA0
:1031F000F4860100181804207C870100BC870100B8
:1032000010180420F4870100091804202488010004
:1032100080B500AF444B1B78042B00F2808001A2E4
:1032200052F823F0393200003F320000BF32000074
:103230001F330000C5320000FFF784FF72E03B4BF4
:103240001B78002B13D04021394803F032FB394B57
:1032500000221A70384B00221A70384B186800236D
:1032600001223749FEF7B6FF304B00221A70354B6A
:103270001B78002B03D1344B1B78002B51D0314BE2
:1032800000221A70304B00221A70FA2003F0E6FA7E
:103290002E4B1B681B6810331B682C4A10682C4A85
:1032A0001278114698470346002B0CBF01230023D8
:1032B000DBB2002B35D02748FFF748FE31E002F0A3
:1032C000F5FF2FE0194B1B78002B15D003F0D4F835
:1032D0004021174803F0EDFA164B00221A70164BE6
:1032E00000221A70154B1868002301221449FEF7BA
:1032F00071FF0E4B00221A700F4B1B78DBB2002BB4
:1033000014BF01230023DBB2002B04D00A4B0022A0
:103310001A7003F08BF95A2003F0A0FA02E000BF04
:1033200000E000BF00BF80BD181804205D0004202D
:10333000C8170420081804200918042010150420B8
:10334000C417042014180420151804206000042059
:10335000691804206C88010080B584B000AF7860E3
:10336000396003F0A3FBA34B00221A80FDF752FE45
:1033700003461A46A04B1A709F4B1B78002B14BFB4
:1033800001230023DBB2002B1DD09B4B1B78002BAD
:1033900016D040F29B13994A99499A480DF068FE5D
:1033A0009848FFF76BFB944B1B78974A97499548D1
:1033B0000DF05EFE9348FFF789FB00200CF0B0FC97
:1033C0008D4B1B7811E10320FDF782FE03461A4660
:1033D000894B1A70884B1B78002B14BF01230023E4
:1033E000DBB2002B1CD0844B1B78002B16D04FF483
:1033F000D273824A824983480DF03AFE8148FFF732
:103400003DFB7D4B1B78824A80497E480DF030FEA3
:103410007C48FFF75BFB00200CF082FC0123E4E01A
:1034200001210120FDF7FEFE03461A46724B1A7079
:10343000714B1B78002B14BF01230023DBB2002B40
:103440001DD06D4B1B78002B16D04FF4D6736B4AF2
:103450006B496C480DF00CFE6A48FFF70FFB664B9A
:103460001B786C4A694967480DF002FE6548FFF712
:103470002DFB00200CF054FC5F4B1B78B5E00121C4
:103480000120FDF785FE03461A465B4B1A705A4B26
:103490001B78002B14BF01230023DBB2002B1DD0AF
:1034A000554B1B78002B16D04FF4DA73534A54490E
:1034B00054480DF0DDFD5348FFF7E0FA4E4B1B7802
:1034C000554A52494F480DF0D3FD4E48FFF7FEFADA
:1034D00000200CF025FC484B1B7886E001210020E1
:1034E000FDF756FE03461A46434B1A70424B1B78B3
:1034F000002B14BF01230023DBB2002B1DD03E4B59
:103500001B78002B16D040F2BB133C4A3C493D4887
:103510000DF0AEFD3B48FFF7B1FA374B1B783E4A42
:103520003A4938480DF0A4FD3648FFF7CFFA00209D
:103530000CF0F6FB304B1B7857E04FF47A7003F039
:103540008DF9FFF7C1FCFFF707FC3448FFF7FEFCDD
:10355000334B2E221A700023FB73FB7B092B0BDCF1
:103560002F4B1846FFF79EFD4FF47A7003F076F963
:10357000FB7B0133FB73F0E7294B1846FFF7E6FCB2
:103580000A2003F06BF9274B1B78DBB2002B05D028
:10359000254B1B78042B01D0012300E00023002BD6
:1035A00004D0204B00221A7000F062FF1E4B1B78E3
:1035B000022B17D11D4B1B8801339AB21B4B1A806B
:1035C0001A4B1B881A461A4B1B881946642303FBA7
:1035D00001F3193B9A42D3DBFFF71AFE134B00228B
:1035E0001A80CDE7FFF714FECAE718461037BD462C
:1035F00080BD00BF082C0040FE1404208C88010010
:10360000B48801008C390420BC880100D4880100F2
:10361000F4880100188901003889010058890100E7
:103620000C18042009180420181804201618042067
:103630005E00042080B483B000AF7860044A7B68E9
:103640001A607B6818460C37BD4680BC704700BFC7
:10365000248A010080B582B000AF78607868FFF7F7
:10366000E9FF1421786803F059FB7B681846083796
:10367000BD4680BD80B582B000AF7860094A094B75
:103680009B8E9BB243F030039BB293867B684C22A7
:103690009A74786800F054F8034618460837BD4617
:1036A00080BD00BF0000024080B582B000AF7860EE
:1036B0000B46FB70094A094B9B8E9BB243F03003CB
:1036C0009BB293867B68FA789A74786800F038F831
:1036D000034618460837BD4680BD00BF00000240C3
:1036E00080B483B000AF7860002318460C37BD4625
:1036F00080BC704780B483B000AF78600023184668
:103700000C37BD4680BC704780B584B000AF786090
:103710007B685B691846FDF751F80346FB73FB7B3A
:10372000002B0CBF01230023DBB2002B01D00023B0
:1037300002E0FB7B43F0806318461037BD4680BD36
:1037400080B584B000AF78607B6803F118017B68B6
:10375000143330220020FCF7D9FF0346FB73FB7BB8
:10376000002B03D0FB7B43F080631DE07B685B692B
:103770001846FDF779F80346FB73FB7B002B03D05B
:10378000FB7B43F080630FE07B685B690849184668
:10379000FDF77AF80346FB73FB7B002B03D0FB7B22
:1037A00043F0806300E0002318461037BD4680BD1B
:1037B000A086010080B58CB000AFF8607B600B463E
:1037C000FB721346BB72FB685A69FB689B7C9BB219
:1037D00019461046FDF7A6F80346FB77FB7F002B42
:1037E00003D0FB7F43F0806328E0BB7A3B7407F192
:1037F00010033B620123BB847B68BB623B8FBB85AC
:10380000FB7A002B0CBF01230023DBB287F82E309C
:10381000012387F82F30FB685B6907F1180207F175
:1038200020011846FCF7DCFF0346FB77FB7F002BEB
:1038300001D1002302E0FB7F43F08063184630375C
:10384000BD4680BD90B589B002AF78600B46FB7075
:103850000023BB810523FB827B681B6878331B68D0
:10386000FA7811467868984703463B613B69002B1C
:1038700001D03B6921E07B681B687C331C6807F141
:103880000C02012300931346022200217868A0470E
:1038900003463B61642002F0E1FFFB8A013BFB82AF
:1038A0003B7B012B03D0FB8A002B00DDE3E7FB8A87
:1038B000002B01D1042300E03B6918461C37BD46AC
:1038C00090BD90B589B002AF78600B46FB700523C0
:1038D000FB82FB1C3B617B681B681B687868984710
:1038E0000346FB60322002F0B9FF7B681B687C3323
:1038F0001C68012300933B69802201217868A0475E
:103900000346FB604FF47A7002F0A8FFFA787B68F8
:103910009A747B685A697B689B7C9BB219461046F7
:10392000FDF700F83B6900221A707B681B687C3346
:103930001C68012300933B69022200217868A0479C
:103940000346FB60642002F089FFFB8A013BFB8297
:103950003B691B78002B03D1FB8A002B00DDE4E7D9
:103960007B681B680C331B6878689847FB8A002BC0
:1039700001D1042306E03B691B78032B01D10E2300
:1039800000E0FB6818461C37BD4690BD90B589B075
:1039900002AF786039600023BB810023FB827B6823
:1039A0001B687C331C6807F10C020223009313464A
:1039B000042200217868A04703463B61322002F0D0
:1039C0004DFF7B681B687C331C6807F10C020223E7
:1039D00000931346042200217868A04703463B6108
:1039E0003B7B1B021AB27B7B1BB21343FB823B68FF
:1039F000FA8A1A803B6918461C37BD4690BD90B5BF
:103A000089B002AF786039600023BB810023FB825C
:103A10007B681B687C331C6807F10C02022300934F
:103A20001346062200217868A04703463B613220F6
:103A300002F014FF7B681B687C331C6807F10C02E2
:103A4000022300931346062200217868A04703460C
:103A50003B613B7B1B021AB27B7B1BB21343FB8295
:103A60003B68FA8A1A803B6918461C37BD4690BDF0
:103A700090B587B002AF78600B467B8000233B8116
:103A80007B881B12DBB23B727B88DBB27B727B686C
:103A90001B687C331C6807F108020223009313465D
:103AA000072201217868A0470346FB604FF4FA70B3
:103AB00002F0EAFEFB6818461437BD4690BD90B58B
:103AC00089B002AF786039600023BB810023FB829C
:103AD0007B681B687C331C6807F10C02022300938F
:103AE0001346532200217868A04703463B613220E9
:103AF00002F0B4FE7B681B687C331C6807F10C0283
:103B0000022300931346532200217868A0470346FE
:103B10003B613B7B5BB2002B01DAFF23FB82B7F9F1
:103B200016301B021AB23B7B1BB21343FB82B7F960
:103B300016301B021AB27B7B1BB21343FB82FA8A3C
:103B40003B681A803B6918461C37BD4690BD90B54E
:103B500087B002AF7860FF23FB727B681B687C3301
:103B60001C6807F10B020123009313460822012170
:103B70007868A0470346FB604FF4FA7002F084FEB9
:103B8000FB6818461437BD4690BD90B587B002AFAC
:103B90007860FF23FB727B681B687C331C6807F12D
:103BA0000B020123009313460A2201217868A047E3
:103BB0000346FB604FF4FA7002F066FEFB6818469D
:103BC0001437BD4690BD90B587B002AF78600B4604
:103BD000FB707B681B687C331C68FA1C0123009314
:103BE00013460C2201217868A0470346FB604FF47E
:103BF000FA7002F049FEFB6818461437BD4690BDC6
:103C000090B585B002AF786039607B681B687C3303
:103C10001C68012300933B680E2200217868A047AE
:103C2000322002F01BFE7B681B687C331C6801237A
:103C300000933B680E2200217868A047034618468F
:103C40000C37BD4690BD90B587B002AF78600B468B
:103C50007B8000233B81B7F902301B12DBB23B7241
:103C60007B88DBB27B727B681B687C331C6807F146
:103C70000802022300931346102201217868A0470E
:103C80000346FB604FF4FA7002F0FEFDFB68184635
:103C90001437BD4690BD90B589B002AF78603960E9
:103CA0000023BB810023FB827B681B687C331C687C
:103CB00007F10C02022300931346122200217868B8
:103CC000A04703463B61322002F0C8FD7B681B68B9
:103CD0007C331C6807F10C02022300931346122266
:103CE00000217868A04703463B613B7B5BB2002B19
:103CF00001DAFF23FB82B7F916301B021AB23B7BB5
:103D00001BB21343FB82B7F916301B021AB27B7B3E
:103D10001BB21343FB823B68FA8A1A803B69184640
:103D20001C37BD4690BD90B587B002AF7860396052
:103D300007F1080300210A461A800A469A703B6878
:103D40001B0CDBB23B723B681B0ADBB27B723B682D
:103D5000DBB2BB727B681B687C331C6807F108020E
:103D6000032300931346192201217868A0470346D4
:103D7000FB604FF4FA7002F087FDFB6818461437B9
:103D8000BD4690BD90B589B002AF7860396007F14B
:103D90000C0300210A461A800A469A7000237B61B0
:103DA0007B681B687C331C6807F10C0203230093BB
:103DB00013461B2200217868A04703463B6132204E
:103DC00002F04CFD7B681B687C331C6807F10C0219
:103DD0000323009313461B2200217868A047034663
:103DE0003B613B7B1A047B7B1B021343BA7B13436F
:103DF0007B613B687A691A603B6918461C37BD468F
:103E000090BD90B587B002AF78600B46FB707B68C1
:103E10001B687C331C68FA1C0123009313461C2288
:103E200001217868A0470346FB604FF4FA7002F066
:103E30002BFDFB6818461437BD4690BD90B585B084
:103E400002AF786039607B681B687C331C68012393
:103E500000933B681D2200217868A047322002F0C1
:103E6000FDFC7B681B687C331C68012300933B6866
:103E70001D2200217868A047034618460C37BD462E
:103E800090BD90B587B002AF78600123FB727B686C
:103E90001B687C331C6807F10B0201230093134657
:103EA0001E2201217868A0470346FB604FF4FA7098
:103EB00002F0EAFCFB6818461437BD4690BD90B589
:103EC00085B002AF786039607B681B687C331C6802
:103ED000F02300933B681F2200217868A0476420EC
:103EE00002F0BCFC7B681B687C331C68F0230093E9
:103EF0003B681F2200217868A047034618460C370C
:103F0000BD4690BD90B585B002AF786039607B68E2
:103F10001B687C331C684FF47A7300933B6825223E
:103F200000217868A047962002F098FC7B681B6807
:103F30007C331C684FF47A7300933B682522002180
:103F40007868A047034618460C37BD4690BD90B52B
:103F500085B002AF786039607B681B687C331C6871
:103F6000012300933B68552200217868A047322046
:103F700002F074FC7B681B687C331C68012300938F
:103F80003B68552200217868A047034618460C3745
:103F9000BD4690BD90B587B002AF78600B46FB7010
:103FA0001346BB7000233B81FB78002B02DDFB78BE
:103FB000032B01DD0123FB70BB78092B02DDBB78ED
:103FC000C82B01DD6423BB70FB783B72BB787B722E
:103FD0007B681B687C331C6807F10802022300938E
:103FE0001346452201217868A0470346FB604FF441
:103FF000FA7002F049FCFB6818461437BD4690BDC4
:1040000090B589B002AFF860B96011461A460B4608
:10401000FB711346BB71BB790A334FF47A7202FB12
:1040200003F3134A82FB03129210DB17D31A9BB2DD
:104030005B00FB82FB681B687C331C68FB8A009377
:10404000BB6850220021F868A047962002F006FCC9
:10405000FB681B687C331C68FB8A0093BB6850229A
:104060000021F868A047034618461C37BD4690BD9E
:1040700095204F0990B587B002AF78600B46FB7072
:104080007B681B687C331C68FA1C01230093134671
:10409000512201217868A0470346FB604FF4FA7073
:1040A00002F0F2FBFB6818461437BD4690BD90B590
:1040B00085B002AF786039607B681B687C331C6810
:1040C000012300933B68522200217868A0473220E8
:1040D00002F0C4FB7B681B687C331C6801230093DF
:1040E0003B68522200217868A047034618460C37E7
:1040F000BD4690BD90B589B002AF786039600023AD
:10410000FB6000237B617B681B687C331C6807F1C4
:104110000C02042300931346302200217868A04744
:1041200003463B61322002F099FB7B681B687C33BD
:104130001C6807F10C02042300931346302200216F
:104140007868A04703463B613B7B1A067B7B1B04D8
:104150001A43BB7B1B021343FA7B13437B613B680F
:104160007A691A603B6918461C37BD4690BD90B508
:1041700087B002AF7860396000233B817B681B68A1
:104180007C331C6807F108020223009313462022A7
:1041900000217868A0470346FB60322002F05EFBF6
:1041A0007B681B687C331C6807F1080202230093BC
:1041B0001346202200217868A0470346FB603B7A23
:1041C0001B021AB27B7A1BB213431BB29AB23B6832
:1041D0001A80FB6818461437BD4690BD80B582B082
:1041E00000AF7860054A7B681A607B681846FFF765
:1041F00021FA7B6818460837BD4680BD94890100C6
:1042000080B582B000AF78607868FFF7E7FF48219B
:10421000786802F083FD7B6818460837BD4680BD8C
:1042200080B483B000AF7860044A7B681A607B6812
:1042300018460C37BD4680BC704700BF889D010002
:1042400080B582B000AF78607B681846FFF7E8FF62
:10425000034A7B681A607B6818460837BD4680BDF4
:10426000248A010080B582B000AF78607B68184670
:10427000FFF7E6FF034A7B681A607B681846083739
:10428000BD4680BD9489010080B582B000AF7860E2
:104290003448FEF75BFE3448FEF758FE3348FEF71D
:1042A00055FE3348FEF752FE3248FEF74FFE3248C5
:1042B000FEF74CFE3148FEF749FE3148FEF746FE58
:1042C0003048FEF743FE3048FEF740FE2F48FEF729
:1042D0003DFE2F48FEF73AFE2E48FEF737FE2E48E9
:1042E000FEF734FE2D48FEF731FE2A48FEF72EFE7B
:1042F0002B48FEF72BFE2B48FEF728FE2A48FEF738
:1043000025FE2A48FEF722FE2948FEF71FFE29480F
:10431000FEF71CFE2848FEF719FE2848FEF716FE99
:104320002748FEF713FE2748FEF710FE2648FEF743
:104330000DFE2648FEF70AFE2548FEF707FE254833
:10434000FEF704FE2448FEF701FE2448FEF7FEFDBA
:104350002348FEF7FBFD2348FEF7F8FD00BF0837B2
:10436000BD4680BDF08C0100208D0100588D0100FC
:10437000908D0100D48D0100108E0100588E010037
:104380009C8E0100EC8E0100248F0100788F0100CB
:10439000B48F0100F88F010040900100809001006F
:1043A000C490010004910100449101007C9101003E
:1043B000C0910100FC910100449201009092010023
:1043C000D09201002493010060930100A0930100AA
:1043D000E89301002894010070940100B494010056
:1043E000FC9401003895010080B485B000AF78607E
:1043F0007B68FB600023BB60FB681B78002B0ED042
:10440000FB681B78202B02D10123BB6002E0BB6854
:10441000002B03D1FB680133FB60EDE700BFFB68B5
:1044200018461437BD4680BC704780B485B000AFD5
:10443000786039603B68FB607B68BB60FB681B7819
:10444000002B0DD0FB681B78202B08D0BB685A1CB2
:10445000BA60FA68511CF96012781A70EEE700BF72
:10446000BB6800221A7000BF1437BD4680BC70477D
:1044700080B582B000AF0A4800F032F878607B68FF
:10448000002B03D07B680748984702E00648FEF7F8
:104490005DFD00F00BF800BF0837BD4680BD00BFD2
:1044A000C8170420CA1704203C95010080B500AF4E
:1044B000084B1B78002B0BD10748FEF747FD074838
:1044C000FEF744FD034B1B780133DAB2014B1A703F
:1044D00000BF80BD32390420509501006495010071
:1044E00080B588B000AF78600023FB617B68BB615A
:1044F00000237B6100233B610023FB60BB691B78C9
:10450000002B10D0BB691B78202B02D101233B610B
:1045100005E03B69002B02D1FB680133FB60BB69FE
:104520000133BB61EAE7104A7B6952F82330002B64
:1045300015D00E4A7B6952F82330FA68194678681C
:104540000CF046FF0346002B05D1074A7B6952F861
:104550002330FB6103E07B6901337B61E3E7FB69A7
:1045600018462037BD4680BD54010420F4000420C5
:1045700080B483B000AF786000BF0C37BD4680BC0C
:104580007047000080B590B002AF78607B687B63B5
:1045900007F10C0300221A605A609A60DA601A610F
:1045A000786BFFF721FF78637B6B1B78002B14BFC0
:1045B00001230023DBB2002B06D007F12003796B27
:1045C0001846FFF732FFEBE707F1200302224549C7
:1045D00018460CF0FDFE0346002B07D1424B01228A
:1045E0001A70424B1A78424B1A7039E007F12003D7
:1045F0000222404918460CF0EBFE0346002B07D17F
:10460000394B02221A70394B5A78394B1A7027E00D
:1046100007F120030222384918460CF0D9FE034660
:10462000002B07D1304B03221A70304B9A78304B55
:104630001A7015E007F120030222304918460CF0E9
:10464000C7FE0346002B07D1274B04221A70274BC5
:10465000DA78274B1A7003E02948FEF777FC3EE032
:10466000284B1B681B6810331B68264A1068204AB9
:104670001278114698470246234B1A60224B1B685A
:10468000002B0FD02148FEF761FC1E4B1B681B68F6
:104690000C331B681B4A12681046984702461A4B97
:1046A0001A601CE0104B1B781A4607F10C00184BDF
:1046B00000931346174A14210CF090FC07F10C03E9
:1046C0001846FEF743FC0F4B1B681B680C331B6836
:1046D0000C4A12681046984702460B4B1A6038374E
:1046E000BD4680BD9095010068180420F486010045
:1046F0006918042094950100989501009C9501008B
:10470000A0950100600004201C180420B095010051
:10471000EC950100D895010090B58DB004AF03462B
:10472000FB7107F1140300221A605A6000237B8298
:1047300000233B820023FB609F4B1B681B68783380
:104740001B689D4A1268F9791046984702469B4BB0
:104750001A609A4B1B68002B02D0984B1B6827E10C
:10476000052002F07BF80023FB77FB7F032B14DC92
:10477000FB7F934AD35CFA799A420AD1FB7F5A1C99
:10478000904B00931346904A4FF480718F480CF081
:1047900025FCFB7F0133FB77E7E78C48FEF7D6FB70
:1047A000052002F05BF807F114030821184602F017
:1047B00080F8814B1B681B6834331B687E4A126883
:1047C00007F114011046984702467C4B1A607B4B58
:1047D0001B68002B02D0794B1B68E9E04FF4807115
:1047E0007A4802F066F83B7D1A46794B53F822204E
:1047F000744B00931346774A4FF4807173480CF062
:10480000EDFB7248FEF7A2FB052002F027F807F146
:1048100014030821184602F04CF8674B1B681B680C
:104820006C331B68644A126807F1140110469847FC
:104830000246624B1A60614B1B68002B02D05F4B33
:104840001B68B5E04FF48071604802F032F83B7DA0
:104850001A46614B53F822205A4B009313465F4A85
:104860004FF4807159480CF0B9FB5848FEF76EFBC5
:10487000052001F0F3FF504B1B681B683C331B689D
:104880004D4A126807F112011046984702464B4BF9
:104890001A604A4B1B68002B02D0484B1B6887E00C
:1048A0004FF48071494802F004F8B7F912301A4603
:1048B000444B009313464A4A4FF4807143480CF02E
:1048C0008DFB4248FEF742FB052001F0C7FF3A4B43
:1048D0001B681B6844331B68374A126807F10C01D8
:1048E000104698470246354B1A60344B1B68002B24
:1048F00002D0324B1B685BE04FF48071334801F00B
:10490000D8FFFB68184609F009FE4FF00002354B4E
:1049100009F0A4FF03460C462A4A0292CDE900346E
:10492000314A4FF4807129480CF058FB2748FEF7B4
:104930000DFB052001F092FF1F4B1B681B68243301
:104940001B681D4A126807F110011046984702467D
:104950001A4B1A60194B1B68002B02D0174B1B68AF
:1049600026E04FF48071194801F0A3FF3B8A1A46F4
:10497000144B009313461D4A4FF4807113480CF0FA
:104980002DFB1248FEF7E2FA052001F067FF0A4B03
:104990001B681B680C331B68074A1268104698474F
:1049A0000246064B1A60052001F058FF034B1B68B6
:1049B00018462437BD4690BD600004201C18042012
:1049C000F4860100EC950100F0950100C415042067
:1049D0006800042010960100D400042020960100F5
:1049E0003496010000005940449601006096010091
:1049F00080B584B000AF0346FB710023FB60174B0A
:104A00001B681B6878331B68144A1268F9791046D2
:104A100098470246124B1A60104B1B681B68703394
:104A20001B680E4A126807F10C01104698470246AF
:104A30000B4B1A60094B1B681B680C331B68074A39
:104A40001268104698470246054B1A600A2001F08A
:104A500005FFFB6818461037BD4680BD6000042086
:104A60001C18042080B586B002AF78600023FB7369
:104A7000FB7B032B1BDCFB7B0F4AD35C002B12D090
:104A80004FF480710D4801F014FFFB7B5A1C0C4B56
:104A9000009313460B4A4FF4807108480CF09EFABD
:104AA0000648FEF753FAFB7B0133FB73E0E700BFD8
:104AB0001037BD4680BD00BF10180420C415042067
:104AC000EC9501008096010080B584B000AF78605D
:104AD0000023FB73FB7B032B11DCFB7B0A4AD35CBB
:104AE000002B08D0FB7B094AD35C1846FFF714FE65
:104AF0000A2001F0B3FEFB7B0133FB73EAE700BF42
:104B00001037BD4680BD00BF10180420F486010098
:104B100090B589B004AF78600023FB81274B1B68F8
:104B20001B6878331B68254A1068254A127811469D
:104B300098470246234B1A604FF48071224801F0D7
:104B4000B8FE1E4B1B681B6818331B681B4A126893
:104B500007F10E011046984702461A4B1A60194B8E
:104B60001B68002B03D01948FEF7F0F918E0B7F9DD
:104B70000E30184609F0E2FC4FF00002144B09F029
:104B80006DFE03460C46134A0292CDE90034124AE8
:104B90004FF480710C480CF021FA0B48FEF7D6F95F
:104BA000064B1B681B680C331B68044A12681046CE
:104BB000984700BF1437BD4690BD00BF6000042079
:104BC000691804201C180420C4150420A0960100B4
:104BD00000005940EC950100A896010090B589B0FD
:104BE00004AF78600023FB81274B1B681B68783378
:104BF0001B68254A1068254A1278114698470246D4
:104C0000234B1A604FF48071224801F052FE1E4B74
:104C10001B681B681C331B681B4A126807F10E01D6
:104C20001046984702461A4B1A60194B1B68002B16
:104C300003D01948FEF78AF918E0B7F90E30184684
:104C400009F07CFC4FF00002144B09F007FE03460C
:104C50000C46134A0292CDE90034124A4FF4807197
:104C60000C480CF0BBF90B48FEF770F9064B1B68BB
:104C70001B680C331B68044A12681046984700BF33
:104C80001437BD4690BD00BF6000042069180420A1
:104C90001C180420C4150420A096010000005940EF
:104CA000EC950100C496010080B58CB002AF78602D
:104CB0007B687B62002387F822300023FB61786ADF
:104CC000FFF792FB78627B6A1B78002B14BF0123ED
:104CD0000023DBB2002B06D007F10803796A1846DF
:104CE000FFF7A3FBEBE7002387F8233097F8233087
:104CF00007F12802134413F8203C002B19D097F831
:104D0000233007F12802134413F8203C303B092BD1
:104D100001D8012300E00023002B04D097F82230B3
:104D2000013387F8223097F82330013387F8233096
:104D3000DCE797F8222097F823309A4209D107F14F
:104D400008030A22002118460DF028FC0346FB61E7
:104D500002E02948FEF7FAF8FB69B3F5FA4F02D8EA
:104D6000FB69312B05D84FF4FA73FB612348FEF73A
:104D7000EDF8234B1B681B6878331B68204A1068CA
:104D8000204A12781146984702461F4B1A604FF48A
:104D900080711E4801F08DFD194B1B681B68203384
:104DA0001B68174A1268F96989B21046984702468B
:104DB000154B1A60144B1B68002B03D01448FEF7E8
:104DC000C5F80BE0134B0093FB69134A4FF4807155
:104DD0000E480CF003F90D48FEF7B8F8084B1B68B5
:104DE0001B680C331B68064A12681046984700BFC0
:104DF0002837BD4680BD00BFDC960100EC9601005F
:104E000060000420691804201C180420C415042024
:104E1000A0960100EC9501001497010080B58CB0BC
:104E200002AF78607B687B62002387F82230002322
:104E3000FB61786AFFF7D8FA78627B6A1B78002BEF
:104E400014BF01230023DBB2002B06D007F10803B7
:104E5000796A1846FFF7E9FAEBE7002387F8233071
:104E600097F8233007F12802134413F8203C002B55
:104E700019D097F8233007F12802134413F8203C87
:104E8000303B092B01D8012300E00023002B04D084
:104E900097F82230013387F8223097F82330013316
:104EA00087F82330DCE797F8222097F823309A42DE
:104EB0000AD107F108030A22002118460DF06EFB03
:104EC0000346DBB2FB6102E02848FEF73FF8FB69CE
:104ED0001A2B04D90123FB612548FEF737F8254B2F
:104EE0001B681B6878331B68224A1068224A1278B4
:104EF000114698470246214B1A604FF480712048B2
:104F000001F0D7FC1B4B1B681B6830331B68194A28
:104F10001268F969C9B2104698470246174B1A60E1
:104F2000164B1B68002B03D01648FEF70FF80FE056
:104F3000154AFB6952F82320144B00931346144A78
:104F40004FF480710E480CF049F80D48FDF7FEFF54
:104F5000084B1B681B680C331B68064A1268104616
:104F6000984700BF2837BD4680BD00BFDC960100D2
:104F70003897010060000420691804201C180420E0
:104F8000C4150420A096010068000420EC950100DF
:104F90006097010080B58CB002AF78607B687B625F
:104FA000002387F822300023FB61786AFFF71CFAA0
:104FB00078627B6A1B78002B14BF01230023DBB2CD
:104FC000002B06D007F10803796A1846FFF72DFA7F
:104FD000EBE73B7A2D2B04D197F82230013387F889
:104FE0002230002387F8233097F8233007F1280276
:104FF000134413F8203C002B19D097F8233007F105
:105000002802134413F8203C303B092B01D801231C
:1050100000E00023002B04D097F82230013387F8FA
:10502000223097F82330013387F82330DCE797F8F4
:10503000222097F823309A4208D107F108030A2268
:10504000002118460DF0AAFAF86102E02948FDF7A0
:105050007DFFFB6940F69802934203DCFB69264A18
:10506000934204DA0023FB612448FDF76FFF244BD1
:105070001B681B6878331B68214A1068214A127824
:10508000114698470246204B1A604FF480711F4822
:1050900001F00FFC1A4B1B681B6838331B68184A59
:1050A0001268F96909B2104698470246164B1A6011
:1050B000154B1B68002B03D01548FDF747FF0BE08D
:1050C000144B0093FB69144A4FF480710F480BF0A6
:1050D00085FF0E48FDF73AFF094B1B681B680C3330
:1050E0001B68074A12681046984700BF2837BD461C
:1050F00080BD00BFDC96010068F7FFFF84970100C8
:1051000060000420691804201C180420C415042021
:10511000A0960100EC950100AC970100B0B58EB0EF
:1051200004AF78607B687B62002387F8223000231D
:1051300087F821304FF00003FB61786AFFF754F9DC
:1051400078627B6A1B78002B14BF01230023DBB23B
:10515000002B06D007F10803796A1846FFF765F9B6
:10516000EBE7002387F8233097F8233007F1280274
:10517000134413F8203C002B2CD097F8233007F170
:105180002802134413F8203C303B092B01D801239B
:1051900000E00023002B04D097F82230013387F879
:1051A000223097F8233007F12802134413F8203CEB
:1051B0002E2B09D197F82230013387F8223097F847
:1051C0002130013387F8213097F82330013387F8F5
:1051D0002330C9E797F8222097F823309A420CD160
:1051E00007F10803002118460DF0F6F80346FB61AD
:1051F00097F82130012B08DD03E03548FDF7A6FEC6
:1052000063E03348FDF7A2FE5FE04FF08E41F8699E
:1052100009F0BEFD0346002B07D14FF00001F869ED
:1052200009F0A2FD0346002B03D02A48FDF78EFEAD
:105230004BE0294B1B681B6878331B68264A1068B3
:10524000264A1278114698470246254B1A604FF4B9
:105250008071244801F02DFB1F4B1B681B684033F5
:105260001C681D4B1D682049F86909F0DFFB0346E7
:10527000184609F0A1FD034619462846A0470246F4
:10528000174B1A60164B1B68002B03D01748FDF70D
:105290005DFE11E0F86909F063F903460C46144A13
:1052A0000292CDE90034134A4FF480710D480BF09F
:1052B00095FE0C48FDF74AFE074B1B681B680C3334
:1052C0001B68054A1268104698472837BD46B0BD8E
:1052D000DC960100C89701006000042069180420D2
:1052E0001C180420C41504200000C842A096010028
:1052F000EC950100D897010080B582B000AF7860CE
:10530000334B1B681B6878331B68314A1068314A7D
:1053100012781146984702462F4B1A604FF480715D
:105320002E4801F0C6FA2A4B1B681B6850331B68D5
:10533000274A1268104698470246274B1A60264BA8
:105340001B68002B0CD02648FDF700FE204B1B6885
:105350001B680C331B681E4A12681046984733E0DE
:10536000204B214A4FF480711C480BF037FE1B483C
:10537000FDF7ECFD4FF48071184801F09AFA194BD3
:105380001A4A4FF4807115480BF028FE1348FDF7B8
:10539000DDFD4FF48071114801F08BFA114B144A76
:1053A0004FF480710D480BF019FE0C48FDF7CEFD4F
:1053B000074B1B681B680C331B68054A12681046B4
:1053C00098470C4B01221A700837BD4680BD00BFBC
:1053D00060000420691804201C180420C41504204F
:1053E000A0960100EC950100049801003C98010092
:1053F00074980100151804202DE9F04F91B00CAFFE
:1054000078608C4B1B681B6878331B68894A10686E
:10541000894A1278114698470246884B1A604FF421
:105420008071874801F045FA4FF480620021854879
:105430000BF010FB4FF48062002183480BF00AFB55
:105440007C4B1B681B6854331B687A4A12687D4981
:10545000104698470246794B1A600023FB60FB68B0
:105460003B2B25DCFB689B00764AD25C774B1A709D
:10547000FB689B000133734AD25C744B5A70FB6823
:105480009B0002336F4AD25C704B9A70FB689B00A2
:1054900003336C4AD25C6D4BDA70FB689B006A4A3E
:1054A00013446A4A12681A60FB680133FB60D6E74E
:1054B000624B1B68002B0CD06548FDF747FD5D4B28
:1054C0001B681B680C331B685A4A126810469847C1
:1054D000ACE0604B604A4FF4807159480BF07EFDA0
:1054E0005748FDF733FD0023BB60BB680B2B00F36F
:1054F0009480BA6813469B001344534A52F82330F1
:1055000020225249184601F0E4F9504801F00AFA05
:1055100003460C46514AC2E90034BA6813469B0060
:1055200013440133484A52F8233020224749184691
:1055300001F0CFF9454801F0F5F903460C46474A1A
:10554000C2E90234BA6813469B00134402333E4A50
:1055500052F8233020223D49184601F0BAF93B4861
:1055600001F0E0F903460C463C4AC2E90434BA684B
:1055700013469B0013440333334A52F8233020224E
:105580003249184601F0A5F9304801F0CBF903463D
:105590000C46324AC2E90634BA6813469B001344EB
:1055A0000433294A52F8233020222849184601F0B2
:1055B00090F9264801F0B6F903460C46274AC2E99D
:1055C00008344FF480711E4801F073F9234B18CB57
:1055D000224AD2E902122148D0E904561F48D0E9F4
:1055E00006891E48D0E908AB1A480A90CDE908ABF5
:1055F000CDE90689CDE90456CDE90212CDE90034A2
:10560000174A4FF480710E480BF0E8FC0C48FDF788
:105610009DFCBB680133BB6067E7064B1B681B68DA
:105620000C331B68034A1268104698471437BD466E
:10563000BDE8F08F60000420691804201C180420C5
:10564000C4150420B0300420B034042070180420A5
:10565000A0960100EC9501009C980100D038042030
:10566000D09801002DE9F04FADB01AAFF8636E4B42
:105670001B681B6878331B686B4A10686B4A12788A
:105680001146984702466A4B1A604FF48071694888
:1056900001F00FF94FF48062002167480BF0DAF94E
:1056A0004FF48062002165480BF0D4F95E4B1B6813
:1056B0001B6858331B685C4A12685F49104698475C
:1056C00002465B4B1A60002387F8473097F8473053
:1056D000CB2B2CDC97F847309B00574AD25C584BB9
:1056E0001A7097F847309B000133534AD25C544BF1
:1056F0005A7097F847309B0002334F4AD25C504BA8
:105700009A7097F847309B0003334B4AD25C4C4B5E
:10571000DA7097F847309B00484A1344484A1268A9
:105720001A6097F84730013387F84730CEE7404B8F
:105730001B68002B0CD04348FDF708FC3A4B1B6854
:105740001B680C331B68384A126810469847FAE009
:105750003D4B3E4A4FF4807136480BF03FFC3548D4
:10576000FDF7F4FB00233B643B6C0B2B00F3E28062
:105770003A6C13461B011344304A52F8233020225E
:105780002F49184601F0A5F82D4801F0CBF8034643
:105790000C462F4AC2E90034002387F8473097F8B7
:1057A0004730052B17DC97F847309B00294A99189A
:1057B00097F84730581C3A6C13461B0113440344B6
:1057C0009B001E4A13441B680B6097F84730013357
:1057D00087F84730E3E7012387F8473097F84730E9
:1057E0000A2B39DC97F84730991D3A6C13461B0198
:1057F00013440B44114A52F8233020221049184612
:1058000001F067F897F847500D4801F08BF8034610
:105810000C460F49EA000A44C2E9003497F84730C1
:10582000013387F84730D9E7600004206918042065
:105830001C180420C4150420B0300420B034042007
:1058400070180420A0960100EC950100E898010072
:10585000D0380420B03804204FF480713C4801F067
:1058600028F83C4B18CBC7E90C343B4B18683A4B33
:105870005E68394B9B68BB63374BDA68FA62364B1C
:105880001969B962344B5C697C62324BD3E9028995
:10589000C7E906892F4BD3E9049AC7E9049A2D4B2F
:1058A000D3E906ABC7E902AB2A4BD3E908BCC7E989
:1058B00000BC284BD3E90AAB264BD3E90C89254B16
:1058C000D3E91245234BD3E91412244B1893CDE9A5
:1058D0001612CDE91445CDE91289CDE910ABD7E90F
:1058E00000BCCDE90EBCD7E902ABCDE90CABD7E9E2
:1058F000049ACDE90A9AD7E90689CDE908897C6A34
:105900000794B96A0691FA6A0592BB6B04930396F1
:105910000290D7E90C34CDE90034114A4FF480717C
:105920000B480BF05BFB0A48FDF710FB3B6C0133A7
:105930003B6419E70B4B1B681B680C331B68094A57
:105940001268104698474C37BD46BDE8F08F00BF3F
:10595000C4150420D0380420B0380420EC95010090
:10596000989901006000042080B584B002AF78608F
:10597000234B1B681B6878331B68214A1068214A37
:1059800012781146984702461F4B1A604FF48071F7
:105990001E4800F08EFF40211D4800F08AFF184B82
:1059A0001B681B685C331B68154A1268184910464F
:1059B00098470246144B1A60134B1B68002B03D008
:1059C0001448FDF7C3FA0EE0114B1B781A46124B30
:1059D00000931346114A4FF480710C480BF0FEFA05
:1059E0000A48FDF7B3FA064B1B681B680C331B68AB
:1059F000034A12681046984700BF0837BD4680BD6D
:105A000060000420691804201C180420C415042018
:105A100070180420A0960100EC950100DC990100AB
:105A200080B582B000AF7860304B1B681B6878335C
:105A30001B682E4A10682E4A127811469847024673
:105A40002C4B1A6040212C4800F033FF274B1B6879
:105A50001B685C331B68254A126827491046984723
:105A60000246244B1A60244B1A78244B1A704FF4C8
:105A70008071234800F01DFF1C4B1B681B686033BE
:105A80001B681A4A10681F4A11781F4A12789847F3
:105A90000246184B1A60174B1B68002B0CD01B4892
:105AA000FDF754FA114B1B681B680C331B680F4A37
:105AB00012681046984715E0154B164A4FF480714E
:105AC0000F480BF08BFA0E48FDF740FA074B1B68A6
:105AD0001B680C331B68054A1268104698470E4B2A
:105AE00001221A700837BD4680BD00BF6000042047
:105AF000691804201C180420701804206C18042055
:105B0000C41504206A1804206B180420A096010014
:105B1000EC950100EC99010014180420000000002D
