:1000000000400020052B0000412B0000412B000088
:10001000412B0000412B0000412B0000000000009C
:10002000000000000000000000000000412B000064
:10003000412B000000000000412B0000412B00007C
:1000400055190000412B0000412B0000412B0000FE
:10005000412B0000412B00008D14000041140000D2
:100060008D1600007106000081060000412B000083
:10007000412B0000412B000005240000412B000013
:10008000412B0000412B0000210F0000B9030000AC
:10009000412B0000412B0000412B0000412B0000B0
:1000A000412B0000412B0000412B0000412B0000A0
:1000B000252700004D270000412B0000412B0000A8
:1000C000412B0000412B0000412B0000412B000080
:1000D000412B0000412B0000412B0000412B000070
:1000E000412B00009D130000412B0000391300003C
:1000F000412B0000412B0000412B000000000000BC
:1001000000000000000000000000000000000000EF
:1001100000000000000000000000000000000000DF
:10012000412B0000412B0000412B0000412B00001F
:10013000412B0000412B0000412B0000412B00000F
:10018000FFFFFFFFFFFFFFFFFFFFFFFFFFFFFFFF7F
:1001900003329CA77F000000FFFFFFFFFFFFFFFF70
:1001A00010B5054C237833B9044B13B10448AFF3B1
:1001B00000800123237010BD000C0420000000000B
:1001C00080B101000C4B43B10C4810B50C49AFF3A2
:1001D00000800C48036823B910BD0A48036833B98E
:1001E0007047094B002BF7D0BDE810401847064B6D
:1001F000002BF5D0184700BF0000000080B10100BF
:10020000040C04208C0B042000000000154B002B74
:1002100008BF134B9D46A3F5803A00218B460F463D
:100220001348144A121A10F05FFB0F4B002B00D03A
:1002300098470E4B002B00D0984700200021040067
:100240000D000D48002802D00C4815F033F80FF0CF
:1002500019FF2000290003F033F80FF0ABFC00BFBA
:100260000000080000400020000000000000000026
:10027000000C04202C390420B55201008D640100CB
:1002800080B483B000AF0346FB7197F90730002BB1
:100290000BDB084997F907305B09FA7902F01F0276
:1002A000012000FA02F241F8232000BF0C37BD46BE
:1002B00080BC704700E100E080B584B000AF00234F
:1002C000FB60EFF310837B607B68FB6072B61B4BB7
:1002D0001B7883F00103DBB2002B26D0174B0122E1
:1002E0001A70174A164B5B6843F001035360144BB6
:1002F000144A9A601320FFF7C3FF6FF07843BB6086
:100300000F4ABB6813620E4ABB68D3620C4ABB68D3
:1003100053630B4ABB68D363094ABB689364084ABA
:10032000BB68D364064ABB681365FB683B603B68E7
:1003300083F3108800BF1037BD4680BD0014042031
:10034000000001400010042080B489B000AF0346D3
:10035000B9607A60FB730023FB77164AFB7BDB00F6
:1003600013440433BB61BB69BA681A60BB697A681D
:100370005A60FB7B012202FA03F37B61BB68002B0E
:1003800008D00C490B4BD3F8DC207B691343C1F830
:10039000DC3008E00749074BD3F8DC207B69DB43FE
:1003A0001340C1F8DC30FB7F18462437BD4680BCC3
:1003B000704700BF0014042080B58AB000AF2C4BFA
:1003C000DB6CFB612A4B9B6CBB61294B1B6D7B611A
:1003D000284BD3F8DC20B9697B690B4313407B625F
:1003E0007B6A002B37D020233B617B6AB3FA83F30F
:1003F0003B622CE03A693B6AD31A013BFB60012265
:10040000FB6802FA03F3BB601A4AFB68DB00134483
:1004100004337B607B681B68002B0FD0BA69BB6814
:100420001340002B01D0012300E002233B607B68D6
:100430001B687A685068002239689847BB68DB43BC
:100440007A6A13407B627B6AB3FA83F33B623A6A4F
:100450003B699A42CED3064ABB699364044A7B69DE
:100460001365034AFB69D36400BF2837BD4680BDCE
:10047000000001400014042080B483B000AF0346A4
:10048000FB7197F90730002B0BDB084997F9073010
:100490005B09FA7902F01F02012000FA02F241F82A
:1004A000232000BF0C37BD4680BC704700E100E050
:1004B00080B584B000AF78603960144BDB68002BE6
:1004C0001ED1124A7B68D3600023FB600FE00F4B04
:1004D000DB68FA68002143F832100C4BDA68FB68DD
:1004E000DB00134400225A60FB680133FB60FB68A9
:1004F000012BECD90920FFF7BFFF0A20FFF7BCFF53
:10050000002318461037BD4680BD00BF04000420FC
:1005100080B487B000AF0346FB710B46BB80134627
:10052000BB7100237B61FB79154A52F823303B6194
:10053000EFF31083FB60FB687B6172B6BB79002B25
:1005400008D03B699B889AB2BB8813439AB23B6937
:100550009A8009E03B699B889AB2BB88DB439BB2D7
:1005600013409AB23B699A807B69BB60BB6883F396
:100570001088002318461C37BD4680BC704700BF5A
:100580000400042080B485B000AF03460A46FB7126
:100590001346BB80FB79064A52F82330FB60FB68A8
:1005A000BA881A83002318461437BD4680BC7047AA
:1005B0000400042080B485B000AF03460A46FB71F6
:1005C0001346BB80FB79064A52F82330FB60FB6878
:1005D000BA889A83002318461437BD4680BC7047FA
:1005E0000400042080B586B000AF03460A46FB71C4
:1005F0001346BB711D4BDA68FB79DB0013443B618A
:100600000023FB752BE0FB7D184A52F82330FB607A
:1006100097F90630092B03D1FB681B8DBB8202E0E2
:10062000FB689B8DBB82FB681B8E9AB2BB8A134012
:100630009BB27B817A89FB681A863B691B68002B19
:100640000AD07B89002B07D03B691B683A69506848
:10065000F97D07F10A029847FB7D0133FB75FB7DAD
:10066000022BD0D900BF1837BD4680BD040004203E
:1006700080B500AF09210020FFF7B4FF00BF80BDA7
:1006800080B500AF0A210120FFF7ACFF00BF80BD9D
:1006900080B483B000AF0346FB7197F90730002B9D
:1006A0000BDB084997F907305B09FA7902F01F0262
:1006B000012000FA02F241F8232000BF0C37BD46AA
:1006C00080BC704700E100E080B483B000AF034617
:1006D000FB7197F90730002B10DB0B4997F90730B6
:1006E0005B09FA7902F01F02012000FA02F22033BE
:1006F00041F82320BFF34F8FBFF36F8F00BF0C373C
:10070000BD4680BC704700BF00E100E080B588B006
:1007100000AFF860B9607A603B60BB68FB61234B57
:10072000BB61BB691B689B8C9BB2B3F5217F05D174
:100730001F4A1F4B1B6843F0300313603B680022C5
:100740001A601C4AFB681B0113440C33BA681A6018
:100750007A680021B86810F0C7F8FB681B01154AD9
:100760001A44FB695A60134AFB681B0113440433A3
:100770001A68FB691A60FB695968FA6813465B00DE
:1007800013449B000C4A13448B60FB690022DA621D
:10079000F86900F033FA0346FB753B68FA691A60A2
:1007A000002318462037BD4680BD00BF300004201E
:1007B00034000240140004202400042080B584B0DA
:1007C00000AF7860786800F019FA0346FB737B6825
:1007D0005B680022DA60002318461037BD4680BDF2
:1007E00080B586B000AFF860B9607A60FB6800221F
:1007F0001A74B968F86800F0B1F8FB6893F82A3009
:10080000002B19D1FB682C3300221946002000F080
:1008100071FE0346FB75FB7D002B01D00D231DE00F
:1008200000BF104B1B881A46FB681B689B889BB255
:1008300003F488639A42F4D1FB6893F82B301A468C
:100840007B681A60FB6893F82B30002B03D0FB68A1
:10085000082283F82A20FB6893F82A3018461837B4
:10086000BD4680BDE014042080B582B000AF786042
:100870007B680022DA62786800F0C0F90346184607
:100880000837BD4680BD000080B586B000AF7860F7
:10089000396007F108031946002000F045FC0346C3
:1008A000002B01D0042335E03B681C4A934201D958
:1008B00001232FE0BA683B68B2FBF3F35B087B616E
:1008C0007B697B827A8A7B699A4201D0012321E08D
:1008D0007B8A073B3B827B8A013BFB813B8A1B0275
:1008E0003B820F4B1B881A463B8ADBB29A4207D1E8
:1008F0000B4B1B881A46FB8903F47F439A4201D0B5
:10090000012307E07B681B68398AFA890A4392B29F
:100910009A84002318461837BD4680BD801A060009
:10092000E014042080B483B000AF78600B467B8075
:10093000094B1B8819467A884FF6807313409942F9
:1009400001D00B2303E07B687A889A810023184644
:100950000C37BD4680BC7047E014042080B582B0DF
:1009600000AF786039607B68002283F82A207B68BA
:10097000002283F82B2000BF2B4B1B881A467B6874
:100980001B689B889BB203F488639A42F4D13B684E
:100990001A687B685A613B689A887B681A833B684F
:1009A000DA7B7B689A727B689B895B009BB2DBB2C7
:1009B0009AB27B68DA813B689B7B002B18D03B683E
:1009C0009A687B685A623B689A897B681A857B685B
:1009D0000022DA617B6800221A847B68DB8943F09D
:1009E00001039AB27B68DA81786800F087F817E033
:1009F0007B6800225A627B6800221A853B689A68ED
:100A00007B68DA613B689A897B681A847B68DB893A
:100A100023F001039AB27B68DA81786800F006F867
:100A200000BF0837BD4680BDE014042080B584B007
:100A300000AF78607B685B6893F900301846FFF779
:100A400027FE7B681B687A681268128892B242F0AF
:100A5000210292B21A807B681B689B889BB203F0CC
:100A600003039BB2C3F10203FB8116E07B681B68A2
:100A70007A6852691278D2B292B29A817B685B69C5
:100A80005A1C7B685A617B681B8B9BB2013B9AB2F4
:100A90007B681A83FB89013BFB817B681B8B9BB2C4
:100AA000002B1AD0FB89002BE0D116E07B681B6875
:100AB0007A68D2691278D2B292B29A817B68DB6985
:100AC0005A1C7B68DA617B681B8C9BB2013B9AB233
:100AD0007B681A84FB89013BFB817B681B8C9BB282
:100AE000002B02D0FB89002BE0D17B681B687A6861
:100AF000D2891A8300BF1037BD4680BD80B584B04F
:100B000000AF78607B685B6893F900301846FFF7A8
:100B1000BFFD7B681B687A681268128892B242F047
:100B2000110292B21A807B681B8D9BB2B3F5807F55
:100B30000DD97B681B684FF480721A827B681B8D0D
:100B40009BB2A3F580739AB27B681A850AE07B6832
:100B50001B687A68128D92B2013A92B21A827B684F
:100B600000221A857B681B8B9BB2002B3CD07B68D4
:100B70001B687A681268128892B242F0200292B220
:100B80001A807B681B689B889BB203F003039BB2AF
:100B9000C3F10203FB8116E07B681B687A68526927
:100BA0001278D2B292B29A817B685B695A1C7B68D8
:100BB0005A617B681B8B9BB2013B9AB27B681A839C
:100BC000FB89013BFB817B681B8B9BB2002B02D016
:100BD000FB89002BE0D17B681B687A68D28922F000
:100BE000010292B21A8304E07B681B687A68D2899A
:100BF0001A8300BF1037BD4680BD000080B584B0A9
:100C000000AF78607B685B6893F900301846FFF7A7
:100C10005BFD7B681B689B889BB2FB817B681B68C4
:100C2000FA8992B29A8004E07B681B689B899BB228
:100C3000BB81234B1B881A467B681B68B3F84C307A
:100C40009BB203F0C0039A42EED17B681B6800227E
:100C50001A807B681B680122A3F850207B681B6800
:100C60007A685268926812881A807B681B687A6872
:100C70005268926852889A847B681B687A685268C6
:100C800092689288A3F850207B681B687A68526843
:100C90009268D288A3F854207B681B687A685268EF
:100CA00092681289A3F858207B685B689B685A8910
:100CB0007B689A81002318461037BD4680BD00BF6F
:100CC000E014042080B485B000AF78607B681B68B6
:100CD000B3F84C309BB21B119BB203F003039BB2E1
:100CE000C3F10203FB8116E07B681B687A685269D6
:100CF0001278D2B292B29A817B685B695A1C7B6887
:100D00005A617B681B8B9BB2013B9AB27B681A834A
:100D1000FB89013BFB817B681B8B9BB2002B02D0C4
:100D2000FB89002BE0D17B681B8B9BB2002B29D168
:100D30007B681B8D9BB2002B1CD07B681B687A687C
:100D4000D2891A831EE07B681B687A68D2691278A0
:100D5000D2B292B29A817B68DB695A1C7B68DA61F5
:100D60007B681B8C9BB2013B9AB27B681A84FB891F
:100D7000013BFB817B681B8C9BB2002B02D0FB8963
:100D8000002BE0D17B681B8C9BB2002B03D17B68CE
:100D90001B6804229A8000BF1437BD4680BC704790
:100DA00080B485B000AF78607B681B68B3F84C30C6
:100DB0009BB29B119BB203F00303FB8139E0FB89DB
:100DC000013BFB817B685B6A7A681268128992B288
:100DD000D2B21A707B685B6A5A1C7B685A627B6865
:100DE0001B689B8A9BB2002B23D17B681B8D9BB217
:100DF000B3F5807F0DD97B681B684FF480721A822F
:100E00007B681B8D9BB2A3F580739AB27B681A85B1
:100E10000FE07B681B8D9BB2002B0AD07B681B68A0
:100E20007A68128D92B2013A92B21A827B680022DD
:100E30001A85FB89002BC2D100BF1437BD4680BC88
:100E40007047000080B582B000AF786000BF0D4BE6
:100E50001B881A467B681B689B889BB203F48863D7
:100E60009A42F4D17B685B6893F900301846FFF72B
:100E70002BFC7B681B68044A12881A8000BF083765
:100E8000BD4680BDE01404202400042080B483B05B
:100E900000AF7860214B1B881A467B681B8903F0E2
:100EA00010039A4208D07B6893F82B3043F001037B
:100EB000DAB27B6883F82B20184B1B881A467B68B4
:100EC0001B8903F080039A4208D07B6893F82B308B
:100ED00043F00203DAB27B6883F82B200F4B1B88A8
:100EE0001A467B681B8903F020039A4208D07B686E
:100EF00093F82B3043F00403DAB27B6883F82B209D
:100F00007B6893F82B30002B03D17B68082283F891
:100F10002B2000BF0C37BD4680BC7047E014042076
:100F200080B582B000AF0023FB712A4BDB683B60C9
:100F30003B681B689B889AB23B681A813B689B7A26
:100F4000002B07D03B681B683A68D2891A833B683C
:100F500000229A72204B1B881A463B681B8903F0BB
:100F600004039A4202D03868FFF7ACFE1A4B1B8884
:100F70001A463B681B8903F008039A4202D038687E
:100F8000FFF70EFF144B1B881A463B681B8903F0C2
:100F9000B0039A4204D03868FFF778FF0123FB7151
:100FA0000D4B1B881A463B681B8903F480739A42D9
:100FB00004D03868FFF746FF0123FB71FB79002B53
:100FC00004D03B682C33184600F032FB00BF0837D2
:100FD000BD4680BD14000420E014042080B483B01A
:100FE00000AF0346FB7197F90730002B0BDB084974
:100FF00097F907305B09FA7902F01F02012000FA25
:1010000002F241F8232000BF0C37BD4680BC704778
:1010100000E100E080B500AF284B4CF61432DA60F6
:10102000264B02221A61264B00221A60234B4CF6F3
:101030001432DA60214A214B1B6943F00203136129
:1010400000BF1E4B1B6903F40073002BF9D01D4A2F
:101050001C4B1B6823F0030313601A4B00221A6019
:10106000184B194A5A60174B46F61A02DA60154BAC
:101070001F225A61154B00221A60144B00229A60FD
:10108000124B00225A640D4B4CF61432DA600B4AB4
:101090000A4B1B6923F0040313610620FFF79EFF30
:1010A0000720FFF79BFF2920FFF798FF2B20FFF772
:1010B00095FF01F049FD0023184680BD00C10440A2
:1010C000E414042000C304400404100000C00440E1
:1010D00080B487B000AF0346FB7100237B61EFF360
:1010E0001083BB60BB687B6172B60E4B4CF614324A
:1010F000DA600C4B1B6923F001033B61FB79023B77
:101100003A6913433B61074A3B6913617B69FB60A2
:10111000FB6883F31088002318461C37BD4680BC4B
:10112000704700BF00C1044080B584B000AF0346E3
:101130003960FB7101F008FD134B1B68BB60FB7944
:10114000002B07D0012B0CD1104B5B6803F03F0341
:10115000FB6008E00D4B5B681B0A03F03F03FB607C
:1011600001E004230BE0FB68002B01D10123FB60AD
:10117000BA68FB68B2FBF3F23B681A6000231846BA
:101180001037BD4680BD00BFF014042000C30440EA
:1011900080B588B000AF03460A46FB711346BB809A
:1011A00000237B61FB79012B04D0022B0ED0002B96
:1011B00005D012E03F23FB61BB88BB610FE04FF419
:1011C0007C53FB61BB881B02BB6108E04FF47F03CB
:1011D000FB61BB881B04BB6101E004231CE0EFF34F
:1011E0001083BB60BB687B6172B60D4B5B683B6173
:1011F000FB69DB433A6913403B613A69BB691343BE
:101200003B61074A3B6953607B69FB60FB6883F382
:10121000108801F099FC002318462037BD4680BD98
:1012200000C3044080B48BB000AF03460A46FB7194
:101230001346BB7100237B6200233B620023FB61EA
:101240000023BB61FB79042B2DD801A252F823F0B7
:10125000651200007512000085120000A712000040
:101260009512000008237B622F4B3B624FF4006312
:10127000FB611AE004237B622B4B3B624FF48063DB
:10128000FB6112E002237B62274B3B624FF4007349
:10129000FB610AE04FF400737B62244B3B624FF426
:1012A0000073FB6101E0092338E0EFF310833B6139
:1012B0003B69BB6172B61E4B4CF61432DA60BB79E7
:1012C000002B11D03B6A1A687B6A1A433B6A1A608A
:1012D000FB79042B0FD1174B1B6803F001037B61D3
:1012E0007B69012BF7D106E03B6A1A687B6ADB4316
:1012F0001A403B6A1A60BB69FB60FB6883F3108885
:10130000FB69002B09D0BB79002B06D000BF084B2E
:101310001A69FB691340002BF9D0002318462C37BB
:10132000BD4680BC704700BF10C104400CC30440E0
:1013300000C1044018C3044080B582B000AF144B14
:101340009B6903F006037B60124B1B68002B18D0CF
:101350007B6803F00403002B07D00E4B1B680E4A7A
:1013600010680022082198470BE07B6803F0020315
:10137000002B06D0074B1B68074A10680022072184
:101380009847034A7B68936100BF0837BD4680BD1C
:1013900000C30440E4140420E814042080B582B0A3
:1013A00000AF244B9B6903F4CC433B6000237B607C
:1013B000214B1B68002B33D03B68002B30D03B689F
:1013C00003F48043002B04D07B6843F004037B606C
:1013D0001CE03B6803F40053002B04D07B6843F00F
:1013E00003037B6012E03B6803F40073002B04D01E
:1013F0007B6843F005037B6008E03B6803F480638F
:10140000002B03D07B6843F006037B607B68002BD6
:1014100006D0094B1B68094A106800227968984772
:101420003B68002B02D0034A3B68936100BF08373A
:10143000BD4680BD00C30440E4140420E814042029
:1014400080B582B000AF0E4B5B687B607B6803F0B9
:101450000103002B10D00B4B1B68002B06D0094B4F
:101460001B68094A1068002279689847044A044BAF
:101470005B6843F00103536000BF0837BD4680BD81
:1014800000C00440E4140420E814042080B582B0B5
:1014900000AF154B5B687B60144B1B68002B17D0AB
:1014A0007B6803F00403002B06D0104B1B68104A26
:1014B00010680022002198477B6803F00203002B8C
:1014C00006D00A4B1B680A4A10680022012198477F
:1014D0000549054B5A687B6803F0060313434B60CC
:1014E00000BF0837BD4680BD00C00440E41404209E
:1014F000E814042080B48FB000AF03463960FB715C
:101500001346BB7100237B6300233B630023FB6214
:101510003B68002B05D17B6B43F002037B63404BA0
:101520003B60FB79032B1CD801A252F823F000BFCB
:1015300045150000411500004F1500005915000029
:10154000002367E03B6B43F006033B630BE07B6BE0
:1015500043F004037B6306E07B6B43F006037B638D
:1015600001E0062356E0EFF31083BB61BB69FB6229
:1015700072B62C4B44F65902DA602A49294B9B6813
:1015800023F00302FB7913438B602749264B1A692A
:101590007B6B1A433B6BDB4313400B61EFF311830F
:1015A000FB61FB69BB62214B1B89FB84BB795B013F
:1015B0003B623B6A83F311880DE0BFF34F8F30BF6E
:1015C000FB6A3B613B6983F31088EFF310837B6117
:1015D0007B69FB6272B63B681B68002BEDD03B68F1
:1015E0001B685A1E3B681A60BB6ABB60BB6883F30A
:1015F00011880E4AFB8C13810B4A0B4B1B6923F09D
:1016000002031361BFF34F8FFB6AFB60FB6883F338
:101610001088002318463C37BD4680BC704700BF89
:10162000EC14042000C0044000ED00E0002C004059
:1016300080B487B000AF786000237B617B68002BAB
:1016400014D1104B7B60EFF31083FB60FB687B6170
:1016500072B60D4A0C4B1B6923F002031361BFF3F2
:101660004F8F7B693B613B6983F310887B681B6804
:101670005A1C7B681A60002318461C37BD4680BC84
:10168000704700BFEC14042000ED00E080B586B088
:1016900000AF00237B6100233B619B4B9B68FB6099
:1016A000FB681B681B889BB21A464FF60403134065
:1016B0003B61FB681B689B889BB203F07E037B81C8
:1016C0007B89002B56D03B69002B53D03B6903F03C
:1016D0001003002B08D07B8903F00403002B03D0F8
:1016E0007B6943F002037B613B6903F00403002B39
:1016F00008D07B8903F00203002B03D07B6943F001
:1017000001037B613B6903F48053002B08D07B8984
:1017100003F00803002B03D07B6943F004037B61D3
:101720003B6903F40043002B08D07B8903F040039E
:10173000002B03D07B6943F020037B613B6903F4FA
:101740008043002B08D07B8903F02003002B03D0BB
:101750007B6943F010037B613B6903F40053002B6A
:1017600008D07B8903F01003002B03D07B6943F082
:1017700008037B61FB681B681B8D9BB203F01F0392
:101780003B61FB681B689B8D9BB203F00F033B81A1
:101790003B89002B3AD03B69002B37D03B6903F0E3
:1017A0000803002B08D03B8903F00803002B03D06B
:1017B0007B6943F400737B613B6903F00403002BF6
:1017C00008D03B8903F00403002B03D07B6943F46A
:1017D00080737B613B6903F00203002B08D03B89D7
:1017E00003F00203002B03D07B6943F080037B618D
:1017F0003B6903F00103002B08D03B8903F0010390
:10180000002B03D07B6943F040037B61FB681B68BE
:10181000B3F850309BB21A4641F6FE7313403B6159
:10182000FB681B68B3F848309AB240F21D3313408E
:10183000FB80FB88002B10D03B69002B0DD03B694F
:1018400003F40073002B08D0FB8803F40073002B13
:1018500003D07B6943F400637B61FB681B68B3F8CA
:1018600050309BB21A464FF21C4313403B61FB8839
:10187000002B3AD03B69002B37D03B6903F48043FF
:10188000002B08D0FB8803F01003002B03D07B69EA
:1018900043F480237B613B6903F40053002B08D0A1
:1018A000FB8803F00803002B03D07B6943F400336B
:1018B0007B613B6903F48053002B08D0FB8803F065
:1018C0000403002B03D07B6943F480337B613B69C5
:1018D00003F48063002B08D0FB8803F00103002B86
:1018E00003D07B6943F400437B61FB685B68002B9A
:1018F0000CD07B69002B09D0FB685B68FA689068A4
:1019000000227969984701E034000420FB681B68D5
:10191000FA681268928891B27A890A4392B29A80E0
:10192000FB681B68FA681268928D91B23A890A4383
:1019300092B29A85FB681B68FA681268B2F8482070
:1019400091B2FA880A4392B2A3F8482000BF183730
:10195000BD4680BD80B586B000AF00237B6100230B
:101960003B61A24B5B69FB60FB681B681B889BB2F9
:101970001A464FF6040313403B61FB681B689B88C3
:101980009BB203F07E037B817B89002B56D03B69A1
:10199000002B53D03B6903F01003002B08D07B8948
:1019A00003F00403002B03D07B6943F002037B6147
:1019B0003B6903F00403002B08D07B8903F002038A
:1019C000002B03D07B6943F001037B613B6903F487
:1019D0008053002B08D07B8903F00803002B03D031
:1019E0007B6943F004037B613B6903F40043002BF4
:1019F00008D07B8903F04003002B03D07B6943F0C0
:101A000020037B613B6903F48043002B08D07B8972
:101A100003F02003002B03D07B6943F010037B61AC
:101A20003B6903F40053002B08D07B8903F01003BB
:101A3000002B03D07B6943F008037B61FB681B68C4
:101A40001B8D9BB203F01F033B61FB681B689B8DE2
:101A50009BB203F01F033B813B89002B48D03B69BD
:101A6000002B45D03B6903F01003002B08D03B89C5
:101A700003F01003002B03D07B6943F480637B6188
:101A80003B6903F00803002B08D03B8903F00803EF
:101A9000002B03D07B6943F400737B613B6903F047
:101AA0000403002B08D03B8903F00403002B03D070
:101AB0007B6943F480737B613B6903F00203002B75
:101AC00008D03B8903F00203002B03D07B6943F06D
:101AD00080037B613B6903F00103002B08D03B8945
:101AE00003F00103002B03D07B6943F040037B61CB
:101AF000FB681B68B3F850309BB21A4641F6FE7380
:101B000013403B61FB681B68B3F848309AB240F25F
:101B10001D331340FB80FB88002B10D03B69002B4A
:101B20000DD03B6903F40073002B08D0FB8803F44D
:101B30000073002B03D07B6943F400637B61FB6877
:101B40001B68B3F84C309BB21A464FF21C4313404B
:101B50003B61FB88002B3AD03B69002B37D03B69B7
:101B600003F48043002B08D0FB8803F01003002B04
:101B700003D07B6943F480237B613B6903F400530A
:101B8000002B08D0FB8803F00803002B03D07B69EF
:101B900043F400337B613B6903F48053002B08D08E
:101BA000FB8803F00403002B03D07B6943F48033EC
:101BB0007B613B6903F48063002B08D0FB8803F052
:101BC0000103002B03D07B6943F400437B61FB6876
:101BD0005B68002B0CD07B69002B09D0FB685B682D
:101BE000FA68906800227969984701E0340004207F
:101BF000FB681B68FA681268928891B27A890A4376
:101C000092B29A80FB681B68FA681268928D91B252
:101C10003A890A4392B29A85FB681B68FA6812688F
:101C2000B2F8482091B2FA880A4392B2A3F8482049
:101C300000BF1837BD4680BD80B483B000AF0346F7
:101C4000FB7197F90730002B0BDB084997F9073038
:101C50005B09FA7902F01F02012000FA02F241F852
:101C6000232000BF0C37BD4680BC704700E100E078
:101C700080B483B000AF0346FB7197F90730002BA7
:101C800010DB0B4997F907305B09FA7902F01F0264
:101C9000012000FA02F2203341F82320BFF34F8FD6
:101CA000BFF36F8F00BF0C37BD4680BC704700BFCD
:101CB00000E100E080B483B000AF0346FB7197F908
:101CC0000730002B0CDB094997F907305B09FA79DB
:101CD00002F01F02012000FA02F2603341F82320D3
:101CE00000BF0C37BD4680BC704700BF00E100E07C
:101CF00080B588B000AFF860B9607A60FB68BB61FE
:101D0000BB695B6ADB6A1B697B610023FB61BB68A3
:101D1000012B02D0022B05D009E0FB6943F480734C
:101D2000FB6109E0FB6943F48063FB6104E0FB694C
:101D300043F48053FB6100BF7B691B68002B13D009
:101D40007B695B7B002B0FD0BB699A69FB691A43E7
:101D5000BB699A617B6900221A73BB695B6A0022C6
:101D60001946B86900F0A9FDBB699A69FB691A4375
:101D7000BB699A61BB695B6A00221946B86900F0C9
:101D80009CFD00BF2037BD4680BD80B588B000AF48
:101D9000F860B9607A60FB68BB61BB691B6ADB6A8B
:101DA0001B697B610023FB61BB68012B02D0022B06
:101DB00005D009E0FB6943F40073FB6109E0FB69AE
:101DC00043F40063FB6104E0FB6943F40053FB61EF
:101DD00000BF7B691B68002B13D07B695B7B002BEA
:101DE0000FD0BB699A69FB691A43BB699A617B6929
:101DF00000221A73BB691B6A01221946B86900F0F8
:101E00005CFDBB699A69FB691A43BB699A61BB694E
:101E10001B6A01221946B86900F04FFD00BF203748
:101E2000BD4680BD80B586B000AFF8607A603B608B
:101E30000B46FB720023FB823B6A00221A607B6820
:101E40003B613A68002178680EF04EFDFB681B018B
:101E50006E4A1A443B695A606C4AFB681B01134482
:101E600008331A683B699A603B69FA7A1A707B6892
:101E700030337B60FEF720FAFB7A012B3CD03B69C4
:101E80007A681A623B691B6A002283F834203B6936
:101E90001B6A3A69126A9A623B691B6A3A69126A5A
:101EA0001A633B691B6A3A69126ADA623B691B6A08
:101EB0000022DA633B691B6A554A9A633B691B6AD5
:101EC0003A69126A14321A613B691B6A3A69126AEA
:101ED0005A623B695B681B783A694E491846FEF7BF
:101EE00033FA0346002B04D0386900F09BF80F2327
:101EF00087E07B6840337B60FB7A002B39D03B69FD
:101F00007A685A623B695B6A002283F834203B6935
:101F10005B6A3A69526A9A623B695B6A3A69526AD9
:101F20001A633B695B6A3A69526ADA623B695B6AC7
:101F30000022DA633B695B6A374A9A633B695B6AF2
:101F40003A69526A14321A613B695B6A3A69526AA9
:101F50005A623B695B685B783A6930491846FEF71C
:101F6000F3F90346002B04D0386900F05BF80F2327
:101F700047E0F968386900F049FD3B699B681B8CB4
:101F80009BB203F00103002B14BF01230023DAB23C
:101F90003B6983F82D203B699B681B8C9BB29B118E
:101FA0009BB203F00303FB82FB8A1D4AD25C3B69B0
:101FB00083F82E203B6A3A691A60144AFB681B01B9
:101FC00013440C333A691A603B695B6893F9043037
:101FD0001846FFF76FFE3B695B6893F904301846BB
:101FE000FFF72AFE3B695B6893F902301846FFF75A
:101FF00023FE3B695B6893F903301846FFF71CFE2C
:10200000002318461837BD4680BD00BF4C00042091
:10201000F12000008B1D000055220000F11C000083
:10202000C884010080B582B000AF78607B689B688F
:1020300000229A807B685B6893F903301846FFF7AB
:1020400017FE7B685B6893F902301846FFF710FEB5
:102050007B685B6893F904301846FFF709FE7B68DC
:102060005B680022DA60002318460837BD4680BD51
:1020700080B584B000AFF860B9607A60FB70FB682F
:102080001B6A9B6ABA681A60FB681B6A9B6A7A685B
:102090005A60FB681B6A9B6A00229A60FB681B6A95
:1020A0009B6A01221A73FB681B6A9B6AFA785A734F
:1020B000FB681B6AFA68126A926A12699A62FB6884
:1020C0001B6A93F83430002B0DD1FB681B6A022287
:1020D00083F83420FB681B6A9B6BFA68126AD26A29
:1020E0001146F8689847002318461037BD4680BD52
:1020F00080B483B000AF786039603B685B7B002BB5
:1021000054D0324A7B685B681B78194601238B40A8
:10211000C2F814382D4A7B685B681B781946012386
:102120008B409362294A7B685B681B7819460123C0
:102130008B405362254A7B685B681B7819460123F4
:102140008B405363224B1A687B685B681B781B01CA
:1021500013443A68126811463A6852680A44013AD0
:102160001A601B4B1A687B685B681B781B01134461
:102170007A6892685A60164B1A687B685B681B78AD
:102180001B011A443B685B68013B1B0143F0404361
:1021900043F0010393607B689B687A689268928839
:1021A00092B242F0100292B29A8009E07B689B687A
:1021B0007A689268928892B242F0020292B29A8051
:1021C00000BF0C37BD4680BC704700BF0000014017
:1021D000B484010080B584B000AFF860B9607A6063
:1021E000FB70FB685B6A9B6ABA681A60FB685B6A93
:1021F0009B6A7A685A60FB685B6A9B6A00229A60F5
:10220000FB685B6A9B6A01221A73FB685B6A9B6AC4
:10221000FA785A73FB685B6AFA68526A926A1269C2
:102220009A62FB685B6A93F83430002B0DD1FB682F
:102230005B6A022283F83420FB685B6A9B6BFA6856
:10224000526AD26A1146F868984700231846103738
:10225000BD4680BD80B483B000AF786039603B6814
:102260005B7B002B54D0324A7B685B685B781946F5
:1022700001238B40C2F81C382D4A7B685B685B7871
:10228000194601238B409362294A7B685B685B781F
:10229000194601238B405362254A7B685B685B7853
:1022A000194601238B405363224B1A687B685B6895
:1022B0005B781B0113447A6892681A601D4B1A6898
:1022C0007B685B685B781B0113443A6812681146AF
:1022D0003A6852680A44013A5A60164B1A687B6899
:1022E0005B685B781B011A443B685B68013B1B0120
:1022F00043F0406343F0010393607B689B687A6816
:102300009268928892B242F0200292B29A8009E0DA
:102310007B689B687A689268928892B242F0010268
:1023200092B29A8000BF0C37BD4680BC704700BF98
:1023300000000140B484010080B485B000AFF860B3
:10234000B9607A60FB68BA68DA60FB687A681A611B
:10235000002318461437BD4680BC704780B485B052
:1023600000AF7860084611461A460346FB700B46DC
:10237000BB7013467B707B689B689B899BB223F084
:102380000F03FB817A78BB781343DAB2FB781343EF
:10239000DBB29AB2FB891343FB817B689B68FA89A5
:1023A0009A81002318461437BD4680BC704780B41C
:1023B00085B000AFF860084611461A4603467B8197
:1023C0000B467B721346FB80FB689B687A891A85F3
:1023D000FB689A687B7A9BB2DB0299B2FB880B435D
:1023E0009BB26FEA43436FEA53439BB29384FB680B
:1023F0009B683A7E92B29A85002318461437BD46F0
:1024000080BC704780B582B000AF054BDB687B6055
:10241000786800F007F800BF0837BD4680BD00BFF0
:102420004C00042080B58EB002AF78607B689B685A
:102430001B899BB203F00E030C2B00F26C8101A2EE
:1024400052F823F0392500001727000079240000F6
:10245000172700009524000017270000A52400007E
:102460001727000017270000172700001727000074
:102470001727000081240000786800F0E1F94DE1A1
:102480007B689B689B8E9BB2DBB21946786800F034
:1024900071F943E17B6893F82E301946786800F0B3
:1024A00069F93BE10023FB627B689B689B8ABB83E5
:1024B000BB8B03F010039BB2002B05D07B689B689D
:1024C0001B888023FB6209E0BB8B03F008039BB2EF
:1024D000002B03D0FB6A43F01003FB62BB8B03F0BD
:1024E00004039BB2002B03D0FB6A43F02003FB6282
:1024F000BB8B03F002039BB2002B03D0FB6A43F0BB
:102500004003FB62FB6A002B00F007817B681B7DA8
:1025100083F00103DBB2002B00F0FF807B689A6937
:10252000FB6A1A437B689A617B685B6A04221946DE
:10253000786800F0C2F9F0E00023BB627B689B681A
:10254000B3F844309BB203F00F037B837B689B6836
:10255000B3F840309BB203F001033B837B8B002B2D
:1025600000F0C9803B8B002B00F0C58007F10C0305
:1025700019460020FEF7D8FD0346002B01D00023AA
:10258000FB607B689B68B3F848309BB21B037B61A0
:102590007B689B68B3F844309BB21B099BB21A4618
:1025A0007B6913437B617B8B03F00103002B6FD0AE
:1025B0007B689B689B8C9BB203F40043B3F5004F90
:1025C0004DD1002387F827304FF400633B6101238E
:1025D000FB837B693F2B06D87B695B02DA083B698A
:1025E000D31A3B6228E07B697F2B09D87B691B02E9
:1025F000DA083B69D31A3B62012387F827301BE0D6
:102600007B69FF2B09D87B69DB01DA083B69D31AA8
:102610003B62022387F827300EE07B691B0AFB83AD
:102620007B699A01FB8BDB00B2FBF3F23B69D31AA7
:102630003B62032387F827303B6A9AB2F98B97F8FD
:1026400027300093134601227868FFF7B0FEFB683D
:10265000DA007B69B2FBF3F27B689A6206E0FB6802
:10266000DA007B69B2FBF3F27B689A627B68DB6815
:10267000002B3DD07B6893F82C30002B38D07B6842
:10268000DB687A6810697A68926A032198472FE0BC
:102690007B8B03F00203002B03D0BB6A43F400736F
:1026A000BB627B8B03F00403002B03D0BB6A43F4B3
:1026B0008073BB627B8B03F00803002B03D0BB6AE3
:1026C00043F48063BB627B68DB68002B0DD07B68C2
:1026D0005B6A93F83430022B07D17B68DB687A6839
:1026E0001069BA6A0521984702E07B68BA6ADA6124
:1026F0007B689B681B887B689B687A689268B2F8E5
:10270000402092B222F0070292B2A3F840207B68E8
:1027100000221A7502E000BF00E000BF00BF3037A2
:10272000BD4680BD80B582B000AF074BDB687B60E3
:102730007B681B6A01221946786800F0BEF800BF6A
:102740000837BD4680BD00BF4C00042080B582B074
:1027500000AF074BDB687B607B685B6A0022194631
:10276000786800F0AAF800BF0837BD4680BD00BFFA
:102770004C00042080B586B000AF78600B46FB703B
:102780007B685B6ADB6A7B617B691B683B613B69D9
:10279000002B05D07B691B7B002B01D0012300E0BF
:1027A0000023FB73FB7B03F00103FB73FB7B002B1C
:1027B00028D00EE07B699B683A6913447A68926876
:1027C000128892B2D2B21A707B699B685A1C7B69DC
:1027D0009A60FB785A1EFA70002B05D07B699A68C4
:1027E0007B695B689A42E5D37B699A687B695B6821
:1027F0009A4221D17B685B6A00221946786800F012
:102800005CF819E07B68DB68002B06D07B68DB682E
:102810007A6810690022022198477B691B68002BA7
:102820000AD17B691B7B83F00103DBB2002B03D051
:102830007B689B681B8800BF00BF1837BD4680BD02
:1028400080B584B000AF78607B681B6ADB6A1B6868
:10285000002B2ED07B681B6ADB6A1B7B002B28D0E9
:102860007B681B6ADB6A1B68FB607B689B687A6815
:10287000126AD26A9268F9680A441278D2B292B2A5
:102880001A807B681B6ADB6A9A6801329A607B68EF
:102890001B6ADB6A9A687B681B6ADB6A5B689A4220
:1028A00007D37B681B6A01221946786800F005F897
:1028B00000BF00BF1037BD4680BD80B586B000AFF9
:1028C000F860B9601346FB71BB68DB6A00221A73BB
:1028D000BB68DB6A1A69BB68DA62FB79012B0AD133
:1028E000FB689B68FA689268928892B222F01202A2
:1028F00092B29A801BE0FB689B68FA6892689288A3
:1029000092B222F0200292B29A80FB6893F82D30A6
:1029100083F00103DBB2002B09D0FB689B68FA68E7
:102920009268928892B222F0010292B29A80FB6879
:10293000DB68002B38D0BB6893F83430022B33D1DE
:10294000FB689B697B61FB6800229A61BB681B6B1B
:102950001B683B61BB681B6B00221A60BB681B6B6A
:102960001A69BB681A63BB681B6B1B68002B03D119
:10297000BB68002283F834207B69002B07D0FB68FA
:10298000DB68FA6810697A690421984706E0FB68F9
:10299000DB68FA681069F9793A699847BB683C3393
:1029A0001846FEF745FE20E0FB79012B0ED100BF53
:1029B000FB689B689B8A9BB203F04003402BF7D1D6
:1029C000FB689B681B8F9BB2002BF1D1BB681B6B14
:1029D0001B691B68002B03D1BB68002283F83420DD
:1029E000BB683C331846FEF723FEBB68DB6A1B7BE3
:1029F000002B06D0BB689B6BBA68D26A1146F86898
:102A0000984700BF1837BD4680BD000080B485B030
:102A100000AF786039603A681346DB009B1A5B00B0
:102A2000154A1344FB607B689B68FA6812889A8198
:102A30007B689B68FA6852881A857B689B68FA688D
:102A400092889A847B689B68FA68D2889A857B68AA
:102A50009B68FA6812891A847B689B68FA685289B5
:102A60009A877B689B68FA6892899A8000BF1437BE
:102A7000BD4680BC704700BFB884010080B586B0F9
:102A800000AF78600F4A07F10C0307CA03C31A703E
:102A90000D4A07F108031268114619800233120C1F
:102AA0001A7007F10C0318460DF078FF78680DF0E6
:102AB00075FF07F1080318460DF070FF00BF1837C7
:102AC000BD4680BDD8840100E484010080B584B097
:102AD00000AF78600A4A07F10C03126811461980AA
:102AE0000233120C1A7078680DF058FF07F10C03CE
:102AF00018460DF053FF00BF1037BD4680BD00BF24
:102B0000E484010080B582B000AF0A4B7B600A4BC1
:102B10003B6007E03B681A1D3A607A68111D7960D6
:102B200012681A603B68054A9342F3D300F076F8C6
:102B3000FDF76CFBB0B9010000000420900B0420ED
:102B400080B400AFFEE7000080B487B000AF2E4B2A
:102B50001B6803F00303032B50D801A252F823F0A3
:102B6000712B0000792B0000812B0000E92B000065
:102B7000264B274A1A603CE0244B254A1A6038E06D
:102B8000214B1B6803F40063002B02D0204B7B61B8
:102B900001E01F4B7B611C4BDB6803F01F033B61B3
:102BA000194BDB68DB0A03F00F03FB60164BDB6895
:102BB0001B0C03F00103BB60134BDB681B0A03F023
:102BC00001037B607A69BB6802FA03F33A6902FB8E
:102BD00003F2FB68B2FBF3F27B6822FA03F37B613A
:102BE0000A4A7B69136004E00A4B1B68074A1360BA
:102BF00000BF064B1B68084A136000E000BF1C378B
:102C0000BD4680BC704700BF00C30440F0140420E0
:102C100080BA8C01F4140420F814042080B584B028
:102C200000AF0121062000F01FF8EFF310837B6056
:102C30007B68FB6072B60A4B0A4A9A60084B4FF4F5
:102C4000E0225A62BFF36F8FBFF34F8FFB68BB6008
:102C5000BB6883F3108800BF1037BD4680BD00BF3E
:102C600000ED00E00000000080B483B000AF7860A9
:102C70000B46FB700E4B44F65902DA60FB78002BD2
:102C800007D00B490A4B5A697B685B0813434B61B9
:102C900007E00749064B5A697B685B08DB43134032
:102CA0004B61002318460C37BD4680BC704700BFFF
:102CB00000C0044080B584B000AFF860B9607A60AD
:102CC000BB68002B06D0012B00D034E01C4B012246
:102CD0001A7030E01B4B1B785A1CD1B2194A117084
:102CE0001A46194B1978194B9954164B1B783F2BE0
:102CF00006DD144B00221A70154B01221A7012E0E7
:102D0000104B1B78013B114AD35C0D2B0BD10D4BA3
:102D10001B78013B0D4A0021D1540A4B00221A7046
:102D20000B4B01221A700B4B186800230122064935
:102D3000FFF750FA00BF00BF1037BD4680BD00BF8F
:102D40005C00042008180420C4170420C8170420BD
:102D50000918042010150420B0B582B002AF504B02
:102D60000093B0234F4A02210020FFF75BF803468F
:102D70001A464D4B1A704C4B1B78002B17D04B4A00
:102D80004B4B15461C460FCC28606960AA60EB606F
:102D900007CC28616961AA612388A278AB831346B6
:102DA000AB774248FFF792FE3F4B1B7874E03C4BF9
:102DB0001868032300220021FFF7D0FA03461A46C1
:102DC000394B1A70384B1B78002B13D0374A394BCC
:102DD00015461C460FCC28606960AA60EB6003CCE6
:102DE0002861696123782B763048FFF76FFE2E4B00
:102DF0001B7851E02A4B1868022300931F230222FC
:102E00000721FFF7D4FA03461A46274B1A70264BC0
:102E10001B78002B14D0254A274B15461C460FCC97
:102E200028606960AA60EB6007CC28616961AA61CB
:102E30002388AB831D48FFF749FE1B4B1B782BE013
:102E4000174B1B6800221D491846FFF775FA034609
:102E50001A46154B1A70144B1B78002B14D0134ACA
:102E6000174B15461C460FCC28606960AA60EB60C2
:102E700007CC28616961AA612388AB830B48FFF7FF
:102E800025FE094B1B7807E0054B1868002301223B
:102E90000C49FFF79FF903461846BD46B0BD00BF79
:102EA0001015042014150420FC1404206C38042090
:102EB000FC8401001C85010038850100B52C000050
:102EC00058850100C417042080B582B000AF0023EC
:102ED000FB7110211948FDF7EBFA03461A46184B0F
:102EE0001A700023FB71FB79032B20DCFB79154A58
:102EF000D05CFB79144A32F8133001221946FDF7F1
:102F000007FB03461A460E4B1A70FB790D4AD05C3C
:102F1000FB790D4A32F813301946FDF733FB0346AF
:102F20001A46074B1A70FB790133FB71DBE7044B40
:102F30001B7818460837BD4680BD00BF0015042029
:102F4000FD140420E8840100EC84010080B586B003
:102F500000AF78600023FB744D4B1B883B814D4BC9
:102F60007B61FF2279684C480EF082F94A4B0022BF
:102F700083F8FF20484BFB60F8680EF0FBF803462F
:102F80007B81464B1B78DBB2002B0CBF0123002357
:102F9000DBB2002B07D07B69013B7B617B69002B97
:102FA00000D0EEE700BF3D4B00221A703C4B186882
:102FB0007A890023F968FFF75BF80346002B14BFFA
:102FC00001230023DBB2002B01D000235CE00123AE
:102FD000FB74304B7B61314B1B78DBB2002B0CBF99
:102FE00001230023DBB2002B07D07B69013B7B610F
:102FF0007B69002B00D0EEE700BF284B00221A703F
:10300000274B186807F1080100230122FFF730F869
:103010000346002B14BF01230023DBB2002B01D099
:10302000002331E00123FB741A4B7B611B4B1B789F
:10303000DBB2002B0CBF01230023DBB2002B07D037
:103040007B69013B7B617B69002B00D0EEE700BF11
:10305000124B00221A70124B186807F10803591C12
:1030600000230122FFF704F80346002B14BF0123BD
:103070000023DBB2002B01D0002305E00123FB7409
:10308000022003F035FBFB7C18461837BD4680BD97
:103090007885010080969800C41604205C00042006
:1030A0001015042080B586B000AF78600023FB7453
:1030B000204B7B61FF2279681F480EF0D9F81E4B28
:1030C000002283F8FF201C4BFB60F8680EF052F8DA
:1030D00003467B81194B1B78DBB2002B0CBF01230D
:1030E0000023DBB2002B07D07B69013B7B617B694E
:1030F000002B00D0EEE700BF104B00221A70104BDF
:1031000018687A890023F968FEF7B2FF0346002B9E
:1031100014BF01230023DBB2002B01D0002305E004
:103120000123FB74022003F0E3FAFB7C18461837F6
:10313000BD4680BD80969800C41604205C00042023
:103140001015042080B582B000AF0023FB71FB791D
:10315000032B3ADCFB79264AD25CFB790133DBB2E4
:103160001946104603F018FA0346BB71BB79002BD1
:1031700012D1204B1B78042B06D11F48FFF7E6FE27
:103180001E48FFF7E3FEFEE7FB791D4A0121D154FB
:10319000184B01221A7014E0BB790E2B11D1154B7C
:1031A0001B78012B06D11448FFF7D0FE1348FFF718
:1031B000CDFEFEE7FB79124A0121D1540D4B0422CA
:1031C0001A70FB790133FB71C1E703F07DFA034606
:1031D000002B06D00B48FFF7B9FE0B4B01221A70EB
:1031E00003E00A48FFF7B2FEFEE70837BD4680BDA0
:1031F000F4840100161804207C850100BC850100C0
:1032000010180420F4850100091804202486010008
:1032100080B500AF234B1B78042B40D801A252F895
:1032200023F000BF393200009F3200003F3200001F
:103230009F32000045320000FFF784FF30E002F0CB
:1032400091FF2DE0184B1B78002B15D003F070F880
:103250004021164803F077FA154B00221A70154BDF
:1032600000221A70144B1868002301221349FEF73C
:10327000B1FF0D4B00221A700E4B1B78DBB2002BF6
:1032800014BF01230023DBB2002B04D0094B002222
:103290001A7003F019F95A2003F02AFA00E000BF6F
:1032A00000BF80BD161804205D000420C81704204C
:1032B000081804200918042010150420C41704203D
:1032C00080B584B000AF7860396003F039FBA14B62
:1032D00000221A80FDF79EFE03461A469E4B1A7086
:1032E0009D4B1B78002B14BF01230023DBB2002B66
:1032F0001DD0994B1B78002B16D040F28513974AAE
:10330000974998480DF0B4FD9648FFF7B7FB924BEC
:103310001B78954A954993480DF0AAFD9148FFF70F
:10332000D5FB00200CF046FC8B4B1B780DE10320F5
:10333000FDF7CEFE03461A46874B1A70864B1B7864
:10334000002B14BF01230023DBB2002B1CD0824BC7
:103350001B78002B16D04FF4C773804A80498148F0
:103360000DF086FD7F48FFF789FB7B4B1B78804A79
:103370007E497C480DF07CFD7A48FFF7A7FB0020D2
:103380000CF018FC0123E0E001210120FDF74AFFC9
:1033900003461A46704B1A706F4B1B78002B14BFF4
:1033A00001230023DBB2002B1DD06B4B1B78002BBD
:1033B00016D04FF4CB73694A69496A480DF058FD3D
:1033C0006848FFF75BFB644B1B786A4A67496548AE
:1033D0000DF04EFD6348FFF779FB00200CF0EAFB8F
:1033E0005D4B1B78B1E001210120FDF7D1FE0346C2
:1033F0001A46594B1A70584B1B78002B14BF0123E7
:103400000023DBB2002B1DD0534B1B78002B16D0B2
:103410004FF4CF73514A524952480DF029FD51489B
:10342000FFF72CFB4C4B1B78534A50494D480DF08D
:103430001FFD4C48FFF74AFB00200CF0BBFB464B3E
:103440001B7882E001210020FDF7A2FE03461A4608
:10345000414B1A70404B1B78002B14BF01230023F3
:10346000DBB2002B1DD03C4B1B78002B16D040F25A
:10347000A5133A4A3A493B480DF0FAFC3948FFF7A0
:10348000FDFA354B1B783C4A384936480DF0F0FCC4
:103490003448FFF71BFB00200CF08CFB2E4B1B78F5
:1034A00053E0FFF711FDFFF757FC3448FFF74EFDDF
:1034B000334B2E221A700023FB73FB7B092B0BDC92
:1034C0002F4B1846FFF7EEFD4FF47A7003F010F91A
:1034D000FB7B0133FB73F0E7294B1846FFF736FD02
:1034E0000A2003F005F9274B1B78DBB2002B05D02F
:1034F000254B1B78042B01D0012300E00023002B77
:1035000004D000F09BFF1F4B00221A701E4B1B784B
:10351000022B17D11D4B1B8801339AB21B4B1A800B
:103520001A4B1B881A461A4B1B881946642303FB47
:1035300001F3193B9A42D3DBFFF76AFE134B0022DB
:103540001A80CDE7FFF764FECAE718461037BD467C
:1035500080BD00BF082C0040FE1404206C860100D2
:10356000948601006C3804209C860100B48601001A
:10357000D4860100F8860100188701003887010011
:103580000C1804200918042016180420141804200C
:103590005E00042080B483B000AF7860044A7B688A
:1035A0001A607B6818460C37BD4680BC704700BF68
:1035B0000488010080B582B000AF78607868FFF7BA
:1035C000E9FF1421786803F0F3FA7B68184608379E
:1035D000BD4680BD80B582B000AF7860094A094B16
:1035E0009B8E9BB243F030039BB293867B684C2248
:1035F0009A74786800F054F8034618460837BD46B8
:1036000080BD00BF0000024080B582B000AF78608E
:103610000B46FB70094A094B9B8E9BB243F030036B
:103620009BB293867B68FA789A74786800F038F8D1
:10363000034618460837BD4680BD00BF0000024063
:1036400080B483B000AF7860002318460C37BD46C5
:1036500080BC704780B483B000AF78600023184608
:103660000C37BD4680BC704780B584B000AF786031
:103670007B685B691846FDF7A1F80346FB73FB7B8B
:10368000002B0CBF01230023DBB2002B01D0002351
:1036900002E0FB7B43F0806318461037BD4680BDD7
:1036A00080B584B000AF78607B6803F118017B6857
:1036B000143330220020FDF729F80346FB73FB7B0F
:1036C000002B03D0FB7B43F080631DE07B685B69CC
:1036D0001846FDF7C9F80346FB73FB7B002B03D0AC
:1036E000FB7B43F080630FE07B685B690849184609
:1036F000FDF7CAF80346FB73FB7B002B03D0FB7B73
:1037000043F0806300E0002318461037BD4680BDBB
:10371000A086010080B58CB000AFF8607B600B46DE
:10372000FB721346BB72FB685A69FB689B7C9BB2B9
:1037300019461046FDF7F6F80346FB77FB7F002B92
:1037400003D0FB7F43F080634AE0FB7A002B20D15B
:10375000BB7A3B7407F110033B620123BB847B6897
:10376000BB623B8FBB85012387F82E30012387F88E
:103770002F30FB685B6907F1180207F1200118463A
:10378000FDF72EF80346FB77FB7F002B25D10023A6
:1037900026E0FB7A012B20D1BB7A3B7407F11003A2
:1037A0003B620123BB847B68BB623B8FBB850023EC
:1037B00087F82E30012387F82F30FB685B6907F10B
:1037C000180207F120011846FDF70AF80346FB77B7
:1037D000FB7F002B01D1002302E0FB7F43F08063DD
:1037E00018463037BD4680BD90B589B002AF7860CD
:1037F0000B46FB700023BB810523FB827B681B68A3
:1038000078331B68FA7811467868984703463B611D
:103810003B69002B01D03B6921E07B681B687C334E
:103820001C6807F10C0201230093134602220021B9
:103830007868A04703463B61642002F059FFFB8A89
:10384000013BFB823B7B012B03D0FB8A002B00DD7D
:10385000E3E7FB8A002B01D1042300E03B69184613
:103860001C37BD4690BD90B589B002AF78600B465D
:10387000FB700523FB82FB1C3B617B681B681B689C
:10388000786898470346FB60FB68002B01D0FB6813
:1038900050E0322002F02CFF7B681B687C331C68F0
:1038A000012300933B69802201217868A0470346E9
:1038B000FB60FB68002B01D0FB683BE07B681B686A
:1038C0000C331B68786898474FF47A7002F010FF49
:1038D0007B681B6878331B68FA78114678689847CC
:1038E0003B6900221A707B681B687C331C680123CB
:1038F00000933B69022200217868A0470346FB60E1
:10390000642002F0F5FEFB8A013BFB823B691B78D9
:10391000002B03D1FB8A002B00DDE4E7FB8A002BA0
:1039200001D1042306E03B691B78032B01D10E2350
:1039300000E0FB6818461C37BD4690BD90B589B0C5
:1039400002AF786039600023BB810023FB827B6873
:103950001B687C331C6807F10C020223009313469A
:10396000042200217868A04703463B61322002F020
:10397000BFFE7B681B687C331C6807F10C020223C6
:1039800000931346042200217868A04703463B6158
:103990003B7B1B021AB27B7B1BB21343FB823B684F
:1039A000FA8A1A803B6918461C37BD4690BD90B50F
:1039B00089B002AF786039600023BB810023FB82AD
:1039C0007B681B687C331C6807F10C0202230093A0
:1039D0001346062200217868A04703463B61322047
:1039E00002F086FE7B681B687C331C6807F10C02C2
:1039F000022300931346062200217868A04703465D
:103A00003B613B7B1B021AB27B7B1BB21343FB82E5
:103A10003B68FA8A1A803B6918461C37BD4690BD40
:103A200090B587B002AF78600B467B8000233B8166
:103A30007B881B12DBB23B727B88DBB27B727B68BC
:103A40001B687C331C6807F10802022300931346AD
:103A5000072201217868A0470346FB604FF4FA7003
:103A600002F05CFEFB6818461437BD4690BD90B569
:103A700089B002AF786039600023BB810023FB82EC
:103A80007B681B687C331C6807F10C0202230093DF
:103A90001346532200217868A04703463B61322039
:103AA00002F026FE7B681B687C331C6807F10C0261
:103AB000022300931346532200217868A04703464F
:103AC0003B613B7B5BB2002B01DAFF23FB82B7F942
:103AD00016301B021AB23B7B1BB21343FB82B7F9B1
:103AE00016301B021AB27B7B1BB21343FB82FA8A8D
:103AF0003B681A803B6918461C37BD4690BD90B59F
:103B000087B002AF7860FF23FB727B681B687C3351
:103B10001C6807F10B0201230093134608220121C0
:103B20007868A0470346FB604FF4FA7002F0F6FD98
:103B3000FB6818461437BD4690BD90B587B002AFFC
:103B40007860FF23FB727B681B687C331C6807F17D
:103B50000B020123009313460A2201217868A04733
:103B60000346FB604FF4FA7002F0D8FDFB6818467C
:103B70001437BD4690BD90B587B002AF78600B4654
:103B8000FB707B681B687C331C68FA1C0123009364
:103B900013460C2201217868A0470346FB604FF4CE
:103BA000FA7002F0BBFDFB6818461437BD4690BDA5
:103BB00090B585B002AF786039607B681B687C3354
:103BC0001C68012300933B680E2200217868A047FF
:103BD000322002F08DFD7B681B687C331C6801235A
:103BE00000933B680E2200217868A04703461846E0
:103BF0000C37BD4690BD90B587B002AF78600B46DC
:103C00007B8000233B81B7F902301B12DBB23B7291
:103C10007B88DBB27B727B681B687C331C6807F196
:103C20000802022300931346102201217868A0475E
:103C30000346FB604FF4FA7002F070FDFB68184613
:103C40001437BD4690BD90B589B002AF7860396039
:103C50000023BB810023FB827B681B687C331C68CC
:103C600007F10C0202230093134612220021786808
:103C7000A04703463B61322002F03AFD7B681B6897
:103C80007C331C6807F10C020223009313461222B6
:103C900000217868A04703463B613B7B5BB2002B69
:103CA00001DAFF23FB82B7F916301B021AB23B7B05
:103CB0001BB21343FB82B7F916301B021AB27B7B8F
:103CC0001BB21343FB823B68FA8A1A803B69184691
:103CD0001C37BD4690BD90B587B002AF78603960A3
:103CE00007F1080300210A461A800A469A703B68C9
:103CF0001B0CDBB23B723B681B0ADBB27B723B687E
:103D0000DBB2BB727B681B687C331C6807F108025E
:103D1000032300931346192201217868A047034624
:103D2000FB604FF4FA7002F0F9FCFB681846143798
:103D3000BD4690BD90B589B002AF7860396007F19B
:103D40000C0300210A461A800A469A7000237B6100
:103D50007B681B687C331C6807F10C02032300930B
:103D600013461B2200217868A04703463B6132209E
:103D700002F0BEFC7B681B687C331C6807F10C02F8
:103D80000323009313461B2200217868A0470346B3
:103D90003B613B7B1A047B7B1B021343BA7B1343BF
:103DA0007B613B687A691A603B6918461C37BD46DF
:103DB00090BD90B587B002AF78600B46FB707B6812
:103DC0001B687C331C68FA1C0123009313461C22D9
:103DD00001217868A0470346FB604FF4FA7002F0B7
:103DE0009DFCFB6818461437BD4690BD90B585B064
:103DF00002AF786039607B681B687C331C680123E4
:103E000000933B681D2200217868A047322002F011
:103E10006FFC7B681B687C331C68012300933B6844
:103E20001D2200217868A047034618460C37BD467E
:103E300090BD90B587B002AF78600123FB727B68BC
:103E40001B687C331C6807F10B02012300931346A7
:103E50001E2201217868A0470346FB604FF4FA70E8
:103E600002F05CFCFB6818461437BD4690BD90B567
:103E700085B002AF786039607B681B687C331C6852
:103E8000902300933B681F2200217868A04764209C
:103E900002F02EFC7B681B687C331C689023009327
:103EA0003B681F2200217868A047034618460C375C
:103EB000BD4690BD90B585B002AF786039607B6833
:103EC0001B687C331C684FF47A7300933B6825228F
:103ED00000217868A047962002F00AFC7B681B68E6
:103EE0007C331C684FF47A7300933B6825220021D1
:103EF0007868A047034618460C37BD4690BD90B57C
:103F000085B002AF786039607B681B687C331C68C1
:103F1000012300933B68552200217868A047322096
:103F200002F0E6FB7B681B687C331C68012300936E
:103F30003B68552200217868A047034618460C3795
:103F4000BD4690BD90B587B002AF78600B46FB7060
:103F50001346BB7000233B81FB78002B02DDFB780E
:103F6000032B01DD0123FB70BB78092B02DDBB783D
:103F7000C82B01DD6423BB70FB783B72BB787B727E
:103F80007B681B687C331C6807F1080202230093DE
:103F90001346452201217868A0470346FB604FF491
:103FA000FA7002F0BBFBFB6818461437BD4690BDA3
:103FB00090B589B002AFF860B96011461A460B4659
:103FC000FB711346BB71BB790A334FF47A7202FB63
:103FD00003F3134A82FB03129210DB17D31A9BB22E
:103FE0005B00FB82FB681B687C331C68FB8A0093C8
:103FF000BB6850220021F868A047962002F078FBA9
:10400000FB681B687C331C68FB8A0093BB685022EA
:104010000021F868A047034618461C37BD4690BDEE
:1040200095204F0990B587B002AF78600B46FB70C2
:104030007B681B687C331C68FA1C012300931346C1
:10404000512201217868A0470346FB604FF4FA70C3
:1040500002F064FBFB6818461437BD4690BD90B56E
:1040600085B002AF786039607B681B687C331C6860
:10407000012300933B68522200217868A047322038
:1040800002F036FB7B681B687C331C6801230093BD
:104090003B68522200217868A047034618460C3737
:1040A000BD4690BD90B589B002AF7860396007F128
:1040B0000C0300210A461A800A469A7000237B618D
:1040C0007B681B687C331C6807F10C020323009398
:1040D0001346302200217868A04703463B61322016
:1040E00002F006FB7B681B687C331C6807F10C023E
:1040F000032300931346302200217868A04703462B
:104100003B613B7B1A067B7B1B041A43BB7B1B0278
:1041100013431B127B613B687A691A603B6918463E
:104120001C37BD4690BD90B587B002AF786039604E
:1041300000233B817B681B687C331C6807F1080205
:10414000022300931346202200217868A0470346EB
:10415000FB60322002F0CCFA7B681B687C331C6861
:1041600007F10802022300931346202200217868F9
:10417000A0470346FB603B7A1B021AB27B7A1BB254
:1041800013431BB29AB23B681A80FB681846143777
:10419000BD4690BD80B582B000AF7860054A7B68AF
:1041A0001A607B681846FFF7F5F97B6818460837F0
:1041B000BD4680BD7487010080B582B000AF7860D5
:1041C0007868FFF7E7FF4821786802F0F1FC7B6828
:1041D00018460837BD4680BD80B483B000AF786014
:1041E000044A7B681A607B6818460C37BD4680BC61
:1041F000704700BF4C9B010080B582B000AF786073
:104200007B681846FFF7E8FF034A7B681A607B6803
:1042100018460837BD4680BD0488010080B582B0CD
:1042200000AF78607B681846FFF7E6FF034A7B68BB
:104230001A607B6818460837BD4680BD7487010048
:1042400080B582B000AF78603748FEF77FFE374810
:10425000FEF77CFE3648FEF779FE3648FEF776FE1E
:104260003548FEF773FE3548FEF770FE3448FEF71A
:104270006DFE3448FEF76AFE3348FEF767FE3348AA
:10428000FEF764FE3248FEF761FE3248FEF75EFE3E
:104290003148FEF75BFE3148FEF758FE3048FEF726
:1042A00055FE3048FEF752FE2F48FEF74FFE2C48D1
:1042B000FEF74CFE2D48FEF749FE2D48FEF746FE60
:1042C0002C48FEF743FE2C48FEF740FE2B48FEF735
:1042D0003DFE2B48FEF73AFE2A48FEF737FE2A48F5
:1042E000FEF734FE2948FEF731FE2948FEF72EFE80
:1042F0002848FEF72BFE2848FEF728FE2748FEF741
:1043000025FE2748FEF722FE2648FEF71FFE264818
:10431000FEF71CFE2548FEF719FE2548FEF716FE9F
:1043200000BF0837BD4680BDE88A0100188B010038
:10433000548B01008C8B0100D08B01000C8C010090
:10434000548C0100988C0100E88C0100208D010044
:10435000748D0100C08D0100008E01003C8E0100B3
:10436000808E0100C88E0100088F01004C8F010073
:104370008C8F0100CC8F0100049001004890010057
:1043800084900100CC900100189101005891010027
:10439000AC910100E89101002892010070920100A7
:1043A000B0920100F89201003C9301008493010057
:1043B000C093010080B485B000AF78607B68FB607B
:1043C0000023BB60FB681B78002B0ED0FB681B78BA
:1043D000202B02D10123BB6002E0BB68002B03D17C
:1043E000FB680133FB60EDE700BFFB68184614373C
:1043F000BD4680BC704780B485B000AF786039603E
:104400003B68FB607B68BB60FB681B78002B0DD0B2
:10441000FB681B78202B08D0BB685A1CBA60FA686E
:10442000511CF96012781A70EEE700BFBB680022D9
:104430001A7000BF1437BD4680BC704780B582B08B
:1044400000AF0A4800F032F878607B68002B03D098
:104450007B680748984702E00648FEF777FD00F0C2
:104460000BF800BF0837BD4680BD00BFC817042049
:10447000CA170420C493010080B500AF084B1B7815
:10448000002B0BD10748FEF761FD0748FEF75EFDE4
:10449000034B1B780133DAB2014B1A7000BF80BDA9
:1044A00012380420D8930100EC93010080B588B045
:1044B00000AF78600023FB617B68BB6100237B61F8
:1044C00000233B610023FB60BB691B78002B10D0ED
:1044D000BB691B78202B02D101233B6105E03B69BE
:1044E000002B02D1FB680133FB60BB690133BB6168
:1044F000EAE7104A7B6952F82330002B15D00E4AA8
:104500007B6952F82330FA68194678680CF060FE2F
:104510000346002B05D1074A7B6952F82330FB6123
:1045200003E07B6901337B61E3E7FB6918462037D1
:10453000BD4680BD5C010420F400042080B483B03B
:1045400000AF786000BF0C37BD4680BC70470000EC
:1045500080B58EB000AF78607B687B6307F10C0399
:1045600000221A605A609A60DA601A61786BFFF76D
:1045700021FF78637B6B1B78002B14BF0123002382
:10458000DBB2002B06D007F12003796B1846FFF74A
:1045900032FFEBE707F1200302222D4918460CF009
:1045A00017FE0346002B07D12A4B01221A702A4B13
:1045B0001A782A4B1A7038E007F1200302222849A2
:1045C00018460CF005FE0346002B07D1214B0222B2
:1045D0001A70214B5A78214B1A7026E007F12003FC
:1045E0000222204918460CF0F3FD0346002B07D1A8
:1045F000184B03221A70184B9A78184B1A7014E053
:1046000007F120030222184918460CF0E1FD034689
:10461000002B07D10F4B04221A700F4BDA780F4B87
:104620001A7002E01148FEF791FC0A4B1B781A46FB
:1046300007F10C000E4B0F490CF01AFC07F10C03AC
:104640001846FEF783FC00BF3837BD4680BD00BF6B
:104650001894010064180420F484010065180420F3
:104660001C9401002094010024940100289401006E
:10467000389401003C94010090B58BB002AF034622
:10468000FB7107F1140300221A605A6000237B8239
:1046900000233B820023FB60954B1B681B6878332B
:1046A0001B68934A1268F979104698470246914B65
:1046B0001A60904B1B68002B02D08E4B1B6813E1D5
:1046C000052002F015F80023FB77FB7F032B10DC9D
:1046D000FB7F894AD35CFA799A4206D1FB7F5A1C48
:1046E000864B874987480CF0C3FBFB7F0133FB7780
:1046F000EBE78448FEF72AFC052001F0F9FF07F1FB
:1047000014030821184602F01EF8794B1B681B6839
:1047100034331B68764A126807F114011046984733
:104720000246744B1A60734B1B68002B02D0714B0E
:104730001B68D9E04FF48071724802F004F83B7DA9
:104740001A46714B53F822206C4B70496D480CF09F
:104750008FFB6C48FEF7FAFB052001F0C9FF07F15B
:1047600014030821184601F0EEFF614B1B681B681B
:104770006C331B685E4A126807F1140110469847B3
:1047800002465C4B1A605B4B1B68002B02D0594BF6
:104790001B68A9E04FF480715A4801F0D4FF3B7DBB
:1047A0001A465B4B53F82220544B5A4955480CF09B
:1047B0005FFB5448FEF7CAFB052001F099FF4C4B04
:1047C0001B681B683C331B68494A126807F11201D9
:1047D000104698470246474B1A60464B1B68002B11
:1047E00002D0444B1B687FE04FF48071454801F0D4
:1047F000AAFFB7F912301A46404B474941480CF01E
:1048000037FB4048FEF7A2FB052001F071FF384B53
:104810001B681B6844331B68354A126807F10C019A
:10482000104698470246334B1A60324B1B68002BE8
:1048300002D0304B1B6857E04FF48071314801F0D3
:1048400082FFFB68184609F0B3FD4FF00002334BBE
:1048500009F04EFF03460C4619462246274B0093AB
:1048600013460A462E4927480CF002FB2548FEF75E
:104870006DFB052001F03CFF1D4B1B681B682433BA
:104880001B681B4A126807F1100110469847024640
:10489000184B1A60174B1B68002B02D0154B1B6876
:1048A00022E04FF48071174801F04DFF3B8A1A4611
:1048B000124B1C4913480CF0DBFA1248FEF746FB7A
:1048C000052001F015FF0A4B1B681B680C331B68A1
:1048D000074A1268104698470246064B1A600520A0
:1048E00001F006FF034B1B6818462437BD4690BDF8
:1048F0006000042018180420F4840100389401009A
:1049000050940100C4150420680004207094010034
:10491000D4000420809401009494010000005940C8
:10492000A4940100C094010080B584B000AF034698
:10493000FB710023FB60174B1B681B6878331B68F7
:10494000144A1268F979104698470246124B1A60C9
:10495000104B1B681B6870331B680E4A126807F106
:104960000C011046984702460B4B1A60094B1B6816
:104970001B680C331B68074A1268104698470246AA
:10498000054B1A600A2001F0B3FEFB681846103789
:10499000BD4680BD600004201818042080B584B096
:1049A00000AF78600023FB73FB7B032B17DCFB7BE2
:1049B0000D4AD35C002B0ED04FF480710B4801F0F0
:1049C000C2FEFB7B5A1C0A4B0A4908480CF050FAFD
:1049D0000648FEF7BBFAFB7B0133FB73E4E700BF3D
:1049E0001037BD4680BD00BF10180420C415042038
:1049F00038940100E094010080B584B000AF786085
:104A00000023FB73FB7B032B11DCFB7B0A4AD35C8B
:104A1000002B08D0FB7B094AD35C1846FFF72CFE1D
:104A20000A2001F065FEFB7B0133FB73EAE700BF60
:104A30001037BD4680BD00BF10180420F48401006B
:104A400090B587B002AF78600023FB81274B1B68CD
:104A50001B6878331B68254A1068254A127811466E
:104A600098470246234B1A604FF48071224801F0A8
:104A70006AFE1E4B1B681B6818331B681B4A1268B2
:104A800007F10E011046984702461A4B1A60194B5F
:104A90001B68002B03D01948FEF758FA18E0B7F945
:104AA0000E30184609F094FC4FF00002144B09F048
:104AB0001FFE03460C4619462246124B009313462E
:104AC0000A4611490C480CF0D3F90B48FEF73EFAA0
:104AD000064B1B681B680C331B68044A126810469F
:104AE000984700BF1437BD4690BD00BF600004204A
:104AF0006518042018180420C4150420009501002E
:104B000000005940389401000895010090B587B025
:104B100002AF78600023FB81274B1B681B6878334A
:104B20001B68254A1068254A1278114698470246A4
:104B3000234B1A604FF48071224801F004FE1E4B93
:104B40001B681B681C331B681B4A126807F10E01A7
:104B50001046984702461A4B1A60194B1B68002BE7
:104B600003D01948FEF7F2F918E0B7F90E301846ED
:104B700009F02EFC4FF00002144B09F0B9FD03467A
:104B80000C4619462246124B009313460A46114919
:104B90000C480CF06DF90B48FEF7D8F9064B1B6872
:104BA0001B680C331B68044A12681046984700BF04
:104BB0001437BD4690BD00BF600004206518042076
:104BC00018180420C4150420009501000000594065
:104BD000389401002495010080B58AB000AF786058
:104BE0007B687B62002387F822300023FB61786AB0
:104BF000FFF7E0FB78627B6A1B78002B14BF012370
:104C00000023DBB2002B06D007F10803796A1846AF
:104C1000FFF7F1FBEBE7002387F8233097F8233009
:104C200007F12802134413F8203C002B19D097F801
:104C3000233007F12802134413F8203C303B092BA2
:104C400001D8012300E00023002B04D097F8223084
:104C5000013387F8223097F82330013387F8233067
:104C6000DCE797F8222097F823309A4209D107F120
:104C700008030A22002118460DF090FB0346FB6151
:104C800002E02748FEF762F9FB69B3F5FA4F02D854
:104C9000FB69312B05D84FF4FA73FB612148FEF70D
:104CA00055F9214B1B681B6878331B681E4A106836
:104CB0001E4A12781146984702461D4B1A604FF45F
:104CC00080711C4801F03FFD174B1B681B682033A7
:104CD0001B68154A1268F96989B21046984702465E
:104CE000134B1A60124B1B68002B03D01248FEF7BF
:104CF0002DF908E0114BFA6911490E480CF0B8F88B
:104D00000C48FEF723F9084B1B681B680C331B6823
:104D1000054A12681046984700BF2837BD4680BD37
:104D20003C9501004C9501006000042065180420AA
:104D300018180420C41504200095010038940100BF
:104D40007495010080B582B000AF78601D4B1B6880
:104D50001B6878331B681B4A10681B4A127811467F
:104D600098470246194B1A604FF48071184801F0B9
:104D7000EAFC144B1B681B6828331B68114A126835
:104D8000104698470246114B1A60104B1B68002BC7
:104D900003D01048FEF7DAF807E00F4A0F490C4835
:104DA0000CF066F80A48FEF7D1F8064B1B681B6842
:104DB0000C331B68034A12681046984700BF083737
:104DC000BD4680BD6000042065180420181804202A
:104DD000C415042000950100389401009895010045
:104DE00080B582B000AF78601D4B1B681B687833BC
:104DF0001B681B4A10681B4A1278114698470246E6
:104E0000194B1A604FF48071184801F09CFC144B48
:104E10001B681B682C331B68114A126810469847A0
:104E20000246114B1A60104B1B68002B03D0104830
:104E3000FEF78CF807E00F4A0F490C480CF018F801
:104E40000A48FEF783F8064B1B681B680C331B6887
:104E5000034A12681046984700BF0837BD4680BD18
:104E6000600004206518042018180420C4150420CC
:104E70000095010038940100B095010080B58AB01A
:104E800000AF78607B687B62002387F822300023C4
:104E9000FB61786AFFF78EFA78627B6A1B78002BD9
:104EA00014BF01230023DBB2002B06D007F1080357
:104EB000796A1846FFF79FFAEBE7002387F823305B
:104EC00097F8233007F12802134413F8203C002BF5
:104ED00019D097F8233007F12802134413F8203C27
:104EE000303B092B01D8012300E00023002B04D024
:104EF00097F82230013387F8223097F823300133B6
:104F000087F82330DCE797F8222097F823309A427D
:104F10000AD107F108030A22002118460DF03EFAD3
:104F20000346DBB2FB6102E02648FEF70FF8FB699F
:104F30001A2B04D90123FB612348FEF707F8234B02
:104F40001B681B6878331B68204A1068204A127857
:104F50001146984702461F4B1A604FF480711E4855
:104F600001F0F1FB194B1B681B6830331B68174AB3
:104F70001268F969C9B2104698470246154B1A6083
:104F8000144B1B68002B03D01448FDF7DFFF0BE028
:104F9000134AFB6952F82320124B13490E480BF0B9
:104FA00067FF0D48FDF7D2FF084B1B681B680C33E9
:104FB0001B68064A12681046984700BF2837BD464E
:104FC00080BD00BF3C950100C89501006000042031
:104FD0006518042018180420C41504200095010049
:104FE0006800042038940100F095010080B58AB073
:104FF00000AF78607B687B62002387F82230002353
:10500000FB61786AFFF7D6F978627B6A1B78002B20
:1050100014BF01230023DBB2002B06D007F10803E5
:10502000796A1846FFF7E7F9EBE73B7A2D2B04D1B5
:1050300097F82230013387F82230002387F8233095
:1050400097F8233007F12802134413F8203C002B73
:1050500019D097F8233007F12802134413F8203CA5
:10506000303B092B01D8012300E00023002B04D0A2
:1050700097F82230013387F8223097F82330013334
:1050800087F82330DCE797F8222097F823309A42FC
:1050900008D107F108030A22002118460DF07EF915
:1050A000F86102E02748FDF751FFFB6940F69802DE
:1050B000934203DCFB69244A934204DA0023FB6138
:1050C0002248FDF743FF224B1B681B6878331B689F
:1050D0001F4A10681F4A12781146984702461E4B15
:1050E0001A604FF480711D4801F02DFB184B1B68AE
:1050F0001B6838331B68164A1268F96909B21046F2
:1051000098470246144B1A60134B1B68002B03D0C0
:105110001348FDF71BFF08E0124BFA6912490F48CC
:105120000BF0A6FE0D48FDF711FF094B1B681B682D
:105130000C331B68064A12681046984700BF283790
:10514000BD4680BD3C95010068F7FFFF1496010045
:10515000600004206518042018180420C4150420D9
:1051600000950100389401003C960100B0B58CB068
:1051700002AF78607B687B62002387F822300023CF
:1051800087F821304FF00003FB61786AFFF712F9CE
:1051900078627B6A1B78002B14BF01230023DBB2EB
:1051A000002B06D007F10803796A1846FFF723F9A8
:1051B000EBE7002387F8233097F8233007F1280224
:1051C000134413F8203C002B2CD097F8233007F120
:1051D0002802134413F8203C303B092B01D801234B
:1051E00000E00023002B04D097F82230013387F829
:1051F000223097F8233007F12802134413F8203C9B
:105200002E2B09D197F82230013387F8223097F8F6
:105210002130013387F8213097F82330013387F8A4
:105220002330C9E797F8222097F823309A420CD10F
:1052300007F10803002118460CF0CEFF0346FB617E
:1052400097F82130012B08DD03E03448FDF77EFE9E
:1052500061E03248FDF77AFE5DE04FF08E41F8697B
:1052600009F0E0FC0346002B07D14FF00001F8697C
:1052700009F0C4FC0346002B03D02948FDF766FE65
:1052800049E0284B1B681B6878331B68254A106867
:10529000254A1278114698470246244B1A604FF46B
:1052A0008071234801F04FFA1E4B1B681B68403386
:1052B0001C681C4B1D681F49F86909F001FB034677
:1052C000184609F0C3FC034619462846A047024683
:1052D000164B1A60154B1B68002B03D01648FDF7C0
:1052E00035FE0FE0F86909F085F80A460146134BD0
:1052F000009313460A4612490D480BF0B9FD0C48BD
:10530000FDF724FE074B1B681B680C331B68054A1E
:105310001268104698472837BD46B0BD3C9501003D
:105320005896010060000420651804201818042015
:10533000C41504200000C842009501003894010003
:105340006896010080B582B000AF78601D4B1B6885
:105350001B6878331B681B4A10681B4A1278114679
:1053600098470246194B1A604FF48071184801F0B3
:10537000EAF9144B1B681B6850331B68114A12680A
:10538000104698470246114B1A60104B1B68002BC1
:1053900003D01048FDF7DAFD07E00F4A0F490C482B
:1053A0000BF066FD0A48FDF7D1FD064B1B681B6834
:1053B0000C331B68034A12681046984700BF083731
:1053C000BD4680BD60000420651804201818042024
:1053D000C415042000950100389401009496010042
:1053E000F0B58BB006AF7860704B1B681B687833E4
:1053F0001B686E4A10686E4A12781146984702463A
:105400006C4B1A604FF480716B4801F09CF94FF4BB
:105410008062002169480BF067FA4FF44072002166
:1054200067480BF061FA614B1B681B6854331B68BB
:105430005E4A126861491046984702465D4B1A6001
:105440000023FB60FB68232B25DCFB689B005B4A89
:10545000D25C5C4B1A70FB689B000133574AD25CEC
:10546000584B5A70FB689B000233544AD25C554B30
:105470009A70FB689B000333504AD25C514BDA7040
:10548000FB689B004E4A13444E4A12681A60FB6840
:105490000133FB60D6E7474B1B68002B0CD04A4812
:1054A000FDF754FD414B1B681B680C331B683F4ADA
:1054B00012681046984776E0444A45493E480BF04A
:1054C000D7FC3D48FDF742FD0023BB60BB680B2BBA
:1054D00060DCBA6813465B001344394A52F8233043
:1054E00020223849184601F03EF9364801F064F9A7
:1054F00003460C46374AC2E90034BA6813465B00DB
:10550000134401332E4A52F8233020222D491846E5
:1055100001F029F92B4801F04FF903460C462D4ABA
:10552000C2E90234BA6813465B0013440233244ACA
:1055300052F8233020222349184601F014F921485B
:1055400001F03AF903460C46224AC2E904344FF40A
:105550008071194801F0F7F81E4BD3E900561D4B36
:1055600003F10804D4E900341A4AD2E904121748B6
:105570000490CDE90212CDE900342A46334616499B
:105580000D480BF075FC0C48FDF7E0FCBB680133DF
:10559000BB609BE7054B1B681B680C331B68034A09
:1055A0001268104698471437BD46F0BD60000420CD
:1055B0006518042018180420C4150420AC300420F9
:1055C000AC3404206C1804200095010038940100CC
:1055D000A8960100D0370420C89601002DE9F04FAD
:1055E000A3B014AFF862A04B1B681B6878331B682C
:1055F0009D4A10689D4A12781146984702469C4B76
:105600001A604FF480719B4801F09DF84FF480625E
:10561000002199480BF068F94FF440720021974837
:105620000BF062F9904B1B681B6858331B688E4A5D
:10563000126891491046984702468D4B1A60002324
:1056400087F8373097F83730B32B2CDC97F83730A2
:105650009B00894AD25C8A4B1A7097F837309B00BE
:105660000133854AD25C864B5A7097F837309B00DD
:105670000233814AD25C824B9A7097F837309B0094
:1056800003337D4AD25C7E4BDA7097F837309B004B
:105690007A4A13447A4A12681A6097F8373001330D
:1056A00087F83730CEE7724B1B68002B0CD075485B
:1056B000FDF74CFC6C4B1B681B680C331B686A4A7B
:1056C000126810469847CAE06F4A704969480BF063
:1056D000CFFB6848FDF73AFC00233B633B6B0B2B89
:1056E00000F3B4803A6B13461B019B1A634A52F8CD
:1056F000233020226249184601F035F8604801F055
:105700005BF803460C46624AC2E90034002387F87E
:10571000373097F83730052B17DC97F837309B0078
:105720005C4A991897F83730581C3A6B13461B019E
:105730009B1A03449B00514A13441B680B6097F863
:105740003730013387F83730E3E7012387F8373004
:1057500097F83730062B21DC97F83730991D3A6BD4
:1057600013461B019B1A0B44444A52F82330202253
:105770004349184600F0F7FF97F83750404801F0CA
:105780001BF803460C464249EA000A44C2E90034C9
:1057900097F83730013387F83730D9E74FF4807105
:1057A000344800F0D0FF3A4B18CBC7E90834394BE6
:1057B0001868384B5E68374B9B68BB62354BD968BD
:1057C000F961344B1C69BC61324B5D697D61304BC2
:1057D000D3E902AB2E4BD3E90489C7E902892C4BEC
:1057E000D3E90623C7E90023294BD3E90889284BCD
:1057F000D3E90A45264BD3E90C12234B1293CDE98A
:105800001012CDE90E45CDE90C89D7E90023CDE989
:105810000A23D7E90289CDE90889CDE906AB7D697C
:105820000595BC690494F9690391BB6A02930196DA
:105830000090D7E9082318490E480BF019FB0D48D2
:10584000FDF784FB3B6B01333B6347E7064B1B686B
:105850001B680C331B68044A1268104698473C3793
:10586000BD46BDE8F08F00BF60000420651804202D
:1058700018180420C4150420AC300420AC340420D3
:105880006C1804200095010038940100D89601009E
:10589000D0370420AC3704207497010080B582B063
:1058A00000AF7860214B1B681B6878331B681F4A68
:1058B00010681F4A12781146984702461D4B1A601D
:1058C0004FF480711C4800F03EFF40211B4800F05F
:1058D0003AFF164B1B681B685C331B68134A12683F
:1058E0001649104698470246124B1A60114B1B6826
:1058F000002B03D01248FDF729FB0AE00F4B1B7861
:105900001A46104B10490C480BF0B2FA0A48FDF742
:105910001DFB064B1B681B680C331B68034A12688F
:105920001046984700BF0837BD4680BD6000042080
:105930006518042018180420C41504206C180420CD
:105940000095010038940100B097010080B582B045
:1059500000AF7860294B1B681B6878331B68274AA7
:105960001068274A1278114698470246254B1A605C
:105970004021254800F0E7FE204B1B681B685C3384
:105980001B681E4A126820491046984702461D4B64
:105990001A601D4B1A781D4B1A704FF480711C4809
:1059A00000F0D1FE154B1B681B6860331B68134A5F
:1059B0001068184A1178184A127898470246114B15
:1059C0001A60104B1B68002B03D01448FDF7BEFA79
:1059D00007E0134A13490E480BF04AFA0C48FDF74A
:1059E000B5FA064B1B681B680C331B68034A126828
:1059F0001046984700BF0837BD4680BD60000420B0
:105A000065180420181804206C1804206818042055
:105A1000C4150420661804206718042000950100AE
:105A200038940100C09701002DE9B04388B004AF5D
:105A300078600023BB815C4B1B681B6878331B6854
:105A4000594A1068594A1278114698470246584BED
:105A50001A604FF48071574800F075FE524B1B6876
:105A60001B6864331C68504B1868534B1A78534BAF
:105A70001B785349A04702464D4B1A604C4B1B689C
:105A8000002B0CD04F48FDF761FA474B1B681B6891
:105A90000C331B68444A1268104698477AE04A481B
:105AA000FDF754FA454B1B780A334FF47A7202FB28
:105AB00003F3464A82FB03129210DB17D31A7B8151
:105AC00000233B810123FB813B891A467B899A4253
:105AD00057DA4FF48071374800F035FEFB89384AB9
:105AE000D35C1B021AB2FB8901333549CB5C1BB274
:105AF00013431BB2BB813B891A466E2303FB02F59D
:105B0000BB89184608F064FC03460C461A46234637
:105B10004FF000002E4908F00DFB03460C461846D6
