:1000000000400020313100006D3100006D310000F2
:100010006D3100006D3100006D3100000000000006
:100020000000000000000000000000006D31000032
:100030006D310000000000006D3100006D310000E6
:10004000B11C00006D3100006D3100006D31000009
:100050006D3100006D310000DD17000091170000C8
:10006000E919000069070000790700006D31000000
:100070006D3100006D310000E92900006D31000094
:100080006D3100006D310000811100002904000075
:100090006D3100006D3100006D3100006D310000E8
:1000A0006D3100006D3100006D3100006D310000D8
:1000B000092D0000312D00006D3100006D31000070
:1000C0006D3100006D3100006D3100006D310000B8
:1000D0006D3100006D3100006D3100006D310000A8
:1000E0006D310000ED1600006D3100008916000032
:1000F0006D3100006D3100006D3100000000000026
:1001000000000000000000000000000000000000EF
:1001100000000000000000000000000000000000DF
:100120006D3100006D3100006D3100006D31000057
:100130006D3100006D3100006D3100006D31000047
:10018000FFFFFFFFFFFFFFFFFFFFFFFFFFFFFFFF7F
:1001900003329CA77F000000FFFFFFFFFFFFFFFF70
:1001A00010B5054C237833B9044B13B10448AFF3B1
:1001B00000800123237010BD001004200000000007
:1001C00004D2010008B5034B1BB103490348AFF348
:1001D000008008BD000000000410042004D20100CB
:1001E000162031A1ABBE30484168002901D0354A04
:1001F00011600168002901D1314901608168C2683C
:10020000002900D08D46002A01D002F5807A002115
:100210008B460F462548264A121A11F02BF919F081
:10022000E9FF15202549ABBE24490968002001B427
:100230000B780131002B15D0202BF9D0222B01D0C7
:10024000272B01D11A0001E02022013902B401302C
:100250000B780131002B05D09A42F9D100224B1EB8
:100260001A70E5E76946020092006A446B469A42BA
:1002700006D9043A14681D6815601C600433F6E75B
:100280006C460725AC43A54604000D00094800282C
:1002900002D0094816F08CFC10F0CEFC200029009A
:1002A00003F084FB10F050FA040004200010042036
:1002B000003F0420B16B0100957D01001401042072
:1002C00000000020800C042080B483B000AF0346FF
:1002D000FB7197F90730002B0BDBFB7903F01F0252
:1002E000064997F907305B09012000FA02F241F84C
:1002F000232000BF0C37BD4680BC704700E100E002
:1003000080B584B000AF0023FB60EFF310837B6007
:100310007B68FB6072B61B4B1B7883F00103DBB27A
:10032000002B26D0174B01221A70174B5B68164A18
:1003300043F001035360154A134B9A601320FFF7F3
:10034000C3FF6FF07843BB600F4ABB6813620E4A6D
:10035000BB68D3620C4ABB6853630B4ABB68D36368
:10036000094ABB689364084ABB68D364064ABB6801
:100370001365FB683B603B6883F3108800BF103750
:10038000BD4680BD00180420000001400014042078
:1003900080B489B000AF0346B9607A60FB73002374
:1003A000FB77204B1B7883F00103DBB2002B02D0DC
:1003B0000123FB7707E01B23BB61FB7BBA699A42F1
:1003C00001D80223FB77FB7F002B25D1154AFB7B4D
:1003D000DB00134404337B617B69BA681A607B6974
:1003E0007A685A60FB7B012202FA03F33B61BB6827
:1003F000002B08D00B4BD3F8DC200A493B69134390
:10040000C1F8DC3008E0074BD3F8DC203B69DB4364
:1004100004491340C1F8DC30FB7F18462437BD4641
:1004200080BC70470018042080B58AB000AF2C4B08
:10043000DB6CFB612A4B9B6CBB61294B1B6D7B61A9
:10044000284BD3F8DC20B9697B690B4313407B62EE
:100450007B6A002B37D020233B617B6AB3FA83F39E
:100460003B622CE03A693B6AD31A013BFB600122F4
:10047000FB6802FA03F3BB601A4AFB68DB00134413
:1004800004337B607B681B68002B0FD0BA69BB68A4
:100490001340002B01D0012300E002233B607B6866
:1004A0001B687A685068002239689847BB68DB434C
:1004B0007A6A13407B627B6AB3FA83F33B623A6ADF
:1004C0003B699A42CED3064ABB699364044A7B696E
:1004D0001365034AFB69D36400BF2837BD4680BD5E
:1004E000000001400018042080B483B000AF034630
:1004F000FB7197F90730002B0BDBFB7903F01F0230
:10050000064997F907305B09012000FA02F241F829
:10051000232000BF0C37BD4680BC704700E100E0DF
:1005200080B584B000AF786039607B68002B01D162
:10053000042328E03B680F2B01D8052323E0144B4C
:10054000DB68002B1ED1124A7B68D3600023FB605E
:100550000FE00F4BDB68FA68002143F832100C4BB8
:10056000DA68FB68DB00134400225A60FB68013341
:10057000FB60FB68012BECD90920FFF7B5FF0A20CF
:10058000FFF7B2FF002318461037BD4680BD00BFFD
:100590001C01042080B586B000AF0346FB710B46FA
:1005A000BB801346BB7100237B611F4BDB68002BB4
:1005B00001D1032334E0BA88FB791146184600F0D4
:1005C000E3F8034683F00103DBB2002B01D00623DE
:1005D00026E0FB79144A52F823303B61EFF3108395
:1005E000FB60FB687B6172B6BB79002B08D03B696E
:1005F0009B889AB2BB8813439AB23B699A8009E000
:100600003B699B889AB2BB88DB439BB213409AB28A
:100610003B699A807B69BB60BB6883F310880023C9
:1006200018461837BD4680BD1C01042080B584B033
:1006300000AF03460A46FB711346BB80104BDB68D4
:10064000002B01D1032316E0BA88FB791146184626
:1006500000F09AF8034683F00103DBB2002B01D0CF
:10066000062308E0FB79064A52F82330FB60FB685A
:10067000BA881A83002318461037BD4680BD00BFD4
:100680001C01042080B584B000AF03460A46FB710C
:100690001346BB80104BDB68002B01D1032316E00F
:1006A000BA88FB791146184600F06EF8034683F0CD
:1006B0000103DBB2002B01D0062308E0FB79064AD8
:1006C00052F82330FB60FB68BA889A8300231846EF
:1006D0001037BD4680BD00BF1C01042080B586B028
:1006E00000AF03460A46FB711346BB711D4BDA6827
:1006F000FB79DB0013443B610023FB752BE0FB7DA2
:10070000184A52F82330FB6097F90630092B03D1C1
:10071000FB681B8DBB8202E0FB689B8DBB82FB6884
:100720001B8E9AB2BB8A13409BB27B817A89FB688D
:100730001A863B691B68002B0AD07B89002B07D0E7
:100740003B691B683A695068F97D07F10A029847CE
:10075000FB7D0133FB75FB7D022BD0D900BF183721
:10076000BD4680BD1C01042080B500AF09210020DA
:10077000FFF7B4FF00BF80BD80B500AF0A210120A4
:10078000FFF7ACFF00BF80BD80B485B000AF03466B
:100790000A46FB711346BB800023FB60FB79012BEB
:1007A00009D0022B0CD0002B00D00EE0BB881B0C14
:1007B0001B04FB6009E0BB881B0C1B04FB6004E00E
:1007C000BB881B0C1B04FB6000BFFB68002B01D126
:1007D000012300E0002318461437BD4680BC704753
:1007E00080B483B000AF0346FB7197F90730002B4C
:1007F0000BDBFB7903F01F02064997F907305B0911
:10080000012000FA02F241F8232000BF0C37BD4658
:1008100080BC704700E100E080B483B000AF0346C5
:10082000FB7197F90730002B10DBFB7903F01F02F7
:10083000094997F907305B09012000FA02F22033D9
:1008400041F82320BFF34F8FBFF36F8F00BF0C37EA
:10085000BD4680BC704700BF00E100E080B483B0BB
:1008600000AF7860084BDB687A689A4206D07B68F4
:100870005B68DB68002B01D0012300E000231846F1
:100880000C37BD4680BC70472C01042080B588B071
:1008900000AFF860B9607A603B60BB68FB612E4BCB
:1008A000BB61BB691B689B8C9BB2B3F5217F05D1F3
:1008B0002A4B1B68294A43F030031360FB68002B66
:1008C00001D0032344E0264AFB681B0113440C3388
:1008D0001B68002B01D005233AE0BB68002B02D037
:1008E0007B682F2B01D8092332E03B6800221A6075
:1008F0001B4AFB681B0113440C33BA681A607A6800
:100900000021B86810F0B6FDFB681B01144A1A44B8
:10091000FB695A60124AFB681B01134404331A68CE
:10092000FB691A60FB695968FA6813465B00134457
:100930009B000C4A13448B60FB690022DA62F86961
:1009400000F08CFA0346FB753B68FA691A600023D5
:1009500018462037BD4680BD4801042034000240BF
:100960002C0104203C01042080B584B000AF7860E5
:100970007868FFF773FF0346002B01D0022309E0DC
:10098000786800F06BFA0346FB737B685B680022B3
:10099000DA60002318461037BD4680BD80B586B0AA
:1009A00000AFF860B9607A60F868FFF757FF034658
:1009B000002B01D002234EE0294B1B881A46FB680E
:1009C0001B689B889BB203F488639A4201D005237D
:1009D00041E0BB689B68002B03D0BB689B89002B60
:1009E00001D10A2337E0FB6800221A74B968F8685D
:1009F00000F0E4F8FB6893F82A30002B19D1FB686B
:100A00002C3300221946002000F01CFF0346FB7522
:100A1000FB7D002B01D00D231DE000BF104B1B8878
:100A20001A46FB681B689B889BB203F488639A4252
:100A3000F4D1FB6893F82B301A467B681A60FB6888
:100A400093F82B30002B03D0FB68082283F82A2070
:100A5000FB6893F82A3018461837BD4680BD00BFA2
:100A6000E018042080B582B000AF78607868FFF7A6
:100A7000F5FE0346002B01D0022306E07B6800222E
:100A8000DA62786800F0EAF9034618460837BD468E
:100A900080BD000080B586B000AF786039607868AE
:100AA000FFF7DCFE0346002B01D002234DE0294B6B
:100AB0001B881A467B681B689B889BB203F488637B
:100AC0009A4201D0052340E007F1080319460020AF
:100AD00000F060FC0346002B01D0042335E03B68A6
:100AE0001D4A934201D901232FE0BA683B68B2FB4B
:100AF000F3F35B087B617B697B827B8A7A699A422C
:100B000001D0012321E07B8A073B3B827B8A013BAA
:100B1000FB813B8A1B023B820E4B1B881A463B8A99
:100B2000DBB29A4207D10B4B1B881A46FB8903F4B0
:100B30007F439A4201D0012307E07B681B68398A12
:100B4000FA890A4392B29A84002318461837BD46A0
:100B500080BD00BFE0180420801A060080B582B076
:100B600000AF78600B467B807868FFF777FE03461E
:100B7000002B01D002231BE00F4B1B881A467B6819
:100B80001B689B889BB203F488639A4201D00523BB
:100B90000EE0094B1B8819467A884FF68073134084
:100BA000994201D00B2303E07B687A889A81002365
:100BB00018460837BD4680BDE018042080B582B0D5
:100BC00000AF786039607B68002283F82A207B6858
:100BD000002283F82B2000BF2B4B1B881A467B6812
:100BE0001B689B889BB203F488639A42F4D13B68EC
:100BF0001A687B685A613B689A887B681A833B68ED
:100C0000DA7B7B689A727B689B895B009BB2DBB264
:100C10009AB27B68DA813B689B7B002B18D03B68DB
:100C20009A687B685A623B689A897B681A857B68F8
:100C30000022DA617B6800221A847B68DB8943F03A
:100C400001039AB27B68DA81786800F087F817E0D0
:100C50007B6800225A627B6800221A853B689A688A
:100C60007B68DA613B689A897B681A847B68DB89D8
:100C700023F001039AB27B68DA81786800F006F805
:100C800000BF0837BD4680BDE018042080B584B0A1
:100C900000AF78607B685B6893F900301846FFF717
:100CA0009FFD7B681B681B889AB27B681B6842F0BB
:100CB000210292B21A807B681B689B889BB203F06A
:100CC00003039BB2C3F10203FB8116E07B685B69FF
:100CD0001B78DAB27B681B6892B29A817B685B6989
:100CE0005A1C7B685A617B681B8B9BB2013B9AB292
:100CF0007B681A83FB89013BFB817B681B8B9BB262
:100D0000002B1AD0FB89002BE0D116E07B68DB6951
:100D10001B78DAB27B681B6892B29A817B68DB69C8
:100D20005A1C7B68DA617B681B8C9BB2013B9AB2D0
:100D30007B681A84FB89013BFB817B681B8C9BB21F
:100D4000002B02D0FB89002BE0D17B681B687A68FE
:100D5000D2891A8300BF1037BD4680BD80B584B0EC
:100D600000AF78607B685B6893F900301846FFF746
:100D700037FD7B681B681B889AB27B681B6842F052
:100D8000110292B21A807B681B8D9BB2B3F5807FF3
:100D90000DD97B681B684FF480721A827B681B8DAB
:100DA0009BB2A3F580739AB27B681A850AE07B68D0
:100DB0001B8D9AB27B681B68013A92B21A827B68DB
:100DC00000221A857B681B8B9BB2002B3CD07B6872
:100DD0001B681B889AB27B681B6842F0200292B2A3
:100DE0001A807B681B689B889BB203F003039BB24D
:100DF000C3F10203FB8116E07B685B691B78DAB202
:100E00007B681B6892B29A817B685B695A1C7B681D
:100E10005A617B681B8B9BB2013B9AB27B681A8339
:100E2000FB89013BFB817B681B8B9BB2002B02D0B3
:100E3000FB89002BE0D17B68DA897B681B6822F094
:100E4000010292B21A8304E07B681B687A68D28937
:100E50001A8300BF1037BD4680BD000080B584B046
:100E600000AF78607B685B6893F900301846FFF745
:100E7000D3FC7B681B689B889BB2FB817B681B68EB
:100E8000FA8992B29A8004E07B681B689B899BB2C6
:100E9000BB81234B1B881A467B681B68B3F84C3018
:100EA0009BB203F0C0039A42EED17B681B6800221C
:100EB0001A807B681B680122A3F850207B685B685E
:100EC0009A687B681B6812881A807B685B689A68DE
:100ED0007B681B6852889A847B685B689A687B6829
:100EE0001B689288A3F850207B685B689A687B68CF
:100EF0001B68D288A3F854207B685B689A687B687B
:100F00001B681289A3F858207B685B689B685A8924
:100F10007B689A81002318461037BD4680BD00BF0C
:100F2000E018042080B485B000AF78607B681B684F
:100F3000B3F84C309BB21B119BB203F003039BB27E
:100F4000C3F10203FB8116E07B685B691B78DAB2B0
:100F50007B681B6892B29A817B685B695A1C7B68CC
:100F60005A617B681B8B9BB2013B9AB27B681A83E8
:100F7000FB89013BFB817B681B8B9BB2002B02D062
:100F8000FB89002BE0D17B681B8B9BB2002B29D106
:100F90007B681B8D9BB2002B1CD07B681B687A681A
:100FA000D2891A831EE07B68DB691B78DAB27B6822
:100FB0001B6892B29A817B68DB695A1C7B68DA6194
:100FC0007B681B8C9BB2013B9AB27B681A84FB89BD
:100FD000013BFB817B681B8C9BB2002B02D0FB8901
:100FE000002BE0D17B681B8C9BB2002B03D17B686C
:100FF0001B6804229A8000BF1437BD4680BC70472E
:1010000080B485B000AF78607B681B68B3F84C3063
:101010009BB29B119BB203F00303FB8139E0FB8978
:10102000013BFB817B681B681B899AB27B685B6A0A
:10103000D2B21A707B685B6A5A1C7B685A627B6802
:101040001B689B8A9BB2002B23D17B681B8D9BB2B4
:10105000B3F5807F0DD97B681B684FF480721A82CC
:101060007B681B8D9BB2A3F580739AB27B681A854F
:101070000FE07B681B8D9BB2002B0AD07B681B8D19
:101080009AB27B681B68013A92B21A827B6800228E
:101090001A85FB89002BC2D100BF1437BD4680BC26
:1010A0007047000080B582B000AF786000BF0D4B84
:1010B0001B881A467B681B689B889BB203F4886375
:1010C0009A42F4D17B685B6893F900301846FFF7C9
:1010D000A3FB7B681B68044A12881A8000BF08378C
:1010E000BD4680BDE01804203C01042080B483B0DC
:1010F00000AF7860214B1B881A467B681B8903F080
:1011000010039A4208D07B6893F82B3043F0010318
:10111000DAB27B6883F82B20184B1B881A467B6851
:101120001B8903F080039A4208D07B6893F82B3028
:1011300043F00203DAB27B6883F82B200F4B1B8845
:101140001A467B681B8903F020039A4208D07B680B
:1011500093F82B3043F00403DAB27B6883F82B203A
:101160007B6893F82B30002B03D17B68082283F82F
:101170002B2000BF0C37BD4680BC7047E018042010
:1011800080B582B000AF0023FB712A4BDB683B6067
:101190003B681B689B889AB23B681A813B689B7AC4
:1011A000002B07D03B681B683A68D2891A833B68DA
:1011B00000229A72204B1B881A463B681B8903F059
:1011C00004039A4202D03868FFF7ACFE1A4B1B8822
:1011D0001A463B681B8903F008039A4202D038681C
:1011E000FFF70EFF144B1B881A463B681B8903F060
:1011F000B0039A4204D03868FFF778FF0123FB71EF
:101200000D4B1B881A463B681B8903F480739A4276
:1012100004D03868FFF746FF0123FB71FB79002BF0
:1012200004D03B682C33184600F0B0FB00BF0837F1
:10123000BD4680BD2C010420E018042080B483B09A
:1012400000AF0346FB7197F90730002B0BDBFB79EE
:1012500003F01F02064997F907305B09012000FAE5
:1012600002F241F8232000BF0C37BD4680BC704716
:1012700000E100E080B500AF284B4CF61432DA6094
:10128000264B02221A61264B00221A60234B4CF691
:101290001432DA60214B1B69204A43F002031361C8
:1012A00000BF1E4B1B6903F40073002BF9D01D4BCC
:1012B0001B681C4A23F0030313601A4B00221A60B8
:1012C000184B194A5A60174B46F61A02DA60154B4A
:1012D0001F225A61154B00221A60144B00229A609B
:1012E000124B00225A640D4B4CF61432DA600B4B51
:1012F0001B690A4A23F0040313610620FFF79EFFCF
:101300000720FFF79BFF2920FFF798FF2B20FFF70F
:1013100095FF01F02FFF0023184680BD00C1044057
:10132000E418042000C304400404100000C004407A
:1013300080B487B000AF0346FB7100237B61FB796B
:10134000023B012B01D904231DE000BFEFF3108302
:10135000BB60BB687B6172B60D4B4CF61432DA6031
:101360000B4B1B6923F001033B61FB79023B3A699C
:1013700013433B61064A3B6913617B69FB60FB6871
:1013800083F31088002318461C37BD4680BC704785
:1013900000C1044080B584B000AF03463960FB71E2
:1013A000194B1B68002B03D0184B1B68002B01D175
:1013B0000A2324E001F0DEFE134B1B68BB60FB79BF
:1013C000002B07D0012B0CD1114B5B6803F03F03BE
:1013D000FB6008E00E4B5B681B0A03F03F03FB60F9
:1013E00001E004230BE0FB68002B01D10123FB602B
:1013F000BA68FB68B2FBF3F23B681A600023184638
:101400001037BD4680BD00BFF4180420F01804203A
:1014100000C3044080B58AB000AF03460A46FB71A2
:101420001346BB800023FB61FB79012B04D0022B08
:1014300051D0002B27D077E0BB88202B02D8BB8867
:10144000002B01D103238EE0494B5B681B0A03F09C
:101450003F03BB61BB887B617A69BB699A4201D952
:10146000072380E0BB697A69B3FBF2F2796901FB7B
:1014700002F29B1A002B01D0052374E03F237B620C
:10148000BB883B6252E0BB88202B02D8BB88002B74
:1014900001D1032367E0BB88BB61354B5B6803F078
:1014A0003F037B617A69BB699A4201D907235AE0FD
:1014B000BB697A69B3FBF2F2796901FB02F29B1A0C
:1014C000002B01D005234EE04FF47C537B62BB8898
:1014D0001B023B622AE0BB88B3F5007F02D2BB88C7
:1014E000002B01D103233EE0BB88BB61204B5B682E
:1014F00003F03F037B617A69BB699A4201D90723F4
:1015000031E0BB697A69B3FBF2F2796901FB02F25F
:101510009B1A002B01D0052325E04FF47F037B624B
:10152000BB881B043B6201E004231CE0EFF3108343
:10153000BB60BB68FB6172B60D4B5B683B617B6A4D
:10154000DB433A6913403B613A693B6A13433B61B1
:10155000074A3B695360FB69FB60FB6883F31088B3
:1015600001F008FE002318462837BD4680BD00BFA5
:1015700000C3044080B48BB000AF03460A46FB7141
:101580001346BB7100237B6200233B620023FB6197
:101590000023BB61FB79042B2DD801A252F823F064
:1015A000B5150000C5150000D5150000F7150000A1
:1015B000E515000008237B622F4B3B624FF400636C
:1015C000FB611AE004237B622B4B3B624FF4806388
:1015D000FB6112E002237B62274B3B624FF40073F6
:1015E000FB610AE04FF400737B62244B3B624FF4D3
:1015F0000073FB6101E0092338E0EFF310833B61E6
:101600003B69BB6172B61E4B4CF61432DA60BB7993
:10161000002B11D03B6A1A687B6A1A433B6A1A6036
:10162000FB79042B0FD1174B1B6803F001037B617F
:101630007B69012BF7D106E03B6A1A687B6ADB43C2
:101640001A403B6A1A60BB69FB60FB6883F3108831
:10165000FB69002B09D0BB79002B06D000BF084BDB
:101660001A69FB691340002BF9D0002318462C3768
:10167000BD4680BC704700BF10C104400CC304408D
:1016800000C1044018C3044080B582B000AF144BC1
:101690009B6903F006037B60124B1B68002B18D07C
:1016A0007B6803F00403002B07D00E4B1B680E4A27
:1016B00010680022082198470BE07B6803F00203C2
:1016C000002B06D0074B1B68074A10680022072131
:1016D0009847034A7B68936100BF0837BD4680BDC9
:1016E00000C30440E4180420E818042080B582B048
:1016F00000AF244B9B6903F4CC433B6000237B6029
:10170000214B1B68002B33D03B68002B30D03B684B
:1017100003F48043002B04D07B6843F004037B6018
:101720001CE03B6803F40053002B04D07B6843F0BB
:1017300003037B6012E03B6803F40073002B04D0CA
:101740007B6843F005037B6008E03B6803F480633B
:10175000002B03D07B6843F006037B607B68002B83
:1017600006D0094B1B68094A10680022796898471F
:101770003B68002B02D0034A3B68936100BF0837E7
:10178000BD4680BD00C30440E4180420E8180420CE
:1017900080B582B000AF0E4B5B687B607B6803F066
:1017A0000103002B10D00B4B1B68002B06D0094BFC
:1017B0001B68094A1068002279689847044B5B68E7
:1017C000034A43F00103536000BF0837BD4680BDA4
:1017D00000C00440E4180420E818042080B582B05A
:1017E00000AF154B5B687B60144B1B68002B17D058
:1017F0007B6803F00403002B06D0104B1B68104AD3
:1018000010680022002198477B6803F00203002B38
:1018100006D00A4B1B680A4A10680022012198472B
:10182000054B5A687B6803F00603034913434B607A
:1018300000BF0837BD4680BD00C00440E418042046
:10184000E818042080B48FB000AF03463960FB7104
:101850001346BB7100237B6300233B630023FB62C1
:10186000BB7923F00703002B01D0092380E03B68FC
:10187000002B05D17B6B43F002037B633F4B3B6046
:10188000FB79032B1BD801A252F823F0A11800000A
:101890009D180000AB180000B5180000002367E099
:1018A0003B6B43F006033B630BE07B6B43F00403AD
:1018B0007B6306E07B6B43F006037B6301E006235A
:1018C00056E0EFF31083BB61BB69FB6272B62C4B31
:1018D00044F65902DA602A4B9B6823F00302FB7935
:1018E000274913438B60274B1A697B6B1A433B6B69
:1018F000DB43244913400B61EFF31183FB61FB6968
:10190000BB62214B1B89FB84BB795B013B623B6A59
:1019100083F311880DE0BFF34F8F30BFFB6A3B614B
:101920003B6983F31088EFF310837B617B69FB6273
:1019300072B63B681B68002BEDD03B681B685A1ED3
:101940003B681A60BB6ABB60BB6883F311880E4AB0
:10195000FB8C13810B4B1B690A4A23F002031361B2
:10196000BFF34F8FFB6AFB60FB6883F31088002393
:1019700018463C37BD4680BC704700BFEC180420B9
:1019800000C0044000ED00E0002C004080B487B0AF
:1019900000AF786000237B617B68002B14D1104B73
:1019A0007B60EFF31083FB60FB687B6172B60D4BCD
:1019B0001B690C4A23F002031361BFF34F8F7B694D
:1019C0003B613B6983F310887B681B685A1C7B680A
:1019D0001A60002318461C37BD4680BC704700BF04
:1019E000EC18042000ED00E080B586B000AF0023C5
:1019F0007B6100233B619B4B9B68FB60FB681B6822
:101A00001B889BB21A464FF6040313403B61FB68E8
:101A10001B689B889BB203F07E037B817B89002B34
:101A200056D03B69002B53D03B6903F01003002BC9
:101A300008D07B8903F00403002B03D07B6943F0BB
:101A400002037B613B6903F00403002B08D07B8910
:101A500003F00203002B03D07B6943F001037B6199
:101A60003B6903F48053002B08D07B8903F0080303
:101A7000002B03D07B6943F004037B613B6903F4D3
:101A80000043002B08D07B8903F04003002B03D0D8
:101A90007B6943F020037B613B6903F48043002BA7
:101AA00008D07B8903F02003002B03D07B6943F02F
:101AB00010037B613B6903F40053002B08D07B8942
:101AC00003F01003002B03D07B6943F008037B6114
:101AD000FB681B681B8D9BB203F01F033B61FB6817
:101AE0001B689B8D9BB203F00F033B813B89002B4E
:101AF0003AD03B69002B37D03B6903F00803002B39
:101B000008D03B8903F00803002B03D07B6943F422
:101B100000737B613B6903F00403002B08D03B8911
:101B200003F00403002B03D07B6943F480737B61D3
:101B30003B6903F00203002B08D03B8903F002034A
:101B4000002B03D07B6943F080037B613B6903F08A
:101B50000103002B08D03B8903F00103002B03D0C5
:101B60007B6943F040037B61FB681B68B3F850302E
:101B70009BB21A4641F6FE7313403B61FB681B683B
:101B8000B3F848309AB240F21D331340FB80FB8813
:101B9000002B10D03B69002B0DD03B6903F4007380
:101BA000002B08D0FB8803F40073002B03D07B6963
:101BB00043F400637B61FB681B68B3F850309BB251
:101BC0001A464FF21C4313403B61FB88002B3AD06E
:101BD0003B69002B37D03B6903F48043002B08D0CE
:101BE000FB8803F01003002B03D07B6943F48023B0
:101BF0007B613B6903F40053002B08D0FB8803F0A2
:101C00000803002B03D07B6943F400337B613B69FD
:101C100003F48053002B08D0FB8803F00403002B4F
:101C200003D07B6943F480337B613B6903F48063B9
:101C3000002B08D0FB8803F00103002B03D07B6945
:101C400043F400437B61FB685B68002B0CD07B692D
:101C5000002B09D0FB685B68FA68906800227969FC
:101C6000984701E04C010420FB681B689B8899B2EF
:101C7000FB681B687A890A4392B29A80FB681B68EA
:101C80009B8D99B2FB681B683A890A4392B29A8588
:101C9000FB681B68B3F8483099B2FB681B68FA8888
:101CA0000A4392B2A3F8482000BF1837BD4680BD52
:101CB00080B586B000AF00237B6100233B61A24B5F
:101CC0005B69FB60FB681B681B889BB21A464FF67A
:101CD000040313403B61FB681B689B889BB203F0C5
:101CE0007E037B817B89002B56D03B69002B53D030
:101CF0003B6903F01003002B08D07B8903F0040339
:101D0000002B03D07B6943F002037B613B6903F046
:101D10000403002B08D07B8903F00203002B03D0BF
:101D20007B6943F001037B613B6903F48053002B23
:101D300008D07B8903F00803002B03D07B6943F0B4
:101D400004037B613B6903F40043002B08D07B89CB
:101D500003F04003002B03D07B6943F020037B6139
:101D60003B6903F48043002B08D07B8903F02003F8
:101D7000002B03D07B6943F010037B613B6903F4C4
:101D80000053002B08D07B8903F01003002B03D0F5
:101D90007B6943F008037B61FB681B681B8D9BB26A
:101DA00003F01F033B61FB681B689B8D9BB203F034
:101DB0001F033B813B89002B48D03B69002B45D05A
:101DC0003B6903F01003002B08D03B8903F010039C
:101DD000002B03D07B6943F480637B613B6903F094
:101DE0000803002B08D03B8903F00803002B03D025
:101DF0007B6943F400737B613B6903F00403002BB0
:101E000008D03B8903F00403002B03D07B6943F423
:101E100080737B613B6903F00203002B08D03B8990
:101E200003F00203002B03D07B6943F080037B6146
:101E30003B6903F00103002B08D03B8903F0010349
:101E4000002B03D07B6943F040037B61FB681B6878
:101E5000B3F850309BB21A4641F6FE7313403B6113
:101E6000FB681B68B3F848309AB240F21D33134048
:101E7000FB80FB88002B10D03B69002B0DD03B6909
:101E800003F40073002B08D0FB8803F40073002BCD
:101E900003D07B6943F400637B61FB681B68B3F884
:101EA0004C309BB21A464FF21C4313403B61FB88F7
:101EB000002B3AD03B69002B37D03B6903F48043B9
:101EC000002B08D0FB8803F01003002B03D07B69A4
:101ED00043F480237B613B6903F40053002B08D05B
:101EE000FB8803F00803002B03D07B6943F4003325
:101EF0007B613B6903F48053002B08D0FB8803F01F
:101F00000403002B03D07B6943F480337B613B697E
:101F100003F48063002B08D0FB8803F00103002B3F
:101F200003D07B6943F400437B61FB685B68002B53
:101F30000CD07B69002B09D0FB685B68FA6890685D
:101F400000227969984701E04C010420FB681B6876
:101F50009B8899B2FB681B687A890A4392B29A807F
:101F6000FB681B689B8D99B2FB681B683A890A4322
:101F700092B29A85FB681B68B3F8483099B2FB6847
:101F80001B68FA880A4392B2A3F8482000BF1837AA
:101F9000BD4680BD80B483B000AF0346FB7197F9A6
:101FA0000730002B0BDBFB7903F01F02064997F982
:101FB00007305B09012000FA02F241F8232000BF3C
:101FC0000C37BD4680BC704700E100E080B483B0B0
:101FD00000AF0346FB7197F90730002B10DBFB794C
:101FE00003F01F02094997F907305B09012000FA45
:101FF00002F2203341F82320BFF34F8FBFF36F8FDE
:1020000000BF0C37BD4680BC704700BF00E100E058
:1020100080B483B000AF0346FB7197F90730002B03
:102020000CDBFB7903F01F02074997F907305B09C6
:10203000012000FA02F2603341F8232000BF0C3780
:10204000BD4680BC704700BF00E100E080B588B0AD
:1020500000AFF860B9607A60FB68BB61BB695B6A1E
:10206000DB6A1B697B610023FB61BB68012B02D02B
:10207000022B05D009E0FB6943F48073FB6109E0A2
:10208000FB6943F48063FB6104E0FB6943F4805324
:10209000FB6100BF7B691B68002B13D07B695B7BF6
:1020A000002B0FD0BB699A69FB691A43BB699A611F
:1020B0007B6900221A73BB695B6A00221946B86902
:1020C00000F0EDFEBB699A69FB691A43BB699A612E
:1020D000BB695B6A00221946B86900F0E0FE00BFE8
:1020E0002037BD4680BD80B588B000AFF860B960CC
:1020F0007A60FB68BB61BB691B6ADB6A1B697B6139
:102100000023FB61BB68012B02D0022B05D009E044
:10211000FB6943F40073FB6109E0FB6943F400636E
:10212000FB6104E0FB6943F40053FB6100BF7B6982
:102130001B68002B13D07B695B7B002B0FD0BB6926
:102140009A69FB691A43BB699A617B6900221A7319
:10215000BB691B6A01221946B86900F0A0FEBB6981
:102160009A69FB691A43BB699A61BB691B6A0122C0
:102170001946B86900F093FE00BF2037BD4680BD08
:1021800080B586B000AFF8607A603B600B46FB72AA
:102190000023FB82FB68002B01D005230FE18A4A54
:1021A000FB681B0113440C331B68002B01D0042374
:1021B00005E1FB7A022B0ED03B686F2B01D8072379
:1021C000FDE03B68702B15D0804B814A4FF4AE7117
:1021D00080480EF095FA3B68AF2B01D80723EEE05C
:1021E0003B68B02B06D07C4B794A4FF4B3717948E9
:1021F0000EF086FA3B6A00221A607B683B613A68FF
:10220000002178680FF036F9FB681B016E4A1A440A
:102210003B695A606C4AFB681B01134408331A6817
:102220003B699A603B69FA7A1A707B6830337B604D
:10223000FEF766F8FB7A012B3CD03B697A681A629C
:102240003B691B6A002283F834203B691A6A3B69A8
:102250001B6A9A623B691A6A3B691B6A1A633B698B
:102260001A6A3B691B6ADA623B691B6A0022DA63FD
:102270003B691B6A594A9A633B691A6A3B691B6A44
:1022800014321A613B691A6A3B691B6A5A623B69DC
:102290005B681B783A6952491846FEF779F803469D
:1022A000002B04D0386900F0A3F80F2387E07B6887
:1022B00040337B60FB7A002B39D03B697A685A62E5
:1022C0003B695B6A002283F834203B695A6A3B69A8
:1022D0005B6A9A623B695A6A3B695B6A1A633B694B
:1022E0005A6A3B695B6ADA623B695B6A0022DA63BD
:1022F0003B695B6A3B4A9A633B695A6A3B695B6A22
:1023000014321A613B695A6A3B695B6A5A623B69DB
:102310005B685B783A6934491846FEF739F803463A
:10232000002B04D0386900F063F80F2347E0F96808
:10233000386900F05DFE3B699B681B8C9BB203F023
:102340000103002B14BF01230023DAB23B6983F899
:102350002D203B699B681B8C9BB29B119BB203F0A9
:102360000303FB82FB8A214AD25C3B6983F82E205F
:102370003B6A3A691A60144AFB681B0113440C3328
:102380003A691A603B695B6893F904301846FFF7B5
:102390003FFE3B695B6893F904301846FFF7FAFD8E
:1023A0003B695B6893F902301846FFF7F3FD3B6920
:1023B0005B6893F903301846FFF7ECFD00231846DD
:1023C0001837BD4680BD00BF64010420B4A30100DE
:1023D000ACA40100FCA3010060A401008125000061
:1023E000E7200000592700004D200000B0A30100A5
:1023F00080B582B000AF7860786800F031FE0346A7
:10240000002B01D003233FE07B689B689B8A9BB233
:1024100003F04003402B17D17B681B78002B05D0BD
:102420007B685B6ADB6A1B68002B0DD17B681B78BD
:10243000012B05D07B681B6ADB6A1B68002B03D16C
:102440007B681B7D002B01D004231DE07B689B680B
:1024500000229A807B685B6893F903301846FFF787
:10246000B5FD7B685B6893F902301846FFF7AEFD57
:102470007B685B6893F904301846FFF7A7FD7B681B
:102480005B680022DA60002318460837BD4680BD2D
:1024900080B584B000AFF860B9607A60FB70F8680E
:1024A00000F0DEFD0346002B01D0032363E0BB6890
:1024B000002B01D106235EE07B68002B01D10123B4
:1024C00059E0FB681B7D002B01D0042353E0FB681F
:1024D0001B78012B01D109234DE0FB681B6A93F89F
:1024E0003430012B01D10C2345E0FB681B6A9B6A49
:1024F0001B68002B01D009233DE0FB78002B05D0A1
:102500007B68B3F5806F01D9102334E0FB681B6A48
:102510009B6ABA681A60FB681B6A9B6A7A685A6091
:10252000FB681B6A9B6A00229A60FB681B6A9B6AB5
:1025300001221A73FB681B6A9B6AFA785A73FB685C
:102540001B6A9A6AFB681B6A12699A62FB681B6ABB
:1025500093F83430002B0DD1FB681B6A022283F8FC
:102560003420FB681B6A9B6BFA68126AD26A1146B8
:10257000F8689847002318461037BD4680BD000014
:1025800080B483B000AF786039603B685B7B002B20
:1025900056D07B685B681B781946314A01238B4013
:1025A000C2F814387B685B681B7819462C4A0123F3
:1025B0008B4093627B685B681B781946284A01232D
:1025C0008B4053627B685B681B781946244A012361
:1025D0008B4053633B681B681A463B685B681A4430
:1025E000204B19687B685B681B781B010B44013A20
:1025F0001A607B689B6819461A4B1A687B685B688F
:102600001B781B0113440A465A603B685B68013B18
:102610001B01144A11687A685268127812010A4440
:1026200043F0404343F0010393607B689B689B88C1
:102630009AB27B689B6842F0100292B29A8009E0DD
:102640007B689B689B889AB27B689B6842F0020219
:1026500092B29A8000BF0C37BD4680BC704700BF65
:10266000000001409CA3010080B584B000AFF86079
:10267000B9607A60FB70F86800F0F2FC0346002B4A
:1026800001D0032363E0BB68002B01D106235EE089
:102690007B68002B01D1012359E0FB681B7D002BD7
:1026A00001D0042353E0FB681B78002B01D10923E0
:1026B0004DE0FB685B6A93F83430012B01D10C23A9
:1026C00045E0FB685B6A9B6A1B68002B01D009230D
:1026D0003DE0FB78002B05D07B68B3F5806F01D916
:1026E000102334E0FB685B6A9B6ABA681A60FB6877
:1026F0005B6A9B6A7A685A60FB685B6A9B6A002225
:102700009A60FB685B6A9B6A01221A73FB685B6ACA
:102710009B6AFA785A73FB685B6A9A6AFB685B6A21
:1027200012699A62FB685B6A93F83430002B0DD112
:10273000FB685B6A022283F83420FB685B6A9B6B50
:10274000FA68526AD26A1146F86898470023184618
:102750001037BD4680BD000080B483B000AF786004
:1027600039603B685B7B002B56D07B685B685B788D
:102770001946314A01238B40C2F81C387B685B68DC
:102780005B7819462C4A01238B4093627B685B6817
:102790005B781946284A01238B4053627B685B684B
:1027A0005B781946244A01238B4053637B689B68FE
:1027B0001946224B1A687B685B685B781B011344DF
:1027C0000A461A603B681B681A463B685B681A44F5
:1027D0001A4B19687B685B685B781B010B44013AF4
:1027E0005A603B685B68013B1B01144A11687A68B8
:1027F0005268527812010A4443F0406343F00103E7
:1028000093607B689B689B889AB27B689B6842F068
:10281000200292B29A8009E07B689B689B889AB2FA
:102820007B689B6842F0010292B29A8000BF0C372D
:10283000BD4680BC704700BF000001409CA3010062
:1028400080B584B000AFF860B9607A60F86800F0D5
:1028500007FC0346002B01D0032320E0FB681B7814
:10286000002B05D0FB685B6A1B6B1B68002B0DD12E
:10287000FB681B78012B05D0FB681B6A1B6B1B6870
:10288000002B03D1FB681B7D002B01D0042306E045
:10289000FB68BA68DA60FB687A681A610023184638
:1028A0001037BD4680BD80B584B000AF7860084663
:1028B00011461A460346FB700B46BB7013467B70ED
:1028C000786800F0CDFB0346002B01D0032330E0F5
:1028D0007B681B78002B05D07B685B6A1B6B1B68D1
:1028E000002B0DD17B681B78012B05D07B681B6A00
:1028F0001B6B1B68002B03D17B681B7D002B01D059
:10290000042316E07B689B689B899BB223F00F032E
:10291000FB817A78BB781343DAB2FB781343DBB2DE
:102920009AB2FB891343FB817B689B68FA899A8181
:10293000002318461037BD4680BD80B584B000AF77
:10294000F860084611461A4603467B810B467B72A7
:102950001346FB80F86800F083FB0346002B01D090
:1029600003233DE0FB681B78002B05D0FB685B6A06
:102970001B6B1B68002B09D1FB681B78012B07D050
:10298000FB681B6A1B6B1B68002B01D0042327E02C
:102990007B7A002B09D07B7A032B06D8FB88B3F512
:1029A000006F02D23B7E032B01D90A2318E0FB689B
:1029B0009B687A891A857B7A9BB2DB029AB2FB8884
:1029C00013439BB2FA6892686FEA43436FEA53433A
:1029D0009BB29384FB689B683A7E92B29A850023EF
:1029E00018461037BD4680BD80B582B000AF054B9C
:1029F000DB687B60786800F007F800BF0837BD46E9
:102A000080BD00BF6401042080B58EB002AF786045
:102A10007B689B681B899BB203F00E030C2B00F2B2
:102A20006C8101A252F823F01D2B0000FB2C00004A
:102A30005D2A0000FB2C0000792A0000FB2C00001E
:102A4000892A0000FB2C0000FB2C0000FB2C00005E
:102A5000FB2C0000FB2C0000652A0000786800F0C9
:102A6000E1F94DE17B689B689B8E9BB2DBB2194616
:102A7000786800F071F943E17B6893F82E301946CD
:102A8000786800F069F93BE10023FB627B689B6892
:102A90009B8ABB83BB8B03F010039BB2002B05D03A
:102AA0007B689B681B888023FB6209E0BB8B03F07B
:102AB00008039BB2002B03D0FB6A43F01003FB62B8
:102AC000BB8B03F004039BB2002B03D0FB6A43F0E3
:102AD0002003FB62BB8B03F002039BB2002B03D0ED
:102AE000FB6A43F04003FB62FB6A002B00F00781A6
:102AF0007B681B7D83F00103DBB2002B00F0FF80BD
:102B00007B689A69FB6A1A437B689A617B685B6A97
:102B100004221946786800F0C2F9F0E00023BB6295
:102B20007B689B68B3F844309BB203F00F037B8350
:102B30007B689B68B3F840309BB203F001033B8392
:102B40007B8B002B00F0C9803B8B002B00F0C580F5
:102B500007F10C0319460020FEF71CFC0346002B6E
:102B600001D00023FB607B689B68B3F848309BB2C0
:102B70001B037B617B689B68B3F844309BB21B09E5
:102B80009BB21A467B6913437B617B8B03F0010385
:102B9000002B6FD07B689B689B8C9BB203F4004337
:102BA000B3F5004F4DD1002387F827304FF4006371
:102BB0003B610123FB837B693F2B06D87B695B026A
:102BC000DA083B69D31A3B6228E07B697F2B09D87E
:102BD0007B691B02DA083B69D31A3B62012387F841
:102BE00027301BE07B69FF2B09D87B69DB01DA0802
:102BF0003B69D31A3B62022387F827300EE07B69DA
:102C00001B0AFB837B699A01FB8BDB00B2FBF3F2AF
:102C10003B69D31A3B62032387F827303B6A9AB299
:102C2000F98B97F827300093134601227868FFF755
:102C300084FEFB68DA007B69B2FBF3F27B689A6280
:102C400006E0FB68DA007B69B2FBF3F27B689A620C
:102C50007B68DB68002B3DD07B6893F82C30002B21
:102C600038D07B68DB687A6810697A68926A0321D9
:102C700098472FE07B8B03F00203002B03D0BB6A45
:102C800043F40073BB627B8B03F00403002B03D07F
:102C9000BB6A43F48073BB627B8B03F00803002B99
:102CA00003D0BB6A43F48063BB627B68DB68002BA4
:102CB0000DD07B685B6A93F83430022B07D17B68B8
:102CC000DB687A681069BA6A0521984702E07B6878
:102CD000BA6ADA617B689B681B887B689B68B3F87B
:102CE00040309AB27B689B6822F0070292B2A3F848
:102CF00040207B6800221A7502E000BF00E000BFA0
:102D000000BF3037BD4680BD80B582B000AF074BF5
:102D1000DB687B607B681B6A01221946786800F0DB
:102D2000BEF800BF0837BD4680BD00BF6401042067
:102D300080B582B000AF074BDB687B607B685B6A65
:102D400000221946786800F0AAF800BF0837BD468F
:102D500080BD00BF6401042080B586B000AF7860FC
:102D60000B46FB707B685B6ADB6A7B617B691B6877
:102D70003B613B69002B05D07B691B7B002B01D09D
:102D8000012300E00023FB73FB7B03F00103FB73D3
:102D9000FB7B002B28D00EE07B689B681B8899B2D8
:102DA0007B699B683A691344CAB21A707B699B6855
:102DB0005A1C7B699A60FB785A1EFA70002B05D06A
:102DC0007B699A687B695B689A42E5D37B699A68FC
:102DD0007B695B689A4221D17B685B6A0022194655
:102DE000786800F05CF819E07B68DB68002B06D09F
:102DF0007B68DB687A6810690022022198477B694A
:102E00001B68002B0AD17B691B7B83F00103DBB2BB
:102E1000002B03D07B689B681B8800BF00BF18375E
:102E2000BD4680BD80B584B000AF78607B681B6A0A
:102E3000DB6A1B68002B2ED07B681B6ADB6A1B7B5E
:102E4000002B28D07B681B6ADB6A1B68FB607B68F1
:102E50001B6ADB6A9B68FA6813441B78DAB27B68EA
:102E60009B6892B21A807B681B6ADB6A9A6801329F
:102E70009A607B681B6ADB6A9A687B681B6ADB6AFC
:102E80005B689A4207D37B681B6A012219467868FF
:102E900000F005F800BF00BF1037BD4680BD80B50B
:102EA00086B000AFF860B9601346FB71BB68DB6A9F
:102EB00000221A73BB68DB6A1A69BB68DA62FB79A5
:102EC000012B0AD1FB689B689B889AB2FB689B68C0
:102ED00022F0120292B29A801BE0FB689B689B88EA
:102EE0009AB2FB689B6822F0200292B29A80FB683B
:102EF00093F82D3083F00103DBB2002B09D0FB687F
:102F00009B689B889AB2FB689B6822F0010292B290
:102F10009A80FB68DB68002B38D0BB6893F83430AC
:102F2000022B33D1FB689B697B61FB6800229A61AD
:102F3000BB681B6B1B683B61BB681B6B00221A6084
:102F4000BB681B6B1A69BB681A63BB681B6B1B6889
:102F5000002B03D1BB68002283F834207B69002B4F
:102F600007D0FB68DB68FA6810697A690421984722
:102F700006E0FB68DB68FA681069F9793A699847F6
:102F8000BB683C331846FEF701FD20E0FB79012BBE
:102F90000ED100BFFB689B689B8A9BB203F0400385
:102FA000402BF7D1FB689B681B8F9BB2002BF1D1A4
:102FB000BB681B6B1B691B68002B03D1BB6800221D
:102FC00083F83420BB683C331846FEF7DFFCBB684F
:102FD000DB6A1B7B002B06D0BB689B6BBA68D26A8E
:102FE0001146F868984700BF1837BD4680BD0000FD
:102FF00080B485B000AF786039603A681346DB0072
:103000009B1A5B00154A1344FB607B689B68FA6857
:1030100012889A817B689B68FA6852881A857B6857
:103020009B68FA6892889A847B689B68FA68D28861
:103030009A857B689B68FA6812891A847B689B680A
:10304000FA6852899A877B689B68FA6892899A80A5
:1030500000BF1437BD4680BC704700BFA0A301006D
:1030600080B485B000AF78600023FB6010E00D4AAB
:10307000FB681B0113440C331B687A689A4204D125
:103080007B68002B01D0002306E0FB680133FB6066
:10309000FB68002BEBD0032318461437BD4680BCD9
:1030A000704700BF6401042080B586B000AF78602F
:1030B0000F4A07F10C0307CA03C31A700D4A07F140
:1030C00008031268114619800233120C1A7007F1B6
:1030D0000C0318460EF024FA78680EF021FA07F176
:1030E000080318460EF01CFA00BF1837BD4680BD15
:1030F000C8A40100D4A4010080B584B000AF7860FA
:103100000A4A07F10C031268114619800233120CA7
:103110001A7078680EF004FA07F10C0318460EF0E6
:10312000FFF900BF1037BD4680BD00BFD4A4010029
:1031300080B582B000AF0A4B7B600A4B3B6007E072
:103140007A68131D7B603B68191D396012681A602C
:103150003B68054A9342F3D300F082F8FDF740F84C
:1031600010DA010000000420A00C042080B400AF9D
:10317000FEE7000080B487B000AF334B4FF400424D
:103180001A60314B1B68002B00D1FEE72F4B1B68E8
:1031900003F00303032B51D801A252F823F000BF20
:1031A000B1310000B9310000C13100002932000006
:1031B000274B284A1A603CE0254B264A1A6038E023
:1031C000224B1B6803F40063002B02D0214B7B6170
:1031D00001E0204B7B611D4BDB6803F01F033B616B
:1031E0001A4BDB68DB0A03F00F03FB60174BDB684D
:1031F0001B0C03F00103BB60144BDB681B0A03F0DC
:1032000001037B607A69BB6802FA03F33A6902FB47
:1032100003F2FB68B2FBF3F27B6822FA03F37B61F3
:103220000B4A7B69136004E00B4B1B68084A136070
:1032300000BF074B1B68094A136000E000BF1C3742
:10324000BD4680BC704700BFF018042000C3044096
:10325000F418042080BA8C01F8180420FC1804200B
:1032600080B584B000AF0121062000F01FF8EFF315
:1032700010837B607B68FB6072B60A4B0A4A9A60D7
:10328000084B4FF4E0225A62BFF36F8FBFF34F8FAA
:10329000FB68BB60BB6883F3108800BF1037BD4676
:1032A00080BD00BF00ED00E00000000080B483B0EE
:1032B00000AF78600B46FB707B68022B04D07B6804
:1032C000042B01D0012317E00E4B44F65902DA60BB
:1032D000FB78002B07D00B4B5A697B685B080949C8
:1032E00013434B6107E0074B5A697B685B08DB437C
:1032F000044913404B61002318460C37BD4680BC7F
:10330000704700BF00C0044080B584B000AFF860D3
:10331000B9607A60BB68002B06D0012B00D034E086
:103320001C4B01221A7030E01B4B1B785A1CD1B287
:10333000194A11701A46194B1978194B9954164BA2
:103340001B783F2B06D9144B00221A70154B012213
:103350001A7012E0104B1B78013B114AD35C0D2B05
:103360000BD10D4B1B78013B0D4A0021D1540A4B68
:1033700000221A700B4B01221A700B4B18680023A5
:1033800001220649FFF770F900BF00BF1037BD46A4
:1033900080BD00BF740104200C1C0420C81B042045
:1033A000CC1B04200D1C042014190420B0B582B0DD
:1033B00002AF504B0093B0234F4A02210020FEF78A
:1033C000DFFE03461A464D4B1A704C4B1B78002B00
:1033D00017D04B4A4B4B15461C460FCC28606960F2
:1033E000AA60EB6007CC28616961AA612388A27892
:1033F000AB831346AB774248FFF77EFE3F4B1B780B
:1034000074E03C4B1868032300220021FFF74BFABD
:1034100003461A46394B1A70384B1B78002B13D0D1
:10342000374A394B15461C460FCC28606960AA60A4
:10343000EB6003CC2861696123782B763048FFF775
:103440005BFE2E4B1B7851E02A4B18680223009339
:103450001F2302220721FFF770FA03461A46274B63
:103460001A70264B1B78002B14D0254A274B154683
:103470001C460FCC28606960AA60EB6007CC28610D
:103480006961AA612388AB831D48FFF735FE1B4B9A
:103490001B782BE0174B1B6800221D491846FFF7CD
:1034A000CFF903461A46154B1A70144B1B78002BA4
:1034B00014D0134A174B15461C460FCC2860696080
:1034C000AA60EB6007CC28616961AA612388AB839D
:1034D0000B48FFF711FE094B1B7807E0054B1868F6
:1034E000002301220C49FFF7BFF803461846BD46EA
:1034F000B0BD00BF141904201819042000190420BD
:10350000403E0420ECA401000CA5010028A5010008
:103510000933000048A50100C81B042080B582B013
:1035200000AF0023FB7110211948FCF7F9FF034697
:103530001A46184B1A700023FB71FB79032B20D815
:10354000FB79154AD05CFB79144A32F8133001221A
:103550001946FDF71FF803461A460E4B1A70FB7901
:103560000D4AD05CFB790D4A32F813301946FDF74D
:103570005DF803461A46074B1A70FB790133FB715D
:10358000DBE7044B1B7818460837BD4680BD00BFFB
:103590000419042001190420D8A40100DCA40100AE
:1035A00080B586B000AF78600023FB744D4B1B885C
:1035B0003B814D4B7B61FF2279684C480EF058FCF3
:1035C0004A4B002283F8FF20484BFB60F8680EF05E
:1035D000D7FB03467B81464B1B78DBB2002B0CBF2D
:1035E00001230023DBB2002B07D07B69013B7B6109
:1035F0007B69002B00D0EEE700BF3D4B00221A7024
:103600003C4B18687A890023F968FEF741FF0346AE
:10361000002B14BF01230023DBB2002B01D00023B9
:103620005CE00123FB74304B7B61314B1B78DBB2D8
:10363000002B0CBF01230023DBB2002B07D07B69DA
:10364000013B7B617B69002B00D0EEE700BF284B7C
:1036500000221A70274B186807F108010023012285
:10366000FEF716FF0346002B14BF01230023DBB235
:10367000002B01D0002331E00123FB741A4B7B6146
:103680001B4B1B78DBB2002B0CBF01230023DBB2EA
:10369000002B07D07B69013B7B617B69002B00D04D
:1036A000EEE700BF124B00221A70124B186807F1A8
:1036B0000803591C00230122FEF7EAFE0346002BF3
:1036C00014BF01230023DBB2002B01D0002305E04F
:1036D0000123FB74022003F0D9FBFB7C184618374A
:1036E000BD4680BD68A5010080969800C81A0420D8
:1036F000740104201419042080B586B000AF7860EE
:103700000023FB74204B7B61FF2279681F480EF079
:10371000AFFB1E4B002283F8FF201C4BFB60F868B8
:103720000EF02EFB03467B81194B1B78DBB2002B7E
:103730000CBF01230023DBB2002B07D07B69013BC8
:103740007B617B69002B00D0EEE700BF104B0022AD
:103750001A70104B18687A890023F968FEF798FEF2
:103760000346002B14BF01230023DBB2002B01D042
:10377000002305E00123FB74022003F087FBFB7CA0
:1037800018461837BD4680BD80969800C81A042098
:10379000740104201419042080B582B000AF002306
:1037A000FB71FB79032B3AD8FB79264AD25CFB7973
:1037B0000133DBB21946104603F0B8FA0346BB7179
:1037C000BB79002B12D1204B1B78042B06D11F484C
:1037D000FFF7E6FE1E48FFF7E3FEFEE7FB791D4A12
:1037E0000121D154184B01221A7014E0BB790E2B21
:1037F00011D1154B1B78012B06D11448FFF7D0FED1
:103800001348FFF7CDFEFEE7FB79124A0121D154A0
:103810000D4B04221A70FB790133FB71C1E703F0F1
:1038200021FB0346002B06D00B48FFF7B9FE0B4BDC
:1038300001221A7003E00A48FFF7B2FEFEE70837DC
:10384000BD4680BDE4A401001C1C04206CA5010041
:10385000ACA50100141C0420E4A501000D1C0420EB
:1038600014A6010080B500AF444B1B78042B00F276
:10387000808001A252F823F08D38000093380000B8
:10388000133900007339000019390000FFF784FF75
:1038900072E03B4B1B78002B13D04021394803F0DA
:1038A00020FB394B00221A70384B00221A70384B1B
:1038B0001868002301223749FEF7D6FE304B00225C
:1038C0001A70354B1B78002B03D1344B1B78002B1F
:1038D00051D0314B00221A70304B00221A70FA205E
:1038E00003F0D4FA2E4B18682D4B1B681B6810335D
:1038F0001B682C4A1278114698470346002B0CBFD0
:1039000001230023DBB2002B35D02748FFF748FE08
:1039100031E002F0E3FF2FE0194B1B78002B15D0AC
:1039200003F0C2F84021174803F0DBFA164B0022DF
:103930001A70164B00221A70154B186800230122CA
:103940001449FEF791FE0E4B00221A700F4B1B78A4
:10395000DBB2002B14BF01230023DBB2002B04D009
:103960000A4B00221A7003F079F95A2003F08EFAFC
:1039700002E000BF00E000BF00BF80BD1C1C0420AF
:1039800075010420CC1B04200C1C04200D1C0420F9
:1039900014190420C81B0420181C0420191C04201E
:1039A000780104206D1C04205CA6010080B584B061
:1039B00000AF7860396003F091FBA34B00221A80BE
:1039C000FDF758FC03461A46A04B1A709F4B1B7814
:1039D000002B14BF01230023DBB2002B1DD09B4B17
:1039E0001B78002B16D040F29B13994A99499A48AC
:1039F0000EF048F89848FFF757FB944B1B78974A0E
:103A0000974995480EF03EF89348FFF775FB002064
:103A10000CF09AFE8D4B1B7811E10320FDF788FC1A
:103A200003461A46894B1A70884B1B78002B14BF2B
:103A300001230023DBB2002B1CD0844B1B78002B0E
:103A400016D04FF4D273824A824983480EF01AF896
:103A50008148FFF729FB7D4B1B78824A80497E48CD
:103A60000EF010F87C48FFF747FB00200CF06CFECE
:103A70000123E4E001210120FDF77CFD03461A4605
:103A8000724B1A70714B1B78002B14BF012300235B
:103A9000DBB2002B1DD06D4B1B78002B16D04FF4E2
:103AA000D6736B4A6B496C480DF0ECFF6A48FFF720
:103AB000FBFA664B1B786C4A694967480DF0E2FFD8
:103AC0006548FFF719FB00200CF03EFE5F4B1B78AA
:103AD000B5E001210120FDF79DFC03461A465B4B32
:103AE0001A705A4B1B78002B14BF01230023DBB242
:103AF000002B1DD0554B1B78002B16D04FF4DA73DA
:103B0000534A544954480DF0BDFF5348FFF7CCFACF
:103B10004E4B1B78554A52494F480DF0B3FF4E4863
:103B2000FFF7EAFA00200CF00FFE484B1B7886E006
:103B300001210020FDF76EFC03461A46434B1A7024
:103B4000424B1B78002B14BF01230023DBB2002B58
:103B50001DD03E4B1B78002B16D040F2BB133C4AC5
:103B60003C493D480DF08EFF3B48FFF79DFA374B2F
:103B70001B783E4A3A4938480DF084FF3648FFF733
:103B8000BBFA00200CF0E0FD304B1B7857E04FF4FF
:103B90007A7003F07BF9FFF7C1FCFFF707FC3448AC
:103BA000FFF7FEFC334B2E221A700023FB73FB7BC6
:103BB000092B0BD82F4B1846FFF79EFD4FF47A7058
:103BC00003F064F9FB7B0133FB73F0E7294B1846E4
:103BD000FFF7E6FC0A2003F059F9274B1B78DBB20C
:103BE000002B05D0254B1B78042B01D0012300E0CE
:103BF0000023002B04D000F065FF1F4B00221A7039
:103C00001E4B1B78022B17D11D4B1B8801339AB218
:103C10001B4B1A801A4B1B881A461A4B1B881946D5
:103C2000642303FB01F3193B9A42D3DBFFF71AFE2F
:103C3000134B00221A80CDE7FFF714FECAE718469F
:103C40001037BD4680BD00BF082C0040021904207B
:103C50007CA60100A4A60100403E0420ACA6010001
:103C6000C4A60100E4A6010008A7010028A70100DE
:103C700048A70100101C04200D1C04201C1C04205B
:103C80001A1C04207601042080B483B000AF786051
:103C9000044A7B681A607B6818460C37BD4680BCB6
:103CA000704700BF14A8010080B582B000AF7860F3
:103CB0007868FFF7E9FF1421786803F02DFA7B6834
:103CC00018460837BD4680BD80B582B000AF786029
:103CD000094B9B8E9BB2084A43F030039BB29386FC
:103CE0007B684C229A74786800F054F803461846B2
:103CF0000837BD4680BD00BF0000024080B582B0DD
:103D000000AF78600B46FB70094B9B8E9BB2084A54
:103D100043F030039BB293867B68FA789A74786894
:103D200000F038F8034618460837BD4680BD00BF8E
:103D30000000024080B483B000AF786000231846D2
:103D40000C37BD4680BC704780B483B000AF78604C
:103D5000002318460C37BD4680BC704780B584B040
:103D600000AF78607B685B691846FCF7FDFD034691
:103D7000FB73FB7B002B0CBF01230023DBB2002B6A
:103D800001D0002302E0FB7B43F08063184610372C
:103D9000BD4680BD80B584B000AF78607B6803F11C
:103DA00018017B68143330220020FCF76FFD0346B6
:103DB000FB73FB7B002B03D0FB7B43F080631DE098
:103DC0007B685B691846FCF74DFE0346FB73FB7B83
:103DD000002B03D0FB7B43F080630FE07B685B69C3
:103DE00008491846FCF756FE0346FB73FB7B002B85
:103DF00003D0FB7B43F0806300E0002318461037BC
:103E0000BD4680BDA086010080B58CB000AFF860D3
:103E10007B600B46FB721346BB72FB685A69FB68FA
:103E20009B7C9BB219461046FCF798FE0346FB7735
:103E3000FB7F002B03D0FB7F43F0806328E0BB7A3D
:103E40003B7407F110033B620123BB847B68BB62B8
:103E50003B8FBB85FB7A002B0CBF01230023DBB219
:103E600087F82E30012387F82F30FB685B6907F154
:103E7000180207F120011846FCF790FD0346FB7776
:103E8000FB7F002B01D1002302E0FB7F43F0806326
:103E900018463037BD4680BD90B589B002AF786016
:103EA0000B46FB700023BB810523FB827B681B68EC
:103EB00078331B68FA7811467868984703463B6167
:103EC0003B69002B01D03B6921E07B681B687C3398
:103ED0001C6807F10C020123009313460222002103
:103EE0007868A04703463B61642002F0CFFFFB8A5D
:103EF000013BFB823B7B012B03D0FB8A002B00D0D4
:103F0000E3E7FB8A002B01D1042300E03B6918465C
:103F10001C37BD4690BD90B589B002AF78600B46A6
:103F2000FB700523FB82FB1C3B617B681B681B68E5
:103F3000786898470346FB60322002F0A7FF7B6851
:103F40001B687C331C68012300933B69802201219C
:103F50007868A0470346FB604FF47A7002F096FF42
:103F6000FA787B689A747B685A697B689B7C9BB201
:103F700019461046FCF7F2FD3B6900221A707B6877
:103F80001B687C331C68012300933B6902220021DB
:103F90007868A0470346FB60642002F077FFFB8A45
:103FA000013BFB823B691B78002B03D1FB8A002B72
:103FB00000D0E4E77B681B680C331B68786898477F
:103FC000FB8A002B01D1042306E03B691B78032BFD
:103FD00001D10E2300E0FB6818461C37BD4690BD9A
:103FE00090B589B002AF786039600023BB810023AF
:103FF000FB827B681B687C331C6807F10C02022380
:1040000000931346042200217868A04703463B61D1
:10401000322002F03BFF7B681B687C331C6807F191
:104020000C02022300931346042200217868A04763
:1040300003463B613B7B1B021AB27B7B1BB21343E3
:10404000FB823B68FA8A1A803B6918461C37BD46DA
:1040500090BD90B589B002AF786039600023BB8114
:104060000023FB827B681B687C331C6807F10C0211
:10407000022300931346062200217868A0470346D6
:104080003B61322002F002FF7B681B687C331C68B6
:1040900007F10C02022300931346062200217868E0
:1040A000A04703463B613B7B1B021AB27B7B1BB2E2
:1040B0001343FB823B68FA8A1A803B6918461C3717
:1040C000BD4690BD90B587B002AF78600B467B804F
:1040D00000233B817B881B12DBB23B727B88DBB207
:1040E0007B727B681B687C331C6807F10802022323
:1040F00000931346072201217868A0470346FB601E
:104100004FF4FA7002F0D8FEFB6818461437BD462B
:1041100090BD90B589B002AF786039600023BB8153
:104120000023FB827B681B687C331C6807F10C0250
:10413000022300931346532200217868A0470346C8
:104140003B61322002F0A2FE7B681B687C331C6856
:1041500007F10C02022300931346532200217868D2
:10416000A04703463B613B7B5BB2002B01DAFF2398
:10417000FB82B7F916301B021AB23B7B1BB213430A
:10418000FB82B7F916301B021AB27B7B1BB21343BA
:10419000FB82FA8A3B681A803B6918461C37BD4689
:1041A00090BD90B587B002AF7860FF23FB727B684B
:1041B0001B687C331C6807F10B0201230093134634
:1041C000082201217868A0470346FB604FF4FA708B
:1041D00002F072FEFB6818461437BD4690BD90B5DC
:1041E00087B002AF7860FF23FB727B681B687C336B
:1041F0001C6807F10B020123009313460A220121D8
:104200007868A0470346FB604FF4FA7002F054FE52
:10421000FB6818461437BD4690BD90B587B002AF15
:1042200078600B46FB707B681B687C331C68FA1C4B
:104230000123009313460C2201217868A04703460E
:10424000FB604FF4FA7002F037FEFB681846143733
:10425000BD4690BD90B585B002AF786039607B688F
:104260001B687C331C68012300933B680E220021ED
:104270007868A047322002F009FE7B681B687C3317
:104280001C68012300933B680E2200217868A04738
:10429000034618460C37BD4690BD90B587B002AFB7
:1042A00078600B467B8000233B81B7F902301B12FC
:1042B000DBB23B727B88DBB27B727B681B687C3332
:1042C0001C6807F108020223009313461022012103
:1042D0007868A0470346FB604FF4FA7002F0ECFDEB
:1042E000FB6818461437BD4690BD90B589B002AF43
:1042F000786039600023BB810023FB827B681B68E8
:104300007C331C6807F10C0202230093134612222F
:1043100000217868A04703463B61322002F0B6FDD9
:104320007B681B687C331C6807F10C020223009336
:104330001346122200217868A04703463B613B7B6D
:104340005BB2002B01DAFF23FB82B7F916301B02A8
:104350001AB23B7B1BB21343FB82B7F916301B0228
:104360001AB27B7B1BB21343FB823B68FA8A1A802A
:104370003B6918461C37BD4690BD90B587B002AF6B
:104380007860396007F1080300210A461A800A465E
:104390009A703B681B0CDBB23B723B681B0ADBB2BA
:1043A0007B723B68DBB2BB727B681B687C331C682A
:1043B00007F10802032300931346192201217868AC
:1043C000A0470346FB604FF4FA7002F075FDFB68EE
:1043D00018461437BD4690BD90B589B002AF7860DD
:1043E000396007F10C0300210A461A800A469A70C8
:1043F00000237B617B681B687C331C6807F10C021F
:104400000323009313461B2200217868A04703462C
:104410003B61322002F03AFD7B681B687C331C68EC
:1044200007F10C020323009313461B220021786836
:10443000A04703463B613B7B1A047B7B1B02134373
:10444000BA7B13437B613B687A691A603B69184603
:104450001C37BD4690BD90B587B002AF78600B4663
:10446000FB707B681B687C331C68FA1C012300937B
:1044700013461C2201217868A0470346FB604FF4D5
:10448000FA7002F019FDFB6818461437BD4690BD5E
:1044900090B585B002AF786039607B681B687C336B
:1044A0001C68012300933B681D2200217868A04707
:1044B000322002F0EBFC7B681B687C331C68012314
:1044C00000933B681D2200217868A04703461846E8
:1044D0000C37BD4690BD90B587B002AF7860012320
:1044E000FB727B681B687C331C6807F10B0201239D
:1044F000009313461E2201217868A0470346FB6003
:104500004FF4FA7002F0D8FCFB6818461437BD4629
:1045100090BD90B585B002AF786039607B681B684C
:104520007C331C68F02300933B681F2200217868CD
:10453000A047642002F0AAFC7B681B687C331C68DF
:10454000F02300933B681F2200217868A0470346B0
:1045500018460C37BD4690BD90B585B002AF786067
:1045600039607B681B687C331C684FF47A73009356
:104570003B68252200217868A047962002F086FC3F
:104580007B681B687C331C684FF47A7300933B682C
:10459000252200217868A047034618460C37BD46FF
:1045A00090BD90B585B002AF786039607B681B68BC
:1045B0007C331C68012300933B68552200217868F6
:1045C000A047322002F062FC7B681B687C331C68C9
:1045D000012300933B68552200217868A0470346D9
:1045E00018460C37BD4690BD90B587B002AF7860D5
:1045F0000B46FB701346BB7000233B81FB78002BFE
:1046000002D0FB78032B01D90123FB70BB78092B67
:1046100002D9BB78C82B01D96423BB70FB783B72ED
:10462000BB787B727B681B687C331C6807F10802CF
:10463000022300931346452201217868A0470346D0
:10464000FB604FF4FA7002F037FCFB681846143731
:10465000BD4690BD90B589B002AFF860B960114613
:104660001A460B46FB711346BB71BB790A334FF4F4
:104670007A7202FB03F3134A82FB03129210DB17D8
:10468000D31A9BB25B00FB82FB681B687C331C68FF
:10469000FB8A0093BB6850220021F868A04796204F
:1046A00002F0F4FBFB681B687C331C68FB8A0093F8
:1046B000BB6850220021F868A047034618461C3703
:1046C000BD4690BD95204F0990B587B002AF786088
:1046D0000B46FB707B681B687C331C68FA1C01234B
:1046E00000931346512201217868A0470346FB60DE
:1046F0004FF4FA7002F0E0FBFB6818461437BD4631
:1047000090BD90B585B002AF786039607B681B685A
:104710007C331C68012300933B6852220021786897
:10472000A047322002F0B2FB7B681B687C331C6818
:10473000012300933B68522200217868A04703467A
:1047400018460C37BD4690BD90B589B002AF786071
:1047500039600023FB6000237B617B681B687C332E
:104760001C6807F10C020423009313463022002139
:104770007868A04703463B61322002F087FB7B68E4
:104780001B687C331C6807F10C020423009313465A
:10479000302200217868A04703463B613B7B1A0624
:1047A0007B7B1B041A43BB7B1B021343FA7B134323
:1047B0007B613B687A691A603B6918461C37BD46C5
:1047C00090BD90B587B002AF7860396000233B811F
:1047D0007B681B687C331C6807F108020223009386
:1047E0001346202200217868A0470346FB60322050
:1047F00002F04CFB7B681B687C331C6807F10802E5
:10480000022300931346202200217868A047034624
:10481000FB603B7A1B021AB27B7A1BB213431BB2BA
:104820009AB23B681A80FB6818461437BD4690BDA3
:1048300080B582B000AF7860054A7B681A607B68FB
:104840001846FFF721FA7B6818460837BD4680BD39
:1048500084A7010080B582B000AF78607868FFF768
:10486000E7FF4821786802F057FC7B681846083754
:10487000BD4680BD80B483B000AF7860044A7B68D9
:104880001A607B6818460C37BD4680BC704700BF75
:1048900040BB010080B582B000AF78607B681846ED
:1048A000FFF7E8FF034A7B681A607B681846083701
:1048B000BD4680BD14A8010080B582B000AF78600D
:1048C0007B681846FFF7E6FF034A7B681A607B683F
:1048D00018460837BD4680BD84A7010080B582B068
:1048E00000AF78603448FEF75BFE3448FEF758FEB0
:1048F0003348FEF755FE3348FEF752FE3248FEF7C6
:104900004FFE3248FEF74CFE3148FEF749FE314873
:10491000FEF746FE3048FEF743FE3048FEF740FE05
:104920002F48FEF73DFE2F48FEF73AFE2E48FEF7D1
:1049300037FE2E48FEF734FE2D48FEF731FE2A489A
:10494000FEF72EFE2B48FEF72BFE2B48FEF728FE27
:104950002A48FEF725FE2A48FEF722FE2948FEF7E0
:104960001FFE2948FEF71CFE2848FEF719FE2848BE
:10497000FEF716FE2748FEF713FE2748FEF710FE47
:104980002648FEF70DFE2648FEF70AFE2548FEF7EC
:1049900007FE2548FEF704FE2448FEF701FE2448E2
:1049A000FEF7FEFD2348FEF7FBFD2348FEF7F8FD6A
:1049B00000BF0837BD4680BDE0AA010010AB010072
:1049C00048AB010080AB0100C4AB010000AC0100AA
:1049D00048AC01008CAC0100DCAC010014AD01005E
:1049E00068AD0100A4AD0100E8AD010030AE0100EA
:1049F00070AE0100B4AE0100F4AE010034AF0100AE
:104A00006CAF0100B0AF0100ECAF010034B00100A9
:104A100080B00100C0B0010014B1010050B101002C
:104A200090B10100D8B1010018B2010060B20100DC
:104A3000A4B20100ECB2010028B3010080B485B03B
:104A400000AF78607B68FB600023BB60FB681B786D
:104A5000002B0ED0FB681B78202B02D10123BB60FA
:104A600002E0BB68002B03D1FB680133FB60EDE77C
:104A700000BFFB6818461437BD4680BC704780B441
:104A800085B000AF786039603B68FB607B68BB60D5
:104A9000FB681B78002B0DD0FB681B78202B08D0FF
:104AA000FA68531CFB60BB68591CB96012781A7015
:104AB000EEE700BFBB6800221A7000BF1437BD4686
:104AC00080BC704780B582B000AF0A4800F032F871
:104AD00078607B68002B03D07B680748984702E02A
:104AE0000648FEF75DFD00F00BF800BF0837BD4635
:104AF00080BD00BFCC1B0420CE1B04202CB30100C2
:104B000080B500AF084B1B78002B0BD10748FEF790
:104B100047FD0748FEF744FD034B1B780133DAB22B
:104B2000014B1A7000BF80BD3A3D042040B3010024
:104B300054B3010080B588B000AF78600023FB61FA
:104B40007B68BB6100237B6100233B610023FB602A
:104B5000BB691B78002B10D0BB691B78202B02D1BE
:104B600001233B6105E03B69002B02D1FB68013367
:104B7000FB60BB690133BB61EAE7104A7B6952F80D
:104B80002330002B15D00E4A7B6952F82330FA6887
:104B9000194678680DF022F90346002B05D1074A23
:104BA0007B6952F82330FB6103E07B6901337B6151
:104BB000E3E7FB6918462037BD4680BD6C02042040
:104BC0000C02042080B483B000AF786000BF0C37C3
:104BD000BD4680BC7047000080B590B002AF7860E1
:104BE0007B687B6307F10C0300221A605A609A60AD
:104BF000DA601A61786BFFF721FF78637B6B1B78B3
:104C0000002B14BF01230023DBB2002B06D007F1D9
:104C10002003796B1846FFF732FFEBE707F120031B
:104C20000222454918460DF0D9F80346002B07D15A
:104C3000424B01221A70424B1A78424B1A7039E0EB
:104C400007F120030222404918460DF0C7F8034639
:104C5000002B07D1394B02221A70394B5A78394B45
:104C60001A7027E007F120030222384918460DF098
:104C7000B5F80346002B07D1304B03221A70304B96
:104C80009A78304B1A7015E007F120030222304960
:104C900018460DF0A3F80346002B07D1274B04223A
:104CA0001A70274BDA78274B1A7003E02948FEF771
:104CB00077FC3EE0284B1868274B1B681B681033B5
:104CC0001B68204A1278114698470246234B1A6007
:104CD000224B1B68002B0FD02148FEF761FC1E4BB6
:104CE0001A681D4B1B681B680C331B6810469847DD
:104CF00002461A4B1A601CE0104B1B781A4607F14B
:104D00000C00184B00931346174A14210CF074FE44
:104D100007F10C031846FEF743FC0F4B1A680E4BC5
:104D20001B681B680C331B681046984702460B4BE8
:104D30001A603837BD4680BD80B301006C1C04206A
:104D4000E4A401006D1C042084B3010088B30100B9
:104D50008CB3010090B3010078010420201C0420D2
:104D6000A0B30100DCB30100C8B3010090B58DB061
:104D700004AF0346FB7107F1140300221A605A6066
:104D800000237B8200233B820023FB609F4B1A6839
:104D90009E4B1B681B6878331B68F979104698474F
:104DA00002469B4B1A609A4B1B68002B02D0984B13
:104DB0001B6827E1052002F069F80023FB77FB7FE1
:104DC000032B14D8FB7F934AD35CFA799A420AD119
:104DD000FB7F5A1C904B00931346904A4FF480710E
:104DE0008F480CF009FEFB7F0133FB77E7E78C4827
:104DF000FEF7D6FB052002F049F807F1140308215D
:104E0000184602F06EF8814B1A68804B1B681B68CD
:104E100034331B6807F114011046984702467C4B57
:104E20001A607B4B1B68002B02D0794B1B68E9E0B2
:104E30004FF480717A4802F054F83B7D1A46794B62
:104E400053F82220744B00931346774A4FF4807135
:104E500073480CF0D1FD7248FEF7A2FB052002F06A
:104E600015F807F114030821184602F03AF8674BC9
:104E70001A68664B1B681B686C331B6807F11401CA
:104E8000104698470246624B1A60614B1B68002B24
:104E900002D05F4B1B68B5E04FF48071604802F0B0
:104EA00020F83B7D1A46614B53F822205A4B009361
:104EB00013465F4A4FF4807159480CF09DFD5848E5
:104EC000FEF76EFB052001F0E1FF504B1A684F4BD7
:104ED0001B681B683C331B6807F11201104698479A
:104EE00002464B4B1A604A4B1B68002B02D0484BC2
:104EF0001B6887E04FF48071494801F0F2FFB7F971
:104F000012301A46444B009313464A4A4FF48071BC
:104F100043480CF071FD4248FEF742FB052001F0CA
:104F2000B5FF3A4B1A68394B1B681B6844331B6842
:104F300007F10C01104698470246354B1A60344B76
:104F40001B68002B02D0324B1B685BE04FF4807172
:104F5000334801F0C6FFFB68184609F0C5FF4FF063
:104F60000002354B0AF064F903460C462A4A0292C5
:104F7000CDE90034314A4FF4807129480CF03CFDF2
:104F80002748FEF70DFB052001F080FF1F4B1A6834
:104F90001E4B1B681B6824331B6807F11001104669
:104FA000984702461A4B1A60194B1B68002B02D017
:104FB000174B1B6826E04FF48071194801F091FFF0
:104FC0003B8A1A46144B009313461D4A4FF48071D6
:104FD00013480CF011FD1248FEF7E2FA052001F02B
:104FE00055FF0A4B1A68094B1B681B680C331B687A
:104FF000104698470246064B1A60052001F046FF0E
:10500000034B1B6818462437BD4690BD7801042029
:10501000201C0420E4A40100DCB30100E0B3010083
:10502000C81904208001042000B40100EC01042010
:1050300010B4010024B401000000594034B4010050
:1050400050B4010080B584B000AF0346FB7100236B
:10505000FB60174B1A68164B1B681B6878331B687C
:10506000F979104698470246124B1A60104B1A689D
:105070000F4B1B681B6870331B6807F10C0110464F
:10508000984702460B4B1A60094B1A68084B1B687D
:105090001B680C331B68104698470246054B1A6084
:1050A0000A2001F0F3FEFB6818461037BD4680BDAC
:1050B00078010420201C042080B586B002AF7860FF
:1050C0000023FB73FB7B032B1BD8FB7B0F4AD35CBA
:1050D000002B12D04FF480710D4801F002FFFB7BD2
:1050E0005A1C0C4B009313460B4A4FF4807108482E
:1050F0000CF082FC0648FEF753FAFB7B0133FB738E
:10510000E0E700BF1037BD4680BD00BF141C04207F
:10511000C8190420DCB3010070B4010080B584B06C
:1051200000AF78600023FB73FB7B032B11D8FB7B64
:105130000A4AD35C002B08D0FB7B094AD35C184693
:10514000FFF714FE0A2001F0A1FEFB7B0133FB7385
:10515000EAE700BF1037BD4680BD00BF141C042025
:10516000E4A4010090B589B004AF78600023FB810E
:10517000274B1868264B1B681B6878331B68254A29
:105180001278114698470246234B1A604FF48071FB
:10519000224801F0A6FE1E4B1A681D4B1B681B68B7
:1051A00018331B6807F10E011046984702461A4B48
:1051B0001A60194B1B68002B03D01948FEF7F0F951
:1051C00018E0B7F90E30184609F09EFE4FF00002C5
:1051D000144B0AF02DF803460C46134A0292CDE90F
:1051E0000034124A4FF480710C480CF005FC0B4857
:1051F000FEF7D6F9064B1A68054B1B681B680C3383
:105200001B681046984700BF1437BD4690BD00BFCD
:10521000780104206D1C0420201C0420C8190420DF
:1052200090B4010000005940DCB3010098B40100C3
:1052300090B589B004AF78600023FB81274B1868D4
:10524000264B1B681B6878331B68254A1278114669
:1052500098470246234B1A604FF48071224801F0B0
:1052600040FE1E4B1A681D4B1B681B681C331B68D5
:1052700007F10E011046984702461A4B1A60194B67
:105280001B68002B03D01948FEF78AF918E0B7F91C
:105290000E30184609F038FE4FF00002144B09F0AA
:1052A000C7FF03460C46134A0292CDE90034124A66
:1052B0004FF480710C480CF09FFB0B48FEF770F91F
:1052C000064B1A68054B1B681B680C331B6810469D
:1052D000984700BF1437BD4690BD00BF7801042039
:1052E0006D1C0420201C0420C819042090B4010067
:1052F00000005940DCB30100B4B4010080B58CB0AB
:1053000002AF78607B687B62002387F8223000233D
:10531000FB61786AFFF792FB78627B6A1B78002B4F
:1053200014BF01230023DBB2002B06D007F10803D2
:10533000796A1846FFF7A3FBEBE7002387F82330D1
:1053400097F8233007F12802134413F8203C002B70
:1053500019D097F8233007F12802134413F8203CA2
:10536000303B092B01D8012300E00023002B04D09F
:1053700097F82230013387F8223097F82330013331
:1053800087F82330DCE797F8222097F823309A42F9
:1053900009D107F108030A22002118460DF02EFE5C
:1053A0000346FB6102E02948FEF7FAF8FB69B3F512
:1053B000FA4F02D8FB69312B05D84FF4FA73FB6121
:1053C0002348FEF7EDF8234B1868224B1B681B6837
:1053D00078331B68204A12781146984702461F4BC3
:1053E0001A604FF480711E4801F07BFD194B1A685A
:1053F000184B1B681B6820331B68F96989B210467B
:1054000098470246154B1A60144B1B68002B03D0BB
:105410001448FEF7C5F80BE0134B0093FB69134AE1
:105420004FF480710E480CF0E7FA0D48FEF7B8F81B
:10543000084B1A68074B1B681B680C331B68104627
:10544000984700BF2837BD4680BD00BFCCB40100DF
:10545000DCB40100780104206D1C0420201C042011
:10546000C819042090B40100DCB3010004B50100A8
:1054700080B58CB002AF78607B687B62002387F8D0
:1054800022300023FB61786AFFF7D8FA78627B6AE2
:105490001B78002B14BF01230023DBB2002B06D0A6
:1054A00007F10803796A1846FFF7E9FAEBE70023EA
:1054B00087F8233097F8233007F12802134413F8B4
:1054C000203C002B19D097F8233007F12802134411
:1054D00013F8203C303B092B01D8012300E00023C6
:1054E000002B04D097F82230013387F8223097F848
:1054F0002330013387F82330DCE797F8222097F830
:1055000023309A420AD107F108030A2200211846E3
:105510000DF074FD0346DBB2FB6102E02848FEF7A4
:105520003FF8FB691A2B04D90123FB612548FEF7DC
:1055300037F8254B1868244B1B681B6878331B68A9
:10554000224A1278114698470246214B1A604FF4BE
:105550008071204801F0C5FC1B4B1A681A4B1B6870
:105560001B6830331B68F969C9B210469847024678
:10557000174B1A60164B1B68002B03D01648FEF71A
:105580000FF80FE0154AFB6952F82320144B0093E3
:105590001346144A4FF480710E480CF02DFA0D4852
:1055A000FDF7FEFF084B1A68074B1B681B680C339E
:1055B0001B681046984700BF2837BD4680BD00BF16
:1055C000CCB4010028B50100780104206D1C042032
:1055D000201C0420C819042090B40100800104207C
:1055E000DCB3010050B5010080B58CB002AF78602B
:1055F0007B687B62002387F822300023FB61786A96
:10560000FFF71CFA78627B6A1B78002B14BF01231A
:105610000023DBB2002B06D007F10803796A184695
:10562000FFF72DFAEBE73B7A2D2B04D197F82230C8
:10563000013387F82230002387F8233097F823308E
:1056400007F12802134413F8203C002B19D097F8D7
:10565000233007F12802134413F8203C303B092B78
:1056600001D8012300E00023002B04D097F822305A
:10567000013387F8223097F82330013387F823303D
:10568000DCE797F8222097F823309A4208D107F1F7
:1056900008030A22002118460DF0B0FCF86102E070
:1056A0002948FDF77DFFFB6940F69802934203DC31
:1056B000FB69264A934204DA0023FB612448FDF784
:1056C0006FFF244B1868234B1B681B6878331B68DB
:1056D000214A1278114698470246204B1A604FF42F
:1056E00080711F4801F0FDFB1A4B1A68194B1B68AB
:1056F0001B6838331B68F96909B21046984702469F
:10570000164B1A60154B1B68002B03D01548FDF78C
:1057100047FF0BE0144B0093FB69144A4FF4807170
:105720000F480CF069F90E48FDF73AFF094B1A686B
:10573000084B1B681B680C331B681046984700BF5A
:105740002837BD4680BD00BFCCB4010068F7FFFF1D
:1057500074B50100780104206D1C0420201C042075
:10576000C819042090B40100DCB301009CB501000D
:10577000B0B58EB004AF78607B687B62002387F899
:105780002230002387F821304FF00003FB61786A54
:10579000FFF754F978627B6A1B78002B14BF012352
:1057A0000023DBB2002B06D007F10803796A184604
:1057B000FFF765F9EBE7002387F8233097F82330EC
:1057C00007F12802134413F8203C002B2CD097F843
:1057D000233007F12802134413F8203C303B092BF7
:1057E00001D8012300E00023002B04D097F82230D9
:1057F000013387F8223097F8233007F12802134449
:1058000013F8203C2E2B09D197F82230013387F86A
:10581000223097F82130013387F8213097F8233070
:10582000013387F82330C9E797F8222097F823300F
:105830009A420BD107F10803002118460DF0FEFA39
:10584000F86197F82130012B08D903E03548FDF7BE
:10585000A7FE63E03348FDF7A3FE5FE04FF08E4103
:10586000F86909F07FFF0346002B07D14FF00001D4
:10587000F86909F063FF0346002B03D02A48FDF7BF
:105880008FFE4BE0294B1868284B1B681B68783348
:105890001B68274A1278114698470246254B1A6022
:1058A0004FF48071244801F01CFB204B1D681F4BF6
:1058B0001B681B6840331C682049F86909F0A0FD8B
:1058C0000346184609F062FF034619462846A047DA
:1058D0000246184B1A60174B1B68002B03D0184860
:1058E000FDF75EFE11E0F86909F020FB03460C4667
:1058F000144A0292CDE90034134A4FF480710E48E5
:105900000CF07AF80C48FDF74BFE084B1A68074B71
:105910001B681B680C331B68104698472837BD4628
:10592000B0BD00BFCCB40100B8B5010078010420BF
:105930006D1C0420201C0420C81904200000C8424B
:1059400090B40100DCB30100C8B5010080B582B09D
:1059500000AF7860334B1868324B1B681B68783394
:105960001B68314A12781146984702462F4B1A603D
:105970004FF480712E4801F0B4FA2A4B1A68294B73
:105980001B681B6850331B68104698470246274B1C
:105990001A60264B1B68002B0CD02648FDF700FE32
:1059A000204B1A681F4B1B681B680C331B68104682
:1059B000984733E0204B214A4FF480711C480CF08B
:1059C0001BF81B48FDF7ECFD4FF48071184801F0FF
:1059D00088FA194B1A4A4FF4807115480CF00CF8EC
:1059E0001348FDF7DDFD4FF48071114801F079FA9D
:1059F000114B144A4FF480710D480BF0FDFF0C4819
:105A0000FDF7CEFD074B1A68064B1B681B680C336D
:105A10001B68104698470C4B01221A700837BD4688
:105A200080BD00BF780104206D1C0420201C0420D0
:105A3000C819042090B40100DCB30100F4B50100E2
:105A40002CB6010064B60100191C0420F0B58DB01D
:105A500008AF7860864B1868854B1B681B687833E5
:105A60001B68844A1278114698470246824B1A6096
:105A70004FF48071814801F034FA4FF480620021C4
:105A80007F480BF0F7FC4FF4806200217D480BF05B
:105A9000F1FC774B1A68764B1B681B6854331B6804
:105AA0007749104698470246734B1A600023FB6003
:105AB000FB683B2B25DCFB689B00714AD25C724B78
:105AC0001A70FB689B0001336D4AD25C6E4B5A70B2
:105AD000FB689B0002336A4AD25C6B4B9A70FB688E
:105AE0009B000333664AD25C674BDA70FB689B000D
:105AF000644A1344644A12681A60FB680133FB600D
:105B0000D6E75D4B1B68002B0CD06048FDF748FDC5
:105B1000574B1A68564B1B681B680C331B681046A2
