:1000000000400020814B0000BD4B0000C54B0000AC
:10001000BD4B0000BD4B0000BD4B000000000000C8
:10002000000000000000000000000000BD4B0000C8
:10003000BD4B000000000000BD4B0000BD4B0000A8
:100040001D2900002D4B00003B4B0000494B0000D8
:10005000594B0000BD4B00005D1C0000111C00004E
:10006000552600009D150000AD1500005539000013
:1000700063390000E90F000049420000112E000022
:10008000412E0000BD4B00005D180000050F000070
:10009000292F0000492F0000653500007D35000044
:1000A000592E0000792E0000C12E0000E12E000024
:1000B0006945000091450000BD4B0000BD4B0000AC
:1000C000BD4B0000310C0000090D0000551100006F
:1000D000353500004D350000F50A0000BD4B00002D
:1000E000713900006D1B0000292E0000091B000063
:1000F0005D1E0000550400005502000000000000D5
:1001000000000000000000000000000000000000EF
:1001100000000000000000000000000000000000DF
:10012000BD4B0000BD4B0000BD4B0000BD4B0000AF
:10013000BD4B0000BD4B0000BD4B0000BD4B00009F
:10018000FFFFFFFFFFFFFFFFFFFFFFFFFFFFFFFF7F
:1001900003329CA77F000000FFFFFFFFFFFFFFFF70
:1001A00010B5054C237833B9044B13B10448AFF3B1
:1001B00000800123237010BD001004200000000007
:1001C000CC3D010008B5034B1BB103490348AFF315
:1001D000008008BD0000000004100420CC3D010098
:1001E000154B002B08BF134B9D46A3F5803A002109
:1001F0008B460F461348144A121A0BF0C9FD0F4BD9
:10020000002B00D098470E4B002B00D098470020C1
:10021000002104000D000D48002802D00C480EF00B
:1002200009FD0BF059FA2000290005F0E7F80BF062
:1002300043FA00BF0000080000400020000000005A
:100240000000000000100420C81D042035EC000050
:100250008DFC000080B584B000AF7D4B1B68BB6097
:10026000BB685B689B8C9BB2DBB2002B14D0BB6875
:100270001B6803F02003002B05D1BB685B690221DA
:10028000B868984708E0BB685B689B8C9AB2BB680B
:100290005B68D2B292B29A84BB685B689B8C9BB25B
:1002A00003F47F43002B73D0BB685B689B8C9BB2CD
:1002B0001BB2002B15DABB681B6843F00402BB6855
:1002C0001A60BB685B684FF400429A84BB68DB68C5
:1002D000002B06D0BB68DB68BA6890680022012159
:1002E0009847BB685B689B8C9BB203F48043002BF0
:1002F00015D0BB681B6843F48072BB681A60BB688A
:100300005B684FF480429A84BB68DB68002B06D0A0
:10031000BB68DB68BA689068002200219847BB6818
:100320005B689B8C9BB203F48073002B0AD0BB6884
:100330001B6843F40072BB681A60BB685B684FF4CB
:1003400080729A84BB685B689B8C9BB203F40073D9
:10035000002B0AD0BB681B6843F40052BB681A60CC
:10036000BB685B684FF400729A84BB685B689B8CC7
:100370009BB203F48063002B0AD0BB681B6843F474
:100380008042BB681A60BB685B684FF480629A84E5
:10039000BB685B681B8D9BB2002B12D0BB685B688F
:1003A0001B8DFB80BB681B6803F02003002B04D16E
:1003B000BB685B690321B8689847BB685B68FA88CB
:1003C0001A85BB685B689B8D9BB2002B3BD0BB68DA
:1003D0005B689B8D9BB23B60BB681B6803F020038E
:1003E000202B2BD1BB68DB68002B27D00023FB60C0
:1003F00021E0FB685B0001229A403B681340002B20
:1004000006D0BB68DB68BA689068FA680321984731
:10041000FB685B00013301229A403B681340002BCC
:1004200006D0BB68DB68BA689068FA680421984710
:10043000FB680133FB60FB68032BDAD9BB685B68A0
:100440003A6892B29A8500BF1037BD4680BD00BFA2
:100450000000042090B587B000AF524B3B613B6970
:100460001B68FB604FF47C43FB823B695B681B7835
:10047000DBB2002B00F08280FB681B889BB223F468
:100480007F7323F003039CB22346FB82FB689B88A7
:100490009BB223409CB2234603F40843002B28D090
:1004A0003B695B681B783B695B681433184601F055
:1004B000A7FC3B695B681B78DAB23B695B6822F09A
:1004C0000C02D2B21A70FB681B889BB223F48073B3
:1004D0009AB2FB681A803B695B685B68002B08D0A6
:1004E0003B695B685B683A69526890682146002204
:1004F000984704F480539BB2002B3FD03B695B6864
:10050000BB60BB681B7CDAB2BB685B7C9A4235D2AD
:10051000BB68D968BB681B7CDBB23A1D5B000B442F
:100520001B881380BB681B7CDBB20133DAB2BB686B
:100530001A74BB68D968BB681B7CDBB23A465B00A7
:100540000B441B881380BB681B7CDBB20133DAB21F
:10055000BB681A743B799BB21B029AB27B799BB23F
:1005600013439AB2FB681A813B789BB21B029AB282
:100570007B789BB213439AB2FB689A81FB689B8895
:100580009BB21AB2B7F9163023F47F7323F003033A
:100590001BB213431BB29AB2FB689A8000BF1C3790
:1005A000BD4690BD1C10042080B582B000AF7860BD
:1005B0007B685B681A687B685B6822F00C021A60D3
:1005C0007B685B680022DA60786800F07AFA7B6802
:1005D0005B681A687B685B6822F001021A607B68BE
:1005E00000221A7000BF0837BD4680BD80B487B0B6
:1005F00000AF78607B680C333B617B689B689B7ABB
:100600001A4601239340FB60844AFB68C2F8143801
:10061000824AFB68C2F81C38804AFB6893627F4AB2
:10062000FB6853623B695B69002B5AD07B4AFB68CD
:1006300053637B4B1A687B689B689B7A1B0113444E
:10064000BB603B695B691A463B699B6923F0030306
:1006500013441A1FBB681A607B685B6814331A4620
:10066000BB685A603B699B699B087B613B691B6A5D
:10067000002B07D17B69013B1A016A4B1343BA680F
:10068000936084E07B69013B1A01674B1343BA68AE
:100690009360624AFB68D363644B1A687B689B680B
:1006A0009B7A1B011344BB603B69DB691A463B69BB
:1006B0001B6A23F0030313441A1FBB681A607B688C
:1006C0005B6814331A46BB685A603B691B6A9B0817
:1006D0007B617B69013B1A01524B1343BA689360FB
:1006E00055E04E4AFB6853634D4B1A687B689B6824
:1006F0009B7A1B011344BB603B691B68B3F1007F0D
:1007000029D13B691B6A9B087B613B691B6AB3F576
:10071000805F0ED94FF480637B613B69DB691A46C9
:100720007B6903F18043013B9B001A44BB681A605C
:1007300020E03B69DB691A463B691B6A23F003032F
:100740001344A3F10802BB681A603B691B6A9B084B
:10075000013B7B610EE03B69DB691A463B691B6A22
:1007600023F0030313441A1FBB681A603B691B6A1A
:100770009B087B617B685B6814331A46BB685A60D0
:100780007B69013B1A01274B1343BA6893603B69AD
:100790001B68B3F1007F3BD07B689B68DB7A1A460D
:1007A00001239340FB601D4AFB68C2F814381B4AC2
:1007B000FB68C2F81C38194AFB689362174AFB6849
:1007C0005362164AFB685363154B1A687B689B6833
:1007D000DB7A1B011344BB607B685B6818331A46E5
:1007E000BB681A603B695B6A1A463B699B6A23F0E7
:1007F000030313441A1FBB685A603B699B6A9B083A
:100800007B617B69013B1A01094B1343BA68936012
:1008100000BF1C37BD4680BC704700BF00000140D0
:10082000AC330100018000CA038000CAB03301006C
:100830000180008E80B487B000AF786039607B683B
:100840000C33FB603B68DB0903F00703C3F10403CF
:100850007B61FB689B69002B1CD012E0FB685A6926
:100860007B685B6812685A61FB685B691A1DFB68EC
:100870005A61FB689B691A1FFB689A617B69013B9F
:100880007B617B69002B00F09080FB689B69002BEB
:10089000E4D18AE0FB681B68B3F1007F7ED1FB687E
:1008A0001B6A3F2B3AD90023FB740DE0FB68DA6921
:1008B0007B685B6812685A61FB68DB691A1DFB681C
:1008C000DA61FB7C0133FB74FB7C0F2BEED9FB68F8
:1008D0009B6BB3F5007F06D3FB689B6BA3F500729F
:1008E000FB689A6302E0FB6800229A63FB681B6A5C
:1008F000A3F14002FB681A6257E0FB68DA697B6883
:100900005B6812685A61FB68DB691A1DFB68DA6173
:10091000FB689B6BA3F12002FB689A63FB689B6BEF
:100920001F2BEAD8FB689B6B5A007B685B6842F020
:1009300001021A67FB689B6B002B04D17B685B6824
:1009400000225A610AE0FB68DA697B685B6812681A
:100950005A61FB68DB691A1DFB68DA61FB680022DB
:100960009A63FB6800221A62FB689B6AA3F120026B
:10097000FB689A6219E0FB68DA697B685B68126859
:100980005A61FB68DB691A1DFB68DA61FB681B6A48
:100990001A1FFB681A627B69013B7B617B69002B34
:1009A00003D0FB681B6A002BE5D100BF1C37BD4696
:1009B00080BC704780B485B000AF786039607B68D8
:1009C0000C33BB60BB681B68B3F1007F48D13B6848
:1009D00003F02003002B68D0BB689B6A002B64D116
:1009E0007B685B681A6DBB685B6A12BA1A607B68C9
:1009F0005B685A6DBB685B6A043312BA1A607B6825
:100A00005B689A6DBB685B6A083312BA1A607B68D0
:100A10005B68DA6DBB685B6A0C3312BA1A607B687C
:100A20005B681A6EBB685B6A103312BA1A607B6827
:100A30005B685A6EBB685B6A143312BA1A607B68D3
:100A40005B689A6EBB685B6A183312BA1A607B687F
:100A50005B68DA6EBB685B6A1C3312BA1A6024E00A
:100A60003B6803F00203002B1FD03B689B0A03F096
:100A70000703FB6012E07B685A68BB685B6A926997
:100A80001A60BB685B6A1A1DBB685A62BB689B6AC6
:100A90001A1FBB689A62FB68013BFB60FB68002B76
:100AA00003D0BB689B6A002BE5D1BB689B6A002B17
:100AB00002D17B6801229A7000BF1437BD4680BC0A
:100AC000704780B483B000AF78607B685B681A6859
:100AD0007B685B6842F030021A607B685B681A686A
:100AE0007B685B6822F030021A6000BF0C37BD469D
:100AF00080BC704780B584B000AF4C4B5B68BB6076
:100B0000BB680C337B60BB685B681B693B60BB6880
:100B10005B683A681A613B6803F00403002B13D04A
:100B2000BB68DB6C002B06D0BB68DB6CBA68106D51
:100B30003A680A219847B868FFF736FDBB68583312
:100B4000184601F05DF96DE03968B868FFF732FFCB
:100B5000BB689B7883F00103DBB2002B14D07B6869
:100B60001B68B3F1007F0AD1BB685B7883F0010397
:100B7000DBB2002B03D17B681B6A002B52D1396892
:100B8000B868FFF757FE4DE0BB68DB6C002B40D028
:100B90003B6803F00403002B02D00A23FB602DE026
:100BA000BB68DB68B3F5802F13D0B3F5802F06D870
:100BB000B3F5803F19D0B3F5003F13D01BE0B3F578
:100BC000801F0CD0B3F1007F12D0B3F5002F03D0FB
:100BD00011E00023FB6011E00123FB600EE0022323
:100BE000FB600BE00323FB6008E00423FB6005E0EF
:100BF0000623FB6002E00B23FB6000BFBB68DB6CDD
:100C0000BA68106DBA68926CF9689847BB680022A0
:100C10009A64BB685B680022DA60BB685833184688
:100C200001F0EEF81037BD4680BD00BF080004207B
:100C300080B584B000AF334B5B687B607B680C335E
:100C40003B603B681B68B3F1007F57D13B681B6A70
:100C5000FB60FB689B08013BBB603B681B6AB3F50C
:100C6000805F05D94FF48053FB604FF48063BB6015
:100C70003B681A6ABB689B00D21A3B681A623B68E1
:100C80009A6BBB685B01D21A3B689A633B68DA696E
:100C9000BB689B001A443B68DA613B681B6A082BFF
:100CA00013D97B685B681A687B685B6822F0040272
:100CB0001A607868FFF79AFC7B685B681A687B6843
:100CC0005B6842F004021A6018E0FB6803F03F031F
:100CD000002B0CD13B68DA697B685B6812685A614B
:100CE0003B6800221A623B6800229A6306E07B6838
:100CF0005B681B6919467868FFF79CFD00BF1037D9
:100D0000BD4680BD0800042080B584B000AF2E4BE6
:100D10005B68BB60BB685B681B697B60BB68DB6C46
:100D2000002B40D07B6803F00403002B02D00A2381
:100D3000FB602DE0BB68DB68B3F5802F13D0B3F503
:100D4000802F06D8B3F5803F19D0B3F5003F13D0FC
:100D50001BE0B3F5801F0CD0B3F1007F12D0B3F5C8
:100D6000002F03D011E00023FB6011E00123FB60A2
:100D70000EE00223FB600BE00323FB6008E004238A
:100D8000FB6005E00623FB6002E00B23FB6000BF75
:100D9000BB68DB6CBA68106DBA68926CF9689847EA
:100DA000BB6800229A64BB6801229A70BB685B68CA
:100DB0007A681A61BB685833184601F021F800BF01
:100DC0001037BD4680BD00BF0800042080B483B04A
:100DD00000AF0346FB7197F90730002B0BDBFB7963
:100DE00003F01F02064997F907305B09012000FA5A
:100DF00002F241F8232000BF0C37BD4680BC70478B
:100E000000E100E080B584B000AF0023FB60EFF3A9
:100E100010837B607B68FB6072B61B4B1B7883F092
:100E20000103DBB2002B26D0174B01221A70174B9F
:100E30005B68164A43F001035360154A134B9A60EE
:100E40001320FFF7C3FF6FF07843BB600F4ABB6806
:100E500013620E4ABB68D3620C4ABB6853630B4AE9
:100E6000BB68D363094ABB689364084ABB68D36410
:100E7000064ABB681365FB683B603B6883F31088D8
:100E800000BF1037BD4680BD00180420000001409F
:100E90000014042080B489B000AF0346B9607A60C2
:100EA000FB730023FB77164AFB7BDB001344043300
:100EB000BB61BB69BA681A60BB697A685A60FB7B20
:100EC000012202FA03F37B61BB68002B08D00C4BB4
:100ED000D3F8DC200A497B691343C1F8DC3008E011
:100EE000074BD3F8DC207B69DB4305491340C1F88D
:100EF000DC30FB7F18462437BD4680BC704700BFFE
:100F00000018042080B58AB000AF2C4BDB6CFB616D
:100F10002A4B9B6CBB61294B1B6D7B61284BD3F823
:100F2000DC20B9697B690B4313407B627B6A002B31
:100F300037D020233B617B6AB3FA83F33B622CE01A
:100F40003A693B6AD31A013BFB600122FB6802FA53
:100F500003F3BB601A4AFB68DB00134404337B6075
:100F60007B681B68002B0FD0BA69BB681340002B4D
:100F700001D0012300E002233B607B681B687A6894
:100F80005068002239689847BB68DB437A6A13408F
:100F90007B627B6AB3FA83F33B623A6A3B699A42AB
:100FA000CED3064ABB699364044A7B691365034A3E
:100FB000FB69D36400BF2837BD4680BD00000140F7
:100FC0000018042080B483B000AF7860396000BF9F
:100FD0007B681B681A683B681340002BF8D100BF80
:100FE0000C37BD4680BC704780B582B000AF00238F
:100FF000FB710023BB71544BDB683B603B681B6893
:101000001A683B685A613B681B683A6852691A6003
:101010003B685A694D4B13403A6893613B689B6942
:10102000002B01D00123BB71BB7983F00103DBB23C
:10103000002B45D03B685B6903F00803002B36D0DA
:101040003B689B6A002B2BD03B681A6A3B681B6885
:10105000DA603B681B6A03F108023B681A623B686E
:101060005A6A3B681B6812681A613B685B6A1A1D02
:101070003B685A623B685A6A3B681B6812685A614F
:101080003B685B6A1A1D3B685A623B689B6AA3F126
:1010900008023B689A623B681B6804229A6011E070
:1010A00001213868FFF78EFF0123FB710AE03B68DE
:1010B0005B6903F00403002B04D00123FB7101E002
:1010C0000123FB71FB79002B39D03B681B685A6800
:1010D0003B681B6822F007025A603B681B681C4A89
:1010E0001A623B681B681A6B3B681B6822F003029C
:1010F0001A633B681B6800221A623B6800225A7719
:101100003B689B68002B15D0BB7983F00103DBB2F1
:10111000002B07D03B689B683A68D068002200210A
:10112000984707E03B689B683A68D0683A689269DC
:10113000012198473B682C33184600F061FE00BF40
:101140000837BD4680BD00BF18000420F0AF01384D
:1011500065756C6780B582B000AF314BDB687B6032
:101160007B681B681A687B685A617B681B687A68B1
:1011700052691A607B685A692A4B13407A689361F6
:101180007B681B68284A1A627B681B681A6B7B683D
:101190001B6822F003021A637B681B6800221A6234
:1011A0007B6800229A627B6800225A777B689B6882
:1011B000002B2CD07B689B69002B0CD17B681B7F9C
:1011C000DBB2002B07D17B689B687A68D06800226D
:1011D000002198471BE07B689B69002B08D17B6846
:1011E0009B687A68D0687A689269012198470EE016
:1011F0007B681B7FDBB2002B09D17B689B687A6818
:10120000D0687A68127FD2B21146002298477B6874
:101210002C33184600F0F4FD00BF0837BD4680BDF2
:1012200018000420F0AF013865756C6780B483B096
:1012300000AF0346FB7197F90730002B0BDBFB79FE
:1012400003F01F02064997F907305B09012000FAF5
:1012500002F241F8232000BF0C37BD4680BC704726
:1012600000E100E080B483B000AF0346FB7197F962
:101270000730002B10DBFB7903F01F02094997F9B7
:1012800007305B09012000FA02F2203341F82320E5
:10129000BFF34F8FBFF36F8F00BF0C37BD4680BCCD
:1012A000704700BF00E100E080B584B000AF786017
:1012B0003960144BDB68002B1ED1124A7B68D36067
:1012C0000023FB600FE00F4BDB68FA68002143F856
:1012D00032100C4BDA68FB68DB00134400225A60C2
:1012E000FB680133FB60FB68012BECD90920FFF799
:1012F0009DFF0A20FFF79AFF002318461037BD46CE
:1013000080BD00BF2800042080B500AF0920FFF792
:10131000A9FF0A20FFF7A6FF024B0022DA60002394
:10132000184680BD2800042080B487B000AF034673
:10133000FB710B46BB711346BB8000237B61FB79BD
:10134000114A52F823303B61EFF31083FB60FB68D6
:101350007B6172B6BB79092B02D00A2B04D007E05F
:101360003B69BA881A8503E03B69BA889A8500BF51
:101370007B69BB60BB6883F31088002318461C3769
:10138000BD4680BC704700BF2800042080B485B0F3
:1013900000AF03463A60FB710B46BB710023FB8133
:1013A000FB790D4A52F82330BB60BB79092B02D080
:1013B0000A2B04D007E0BB681B8DFB8103E0BB68F0
:1013C0009B8DFB8100BF3B68FA891A800023184679
:1013D0001437BD4680BC70472800042080B485B017
:1013E00000AF03460A46FB711346BB80FB79064AF1
:1013F00052F82330FB60FB68BA889A8400231846B1
:101400001437BD4680BC70472800042080B485B0E6
:1014100000AF03463960FB71FB79074A52F823306D
:10142000FB60FB689B8C9AB23B681A8000231846CD
:101430001437BD4680BC70472800042080B487B0B4
:1014400000AF0346FB710B46BB801346BB71002304
:101450007B61FB79154A52F823303B61EFF310832F
:10146000FB60FB687B6172B6BB79002B08D03B69DF
:101470009B899AB2BB8813439AB23B699A8109E06F
:101480003B699B899AB2BB88DB439BB213409AB2FB
:101490003B699A817B69BB60BB6883F3108800233A
:1014A00018461C37BD4680BC704700BF280004208A
:1014B00080B489B000AF0346B9607A60FB73002343
:1014C000FB830023BB61FB7B9BB2093BFB83EFF3F8
:1014D00010833B613B69BB6172B60C4BDB68FA8BD6
:1014E000B96843F83210094BDA68FB8BDB00134410
:1014F0007A685A60BB697B617B6983F3108800233B
:1015000018462437BD4680BC704700BF2800042021
:1015100080B586B000AF03460A46FB711346BB7127
:101520001D4BDA68FB79DB0013443B610023FB753C
:101530002BE0FB7D184A52F82330FB6097F9063008
:10154000092B03D1FB681B8DBB8202E0FB689B8DDE
:10155000BB82FB681B8E9AB2BB8A13409BB27B8115
:101560007A89FB681A863B691B68002B0AD07B8945
:10157000002B07D03B691B683A695068F97D07F179
:101580000A029847FB7D0133FB75FB7D022BD0D906
:1015900000BF1837BD4680BD2800042080B500AFCD
:1015A00009210020FFF7B4FF00BF80BD80B500AF68
:1015B0000A210120FFF7ACFF00BF80BD80B483B0DB
:1015C00000AF0346FB7197F90730002B10DBFB7966
:1015D00003F01F02094997F907305B09012000FA5F
:1015E00002F2203341F82320BFF34F8FBFF36F8FF8
:1015F00000BF0C37BD4680BC704700BF00E100E073
:1016000080B485B000AF78607B681B68B3F84C305D
:101610009BB21B119BB203F003039BB2C3F1020305
:10162000FB8116E07B685B691B78DAB27B681B681C
:1016300092B29A817B685B695A1C7B685A617B68AD
:101640001B8B9BB2013B9AB27B681A83FB89013BDF
:10165000FB817B681B8B9BB2002B02D0FB89002B8C
:10166000E0D17B681B8B9BB2002B29D17B681B8D43
:101670009BB2002B1CD07B681B687A68D2891A83C6
:101680001EE07B68DB691B78DAB27B681B6892B26C
:101690009A817B68DB695A1C7B68DA617B681B8CEA
:1016A0009BB2013B9AB27B681A84FB89013BFB81A8
:1016B0007B681B8C9BB2002B02D0FB89002BE0D1F6
:1016C0007B681B8C9BB2002B03D17B681B680422B8
:1016D0009A8000BF1437BD4680BC704780B485B087
:1016E00000AF78607B681B68B3F84C309BB29B11ED
:1016F0009BB203F00303FB8139E0FB89013BFB81D3
:101700007B681B681B899AB27B685B6AD2B21A70CD
:101710007B685B6A5A1C7B685A627B681B689B8A81
:101720009BB2002B23D17B681B8D9BB2B3F5807FCE
:101730000DD97B681B684FF480721A827B681B8D01
:101740009BB2A3F580739AB27B681A850FE07B6821
:101750001B8D9BB2002B0AD07B681B8D9AB27B68D5
:101760001B68013A92B21A827B6800221A85FB89B3
:10177000002BC2D100BF1437BD4680BC70470000AB
:1017800080B582B000AF786000BF0D4B1B881A4651
:101790007B681B689B889BB203F488639A42F4D1F0
:1017A0007B685B6893F900301846FFF707FF7B689A
:1017B0001B68044A12881A8000BF0837BD4680BDE6
:1017C000E01804204800042080B483B000AF7860A3
:1017D000214B1B881A467B681B8903F010039A4231
:1017E00008D07B6893F82B3043F00103DAB27B68B2
:1017F00083F82B20184B1B881A467B681B8903F043
:1018000080039A4208D07B6893F82B3043F00203A0
:10181000DAB27B6883F82B200F4B1B881A467B6853
:101820001B8903F020039A4208D07B6893F82B3081
:1018300043F00403DAB27B6883F82B207B6893F8CB
:101840002B30002B03D17B68082283F82B2000BFAC
:101850000C37BD4680BC7047E018042080B582B0CC
:1018600000AF0023FB712A4BDB683B603B681B68C1
:101870009B889AB23B681A813B689B7A002B07D001
:101880003B681B683A68D2891A833B6800229A72C7
:10189000204B1B881A463B681B8903F004039A42BD
:1018A00002D03868FFF7ACFE1A4B1B881A463B681B
:1018B0001B8903F008039A4202D03868FFF70EFF35
:1018C000144B1B881A463B681B8903F0B0039A42ED
:1018D00004D03868FFF778FF0123FB710D4B1B889C
:1018E0001A463B681B8903F480739A4204D0386817
:1018F000FFF746FF0123FB71FB79002B04D03B6807
:101900002C33184600F07CFA00BF0837BD4680BD76
:1019100038000420E018042080B483B000AF0346F0
:10192000FB7197F90730002B0BDBFB7903F01F02EB
:10193000064997F907305B09012000FA02F241F8E5
:10194000232000BF0C37BD4680BC704700E100E09B
:1019500080B500AF284B4CF61432DA60264B0222D9
:101960001A61264B00221A60234B4CF61432DA60BF
:10197000214B1B69204A43F00203136100BF1E4B39
:101980001B6903F40073002BF9D01D4B1B681C4A24
:1019900023F0030313601A4B00221A60184B194AF4
:1019A0005A60174B46F61A02DA60154B1F225A612D
:1019B000154B00221A60144B00229A60124B002231
:1019C0005A640D4B4CF61432DA600B4B1B690A4A11
:1019D00023F0040313610620FFF79EFF0720FFF7A3
:1019E0009BFF2920FFF798FF2B20FFF795FF03F0BF
:1019F000F3F80023184680BD00C10440E418042019
:101A000000C304400404100000C0044080B584B04A
:101A100000AF03463960FB7103F0DEF8134B1B681F
:101A2000BB60FB79002B07D0012B0CD1104B5B68FE
:101A300003F03F03FB6008E00D4B5B681B0A03F0FB
:101A40003F03FB6001E004230BE0FB68002B01D1A6
:101A50000123FB60BA68FB68B2FBF3F23B681A60D3
:101A6000002318461037BD4680BD00BF181904205A
:101A700000C3044080B588B000AF03460A46FB713E
:101A80001346BB8000237B61FB79012B04D0022B22
:101A90000ED0002B05D012E03F23FB61BB88BB6159
:101AA0000FE04FF47C53FB61BB881B02BB6108E075
:101AB0004FF47F03FB61BB881B04BB6101E004237F
:101AC0001CE0EFF31083BB60BB687B6172B60D4B0B
:101AD0005B683B61FB69DB433A6913403B613A69F0
:101AE000BB6913433B61074A3B6953607B69FB60F9
:101AF000FB6883F3108803F06FF800231846203743
:101B0000BD4680BD00C3044080B582B000AF144B19
:101B10009B6903F006037B60124B1B68002B18D0F7
:101B20007B6803F00403002B07D00E4B1B680E4AA2
:101B300010680022082198470BE07B6803F002033D
:101B4000002B06D0074B1B68074A106800220721AC
:101B50009847034A7B68936100BF0837BD4680BD44
:101B600000C30440E4180420E818042080B582B0C3
:101B700000AF244B9B6903F4CC433B6000237B60A4
:101B8000214B1B68002B33D03B68002B30D03B68C7
:101B900003F48043002B04D07B6843F004037B6094
:101BA0001CE03B6803F40053002B04D07B6843F037
:101BB00003037B6012E03B6803F40073002B04D046
:101BC0007B6843F005037B6008E03B6803F48063B7
:101BD000002B03D07B6843F006037B607B68002BFF
:101BE00006D0094B1B68094A10680022796898479B
:101BF0003B68002B02D0034A3B68936100BF083763
:101C0000BD4680BD00C30440E4180420E818042049
:101C100080B582B000AF0E4B5B687B607B6803F0E1
:101C20000103002B10D00B4B1B68002B06D0094B77
:101C30001B68094A1068002279689847044B5B6862
:101C4000034A43F00103536000BF0837BD4680BD1F
:101C500000C00440E4180420E818042080B582B0D5
:101C600000AF154B5B687B60144B1B68002B17D0D3
:101C70007B6803F00403002B06D0104B1B68104A4E
:101C800010680022002198477B6803F00203002BB4
:101C900006D00A4B1B680A4A1068002201219847A7
:101CA000054B5A687B6803F00603034913434B60F6
:101CB00000BF0837BD4680BD00C00440E4180420C2
:101CC000E818042080B48FB000AF03463960FB7180
:101CD0001346BB7100237B6300233B630023FB623D
:101CE0003B68002B05D17B6B43F002037B63404BC9
:101CF0003B60FB79032B1CD801A252F823F000BFF4
:101D0000151D0000111D00001F1D0000291D0000F1
:101D1000002367E03B6B43F006033B630BE07B6B08
:101D200043F004037B6306E07B6B43F006037B63B5
:101D300001E0062356E0EFF31083BB61BB69FB6251
:101D400072B62C4B44F65902DA602A4B9B6823F09A
:101D50000302FB79274913438B60274B1A697B6B7E
:101D60001A433B6BDB43244913400B61EFF31183B0
:101D7000FB61FB69BB62214B1B89FB84BB795B0167
:101D80003B623B6A83F311880DE0BFF34F8F30BF96
:101D9000FB6A3B613B6983F31088EFF310837B613F
:101DA0007B69FB6272B63B681B68002BEDD03B6819
:101DB0001B685A1E3B681A60BB6ABB60BB6883F332
:101DC00011880E4AFB8C13810B4B1B690A4A23F0C6
:101DD00002031361BFF34F8FFB6AFB60FB6883F361
:101DE0001088002318463C37BD4680BC704700BFB2
:101DF000EC18042000C0044000ED00E0002C00407E
:101E000080B487B000AF786000237B617B68002BD3
:101E100014D1104B7B60EFF31083FB60FB687B6198
:101E200072B60D4B1B690C4A23F002031361BFF31A
:101E30004F8F7B693B613B6983F310887B681B682C
:101E40005A1C7B681A60002318461C37BD4680BCAC
:101E5000704700BFEC18042000ED00E090B587B09B
:101E600000AF254B3B613B695B68002B3FD03B6972
:101E70005B685B68002B3AD00023FB60EFF31083B4
:101E80007B607B68FB6072B63B691B681B899CB2F8
:101E9000FB68BB60BB6883F3108804F003039CB24B
:101EA0001DE0234603F00103002B05D000237B61D6
:101EB00024F001039CB209E0234603F00203002B47
:101EC00010D001237B6124F002039CB23B695B6864
:101ED0005B683A6952689068002279699847002CDB
:101EE000DFD100E000BF3B691B6803221A8100BFFD
:101EF0001C37BD4690BD00BF5400042080B483B0A1
:101F000000AF0346FB7197F90730002B0BDBFB7921
:101F100003F01F02064997F907305B09012000FA18
:101F200002F241F8232000BF0C37BD4680BC704749
:101F300000E100E080B483B000AF0346FB7197F985
:101F40000730002B10DBFB7903F01F02094997F9DA
:101F500007305B09012000FA02F2203341F8232008
:101F6000BFF34F8FBFF36F8F00BF0C37BD4680BCF0
:101F7000704700BF00E100E080B586B000AFF860B8
:101F8000B9607A603B60BB687B613B6800221A6085
:101F90007A680021B86809F0FBFE4F49FA681346D9
:101FA0005B0013449B000B441A687B691A6000BFF6
:101FB0007B691B681B899BB203F08003002BF7D160
:101FC0007B691B6800221A8000BF7B691B689B8DA0
:101FD0009BB203F48053002BF7D17B691B6800226E
:101FE0001A8500BF7B691B689B889BB203F0800346
:101FF000802BF7D100BF7B691B689B8D9BB203F4DC
:102000008043B3F5804FF6D100BF7B691B681B8905
:102010009BB203F48073002BF7D17B691B687E228F
:102020009A8000BF7B691B689B889BB203F4807316
:10203000B3F5807FF6D100BF7B691B681B899BB21B
:1020400003F4C063002BF7D17B691B6800229A81DF
:102050007B691B6800221A8200BF7B691B689B8812
:102060009BB203F4C063B3F5C06FF6D11A49FA68A6
:1020700013465B0013449B000B4408337A691A60D3
:10208000FA6813465B0013449B00134A1A447B69A9
:102090005A61FB685B01114A13441946786900F0E4
:1020A00031FA3B687A691A600B49FA6813465B009B
:1020B00013449B000B44043393F900207B691A738B
:1020C0007B6993F90C301846FFF718FF0023184678
:1020D0001837BD4680BD00BF5C000420740004209A
:1020E00080B584B000AF78607B68FB60FB6893F9D3
:1020F0000C301846FFF71EFFFB6800221A60FB68D1
:1021000000225A60FB6800229A60FB6800221A6174
:10211000FB685B6900229A60002318461037BD46B1
:1021200080BD80B487B000AF78600B46FB707B68E1
:102130007B6100BF7B691B681B899BB203F0800336
:10214000002BF7D100233B61EFF31083FB60FB68AA
:102150003B6172B6FB78002B0AD07B691B681B8839
:102160009AB27B691B6842F0010292B21A8009E0C0
:102170007B691B681B889AB27B691B6822F001028D
:1021800092B21A803B69BB60BB6883F3108800BFC2
:102190007B691B689B889BB203F08003802BF7D17F
:1021A000002318461C37BD4680BC704780B489B0F8
:1021B00000AFF860B9601346FB71FB68BB6100BFFC
:1021C000BB691B681B899BB203F08003002BF7D10E
:1021D00000BFBB691B689B8D9BB203F48053002B2F
:1021E000F7D10023FB77724B00221A80714B00223B
:1021F0001A80714B00221A80704B00221A80704B9B
:1022000000221A8020E0BB6803F00103002B15D0E8
:10221000FB7F6C4A52F833307B61FB7F694ADB00FD
:1022200013449B887B827B691A887B8A012101FA8F
:1022300003F39BB213439AB27B691A80BB685B08B5
:10224000BB60FB7F0133FB77BB68002BDBD1FB79E5
:10225000002B3DD0BB691B681B8899B2544B1A8870
:10226000BB691B680A4392B21A80BB691B681B8D4D
:1022700099B2504B1A88BB691B680A4392B21A85FF
:10228000BB691B68B3F8503099B24B4B1A88BB69D5
:102290001B680A4392B2A3F85020BB691B68B3F8CD
:1022A000543099B2454B1A88BB691B680A4392B2F5
:1022B000A3F85420BB691B68B3F84C3099B2404B6B
:1022C0001A88BB691B680A4392B2A3F84C2055E0F8
:1022D000BB691B681B889BB21AB2354B1B881BB2AB
:1022E000DB431BB213401AB2BB691B6892B21A805F
:1022F000BB691B681B8D9BB21AB22E4B1B881BB28D
:10230000DB431BB213401AB2BB691B6892B21A8539
:10231000BB691B68B3F850309BB21AB2264B1B88BE
:102320001BB2DB431BB213401AB2BB691B6892B2EB
:10233000A3F85020BB691B68B3F854309BB21AB2A3
:102340001E4B1B881BB2DB431BB213401AB2BB6986
:102350001B6892B2A3F85420BB691B68B3F84C30D9
:102360009BB21AB2164B1B881BB2DB431BB2134045
:102370001AB2BB691B6892B2A3F84C2000BFBB69BC
:102380001B689B889BB203F08003802BF7D100BFB2
:10239000BB691B689B8D9BB203F48043B3F5804FF0
:1023A000F6D1002318462437BD4680BC704700BFD5
:1023B000F0180420F2180420F4180420F618042061
:1023C000F8180420B400042080B489B000AF78600D
:1023D0000B46FB707B68FB6100BFFB691B689B8D34
:1023E0009BB203F48053002BF7D10023BB61EFF3C2
:1023F0001083FB60FB68BB6172B6FB691B681B8DB9
:102400009BB223F4F073FB82FB789BB25B019AB220
:10241000FB8A1343FB82FB691B68FA8A1A85BB6936
:102420003B613B6983F3108800BFFB691B689B8D90
:102430009BB203F48043B3F5804FF6D100231846D6
:102440002437BD4680BC704780B487B000AFF860C9
:10245000B9607A60FB687B6100BF7B691B681B8980
:102460009BB203F08003002BF7D17B69BA685A60F6
:102470007B697A689A60002318461C37BD4680BC89
:10248000704780B487B000AF786039607B687B614B
:1024900000BF7B691B681B899BB203F4C063002BE0
:1024A000F7D100BF7B691B681B899BB203F4C06333
:1024B000002BF7D100233B61EFF31083BB60BB68B7
:1024C0003B6172B67B691B683A6892B29A813B683D
:1024D0001A0C7B691B6892B21A823B69FB60FB682D
:1024E00083F3108800BF7B691B689B889BB203F451
:1024F000C063B3F5C06FF6D1002318461C37BD4644
:1025000080BC704780B483B000AF7860396000BF92
:102510007B681B681B899BB203F08003002BF7D1FB
:102520007B681B683A6812881A8000BF7B681B684A
:102530009B8D9BB203F48053002BF7D17B681B6803
:102540003A6852881A8500BF7B681B681B899BB25A
:1025500003F4C063002BF7D17B681B683A6892884C
:102560009A817B681B683A68D2881A8200BF7B68B0
:102570001B681B899BB203F4C053002BF7D17B6807
:102580001B683A6812899A827B681B683A6852898C
:102590001A8300BF7B681B689B8D9BB203F40053BA
:1025A000002BF7D17B681B683A689289A3F8442016
:1025B0007B681B68264A934227D100BF7B681B6853
:1025C000B3F884309BB203F05E03002BF6D17B6836
:1025D0001B683A68128AA3F84C207B681B683A682B
:1025E000528AA3F850207B681B683A68928AA3F845
:1025F00054207B681B683A68D28AA3F858207B680D
:102600001B683A68128BA3F8702000BF7B681B68B8
:102610009B889BB203F4F453B3F5F45FF6D100BF8B
:102620007B681B689B8D9BB203F44043B3F5404F1E
:10263000F6D100BF7B681B68B3F880309BB203F013
:102640005E035E2BF6D100BF0C37BD4680BC7047E1
:102650000014004080B586B000AF00237B610023EA
:102660003B619B4B9B68FB60FB681B681B889BB2B4
:102670001A464FF6040313403B61FB681B689B88B6
:102680009BB203F07E037B817B89002B56D03B6994
:10269000002B53D03B6903F01003002B08D07B893B
:1026A00003F00403002B03D07B6943F002037B613A
:1026B0003B6903F00403002B08D07B8903F002037D
:1026C000002B03D07B6943F001037B613B6903F47A
:1026D0008053002B08D07B8903F00803002B03D024
:1026E0007B6943F004037B613B6903F40043002BE7
:1026F00008D07B8903F04003002B03D07B6943F0B3
:1027000020037B613B6903F48043002B08D07B8965
:1027100003F02003002B03D07B6943F010037B619F
:102720003B6903F40053002B08D07B8903F01003AE
:10273000002B03D07B6943F008037B61FB681B68B7
:102740001B8D9BB203F01F033B61FB681B689B8DD5
:102750009BB203F00F033B813B89002B3AD03B69CE
:10276000002B37D03B6903F00803002B08D03B89CE
:1027700003F00803002B03D07B6943F400737B61F3
:102780003B6903F00403002B08D03B8903F00403EA
:10279000002B03D07B6943F480737B613B6903F0BA
:1027A0000203002B08D03B8903F00203002B03D067
:1027B0007B6943F080037B613B6903F00103002BDD
:1027C00008D03B8903F00103002B03D07B6943F061
:1027D00040037B61FB681B68B3F850309BB21A461C
:1027E00041F6FE7313403B61FB681B68B3F8483049
:1027F0009AB240F21D331340FB80FB88002B10D0AF
:102800003B69002B0DD03B6903F40073002B08D00B
:10281000FB8803F40073002B03D07B6943F400634F
:102820007B61FB681B68B3F850309BB21A464FF2CD
:102830001C4313403B61FB88002B3AD03B69002BC3
:1028400037D03B6903F48043002B08D0FB8803F0AA
:102850001003002B03D07B6943F480237B613B6929
:1028600003F40053002B08D0FB8803F00803002B6F
:1028700003D07B6943F400337B613B6903F48053ED
:10288000002B08D0FB8803F00403002B03D07B69E6
:1028900043F480337B613B6903F48063002B08D0F1
:1028A000FB8803F00103002B03D07B6943F4004352
:1028B0007B61FB685B68002B0CD07B69002B09D027
:1028C000FB685B68FA68906800227969984701E0C4
:1028D0005C000420FB681B689B8899B2FB681B683E
:1028E0007A890A4392B29A80FB681B689B8D99B2E1
:1028F000FB681B683A890A4392B29A85FB681B6899
:10290000B3F8483099B2FB681B68FA880A4392B260
:10291000A3F8482000BF1837BD4680BD80B586B0FB
:1029200000AF00237B6100233B61A24B5B69FB602E
:10293000FB681B681B889BB21A464FF604031340C2
:102940003B61FB681B689B889BB203F07E037B8125
:102950007B89002B56D03B69002B53D03B6903F099
:102960001003002B08D07B8903F00403002B03D055
:102970007B6943F002037B613B6903F00403002B96
:1029800008D07B8903F00203002B03D07B6943F05E
:1029900001037B613B6903F48053002B08D07B89E2
:1029A00003F00803002B03D07B6943F004037B6131
:1029B0003B6903F40043002B08D07B8903F04003FC
:1029C000002B03D07B6943F020037B613B6903F458
:1029D0008043002B08D07B8903F02003002B03D019
:1029E0007B6943F010037B613B6903F40053002BC8
:1029F00008D07B8903F01003002B03D07B6943F0E0
:102A000008037B61FB681B681B8D9BB203F01F03EF
:102A10003B61FB681B689B8D9BB203F01F033B81EE
:102A20003B89002B48D03B69002B45D03B6903F024
:102A30001003002B08D03B8903F01003002B03D0B8
:102A40007B6943F480637B613B6903F00803002BDF
:102A500008D03B8903F00803002B03D07B6943F4C3
:102A600000737B613B6903F00403002B08D03B89B2
:102A700003F00403002B03D07B6943F480737B6174
:102A80003B6903F00203002B08D03B8903F00203EB
:102A9000002B03D07B6943F080037B613B6903F02B
:102AA0000103002B08D03B8903F00103002B03D066
:102AB0007B6943F040037B61FB681B68B3F85030CF
:102AC0009BB21A4641F6FE7313403B61FB681B68DC
:102AD000B3F848309AB240F21D331340FB80FB88B4
:102AE000002B10D03B69002B0DD03B6903F4007321
:102AF000002B08D0FB8803F40073002B03D07B6904
:102B000043F400637B61FB681B68B3F84C309BB2F5
:102B10001A464FF21C4313403B61FB88002B3AD00E
:102B20003B69002B37D03B6903F48043002B08D06E
:102B3000FB8803F01003002B03D07B6943F4802350
:102B40007B613B6903F40053002B08D0FB8803F042
:102B50000803002B03D07B6943F400337B613B699E
:102B600003F48053002B08D0FB8803F00403002BF0
:102B700003D07B6943F480337B613B6903F480635A
:102B8000002B08D0FB8803F00103002B03D07B69E6
:102B900043F400437B61FB685B68002B0CD07B69CE
:102BA000002B09D0FB685B68FA689068002279699D
:102BB000984701E05C000420FB681B689B8899B281
:102BC000FB681B687A890A4392B29A80FB681B688B
:102BD0009B8D99B2FB681B683A890A4392B29A8529
:102BE000FB681B68B3F8483099B2FB681B68FA8829
:102BF0000A4392B2A3F8482000BF1837BD4680BDF3
:102C000080B483B000AF0346FB7197F90730002B07
:102C100010DBFB7903F01F02094997F907305B09C4
:102C2000012000FA02F2203341F82320BFF34F8F36
:102C3000BFF36F8F00BF0C37BD4680BC704700BF2D
:102C400000E100E080B586B000AF78600023FB743F
:102C50007B681B681B883B827B681B683A8A1A80EA
:102C60007B681B681B8CFB813B8A03F090039BB243
:102C7000002B1AD03B8A03F010039BB2002B05D027
:102C80007B681B6943F001027B681A613B8A03F091
:102C900080039BB2002B05D07B681B6943F00202C6
:102CA0007B681A610123FB7459E0FB8903F00F0371
:102CB0009BB2C3F10803FB82FB891B0A9BB203F0A2
:102CC0000F03BB8217E07B685B691A787B681B681F
:102CD00092B21A817B685B697A6892F820201A4464
:102CE0007B685A617B689B8B013B9AB27B689A83B5
:102CF000FB8A013BFB82FB8A002B03D07B689B8B0A
:102D0000002BE0D17B6893F8243083F00103DBB221
:102D1000002B1DD17B689B8B002B20D118E07B689A
:102D20001B689B889AB27B689B69D2B21A707B68D9
:102D30009B697A6892F821201A447B689A617B68C3
:102D4000DB8B013B9AB27B68DA83BB8A013BBB8297
:102D5000BB8A002B03D07B68DB8B002BDFD17B6829
:102D6000DB8B002B1DD17B689B8B002B19D17B68E3
:102D70001B681B8A9BB203F00203022B0FD13B8A14
:102D800003F00203002B07D17B681B681B889BB2F2
:102D900003F00203022B04D10123FB7401E00123A1
:102DA000FB74FB7C002B2ED07B681B689B8A9AB23D
:102DB0007B681B6822F4185292B29A827B680122C7
:102DC00083F822207B685B6893F90C301846FFF784
:102DD00017FF7B681B681B883B827B681B683A8AED
:102DE0001A807B689B68002B08D07B689B687A6898
:102DF000D0687A6811690022984704E07B6828331C
:102E00001846FEF7FDFF00BF1837BD4680BD000025
:102E100080B500AF034B1B691846FFF713FF00BFD7
:102E200080BD00BF4401042080B500AF034B5B6A46
:102E30001846FFF707FF00BF80BD00BF4401042014
:102E400080B500AF034B9B6B1846FFF7FBFE00BF3E
:102E500080BD00BF4401042080B483B000AF054BA7
:102E60001B697B607B6800229A8300BF0C37BD46DC
:102E700080BC70474401042080B483B000AF0F4B86
:102E80001B697B607B680022DA837B681B689B8BF5
:102E90009AB27B681B6822F0070292B29A837B6821
:102EA0001B689B8A9AB27B681B6842F4005292B2FC
:102EB0009A8200BF0C37BD4680BC70474401042095
:102EC00080B483B000AF054B5B6A7B607B680022F7
:102ED0009A8300BF0C37BD4680BC70474401042074
:102EE00080B483B000AF0F4B5B6A7B607B680022CD
:102EF000DA837B681B689B8B9AB27B681B6822F025
:102F0000070292B29A837B681B689B8A9AB27B689D
:102F10001B6842F4005292B29A8200BF0C37BD4641
:102F200080BC70474401042080B483B000AF054BDF
:102F30009B6B7B607B6800229A8300BF0C37BD4689
:102F400080BC70474401042080B483B000AF0F4BB5
:102F50009B6B7B607B680022DA837B681B689B8BA2
:102F60009AB27B681B6822F0070292B29A837B6850
:102F70001B689B8A9AB27B681B6842F4005292B22B
:102F80009A8200BF0C37BD4680BC704744010420C4
:102F900080B483B000AF0346FB7197F90730002B74
:102FA0000BDBFB7903F01F02064997F907305B0939
:102FB000012000FA02F241F8232000BF0C37BD4681
:102FC00080BC704700E100E080B483B000AF0346EE
:102FD000FB7197F90730002B10DBFB7903F01F0220
:102FE000094997F907305B09012000FA02F2203302
:102FF00041F82320BFF34F8FBFF36F8F00BF0C3713
:10300000BD4680BC704700BF00E100E080B483B0E3
:1030100000AF0346FB7197F90730002B0CDBFB79FF
:1030200003F01F02074997F907305B09012000FAF6
:1030300002F2603341F8232000BF0C37BD4680BC4C
:10304000704700BF00E100E080B594B000AF786049
:103050003960002387F847307B681B683B643B6C12
:103060000433FB633B6C1B68BB633B6C5B7E7B6325
:1030700001227B6B02FA03F33B630323FB62012310
:10308000BB62FB6B1B68184600F084FA7862FB6B2E
:10309000DB68012202FA03F33B623B685A683B6A31
:1030A000B2FBF3F3FB643B685A683B6AD31AFB61DB
:1030B0003B681B68BB613B685A687B6AB2FBF3F3F1
:1030C0007B61BB6B00221A60614A3B6BC2F814380B
:1030D0005F4A3B6B93625E4A3B6B53625C4A3B6B5D
:1030E00053635B4A3B6B93637B681B79002B1FD157
:1030F000BB6B03F12801574B1A687B6B1B01134410
:103100000A461A60534B1A687B6B1B011344B9695A
:10311000FA690A445A60FB6B1B699907FB6A9A06B5
:103120004C4B18687B6B1B0103440A439A6030E0E8
:10313000484B1A687B6B1B011344B969FA690A444E
:103140001A60BB6B03F12001424B1A687B6B1B01B9
:1031500013440A465A60FB6A9907FB6B1B699A067F
:103160003C4B18687B6B1B0103440A439A60FA6C62
:103170007B699A420DD2BA69FB69D118354B1A683E
:103180007B6B1B0113443A6A0A441A60FB6C0133DF
:10319000FB64304B1A687B6B1B0113449968FB6B13
:1031A000DB681A06FB6C013B1B011A43BB6A1A431E
:1031B000284B18687B6B1B0103440A439A60002369
:1031C0003B61EFF31083FB60FB683B6172B67B6889
:1031D0001B6802221A76BB6B7A691A613B6C93F901
:1031E0001B301846FFF712FF3B6C93F91A30184654
:1031F000FFF70CFF1623BB647B681B79002B06D1FD
:103200003B6C93F91A301846FFF7C2FE03E0BB6C23
:1032100043F00103BB643B6C93F91B301846FFF786
:10322000B7FEBB6BBA6C9A60FB6B1B6843F08063A4
:1032300043F00103BA6B13603B69BB60BB6883F367
:10324000108897F8473018465037BD4680BD00BFFC
:1032500000000140AC33010080B58AB000AF786057
:103260003960002387F827307B681B6804333B6292
:103270007B681B681B68FB613B6A1B68BB61B869A4
:1032800000F088F978613B685A687B69B2FBF3F219
:103290003B685A6000233B61EFF31083BB60BB685F
:1032A0003B6172B6FB6900221A603B685A68FB6991
:1032B0001A617B681B6802221A767B681B6893F987
:1032C0001B301846FFF7A2FE7B681B6893F91B3082
:1032D0001846FFF75DFEFB699B6843F01F02FB6920
:1032E0009A603B6A1B6843F00102FB691A603B6904
:1032F000FB60FB6883F3108897F82730184628375F
:10330000BD4680BD80B588B000AF78607B681B6823
:10331000BB61BB691B687B617B6810333B613B69A8
:10332000DB6AFB607B691B6823F001027B691A6022
:103330007B699B6823F009027B699A607B690022A4
:103340001A61FB6800221A73BB6993F91B30184697
:10335000FFF73AFEBB6993F91A301846FFF734FEBF
:103360007B681B6804221A767B689B68002B13D04D
:103370007B681B79002B01D1202300E04023BB6038
:103380007B689B687A68D068FA681268B968984761
:10339000FB6800221A6004E03B6938331846FEF7E8
:1033A0002FFD7B691722DA603B69002283F8342005
:1033B000FB681B69FB603B69FA68DA62FB681B68A3
:1033C000002B1FD0FB681B7B002B1BD03B6902220C
:1033D00083F83420FB685B7B002B06D0F9687868A3
:1033E000FFF732FE0346FB7705E0F9687868FFF7E0
:1033F00033FF0346FB77FB7F002B03D03B690022A2
:1034000083F8342000BF2037BD4680BD80B58AB028
:1034100000AF78607B681B687B627B6A1B683B62DD
:103420003B6ADB68FB61FB6903F00803BB61FB6976
:1034300003F016037B617B69002B16D07B689B68C9
:10344000002B07D07B689B687A68D0680022796976
:1034500098470AE07B68DA6C7B691A437B68DA6418
:103460007B6848331846FEF7CBFCBB69002B54D071
:103470007B68DB6B3B613B691B68FB60FB68002B77
:103480004BD03B699A683B695B689A4245D27B683E
:103490001B79002B1DD13B699B68591C3A699160CF
:1034A0009B00FA6813443A6A926A1A600AE03B6920
:1034B0009B68591C3A6991609B00FA6813443A6A08
:1034C000926A1A603B6ADB6803F44073002BEED10A
:1034D00023E03B699B68591C3A6991609B00FA683C
:1034E00013441A683B6A1A620AE03B699B68591CDC
:1034F0003A6991609B00FA6813441A683B6A1A6241
:103500003B699A683B695B689A4206D23B6ADB6812
:1035100003F44073B3F5407FE7D13B6ADB6803F007
:103520000103002B02D07868FFF7ECFE00BF2837BC
:10353000BD4680BD80B500AF034BDB691846FFF781
:1035400065FF00BF80BD00BF8001042080B500AFD3
:10355000034BDB6B1846FFF759FF00BF80BD00BF70
:103560008001042080B500AF034BDB691846FFF7EC
:10357000C9FE00BF80BD00BF8001042080B500AF40
:10358000034BDB6B1846FFF7BDFE00BF80BD00BFDD
:103590008001042080B485B000AF78607B681B098F
:1035A00003F01F030133FB60FB68082B06D9FB689F
:1035B000102B01D8022302E0042300E00123BB60AA
:1035C000BB6818461437BD4680BC704780B483B0D2
:1035D00000AF0346FB7197F90730002B0BDBFB793B
:1035E00003F01F02064997F907305B09012000FA32
:1035F00002F241F8232000BF0C37BD4680BC704763
:1036000000E100E080B483B000AF0346FB7197F99E
:103610000730002B10DBFB7903F01F02094997F9F3
:1036200007305B09012000FA02F2203341F8232021
:10363000BFF34F8FBFF36F8F00BF0C37BD4680BC09
:10364000704700BF00E100E080B584B000AFB96012
:103650007A601A460346FB731346BB73FB7B25490E
:10366000BA6841F82320FB7B23497A6841F823207C
:10367000BB7B002B06D0FB7B204AD3561846FFF7B6
:10368000A5FF05E0FB7B1D4AD3561846FFF7BAFF9E
:10369000FA7BFB7B1A4951F823301A4931F8122082
:1036A0001A81FA7BFB7B164951F82330164931F811
:1036B00012201A80FA7BFB7B114951F82330134901
:1036C00031F812209A82FA7BFB7B0D4951F82330A6
:1036D0000F4931F812201A84FA7BFB7B084951F814
:1036E00023300C4931F812209A84002318461037F1
:1036F000BD4680BDFC18042008190420B433010025
:10370000E8010420C0010420C8010420D0010420E5
:10371000D8010420E001042080B584B000AF034646
:103720003960FB71FB792E4A52F823303A6892884F
:103730001A80FB792A4A52F823303A68D2889A8252
:10374000FB794021184600F09BF80346002B01D07E
:10375000062340E0FB79224A52F823301B89FB8183
:10376000FB8903F4C043FB813B689B789AB2FB89D9
:103770001343FB813B68DB789BB25B019AB2FB8908
:103780001343FB813B685B78002B03D0FB8943F03C
:103790000803FB813B681B78002B03D0FB8943F0B7
:1037A0000403FB813B681B7A002B03D0FB8943F0A9
:1037B0008003FB813B685B7A002B05D0FB896FEAB5
:1037C00043436FEA5343FB81FB79054A52F82330A8
:1037D000FA891A81002318461037BD4680BD00BF04
:1037E000E801042080B582B000AF03460A46FB71B1
:1037F0001346BB71FB794021184600F041F803469F
:10380000002B01D006231FE0FB79114A52F8233028
:103810001B899AB2FB790E4951F8233022F010022D
:1038200092B21A81BB79002B0DD0FB79084A52F86D
:1038300023301B899AB2FB79054951F8233042F0B5
:10384000100292B21A81002318460837BD4680BD87
:10385000E801042080B483B000AF03463960FB71F7
:10386000FB79064A52F823309B889AB23B681A804B
:10387000002318460C37BD4680BC7047E801042081
:1038800080B485B000AF03460A46FB711346BB8087
:103890000023FB810FE0FB790C4A52F823309B8B0D
:1038A0009AB2BB8813409BB2002B01D1002307E0E2
:1038B000FB890133FB81FB89B3F57A7FEBD30623C8
:1038C00018461437BD4680BC704700BFE80104208D
:1038D00080B584B000AF0346FB71FB791A4A52F8F9
:1038E00023309B8BFB81FB79184A52F82330002B45
:1038F0001FD0FB8903F00103002B0AD0FB79134A88
:1039000052F82330FA79124951F82200002201219D
:103910009847FB8903F00203002B0AD0FB790B4A7E
:1039200052F82330FA790A4951F822000022022184
:103930009847FB79044A52F8233003229A8100BF4A
:103940001037BD4680BD00BFE8010420FC180420EC
:103950000819042080B500AF0020FFF7B9FF00BFB1
:1039600080BD80B500AF0120FFF7B2FF00BF80BD72
:1039700080B500AF0220FFF7ABFF00BF80BD0000A5
:1039800080B483B000AF0346FB7197F90730002B7A
:103990000BDBFB7903F01F02064997F907305B093F
:1039A000012000FA02F241F8232000BF0C37BD4687
:1039B00080BC704700E100E080B483B000AF0346F4
:1039C000FB7197F90730002B10DBFB7903F01F0226
:1039D000094997F907305B09012000FA02F2203308
:1039E00041F82320BFF34F8FBFF36F8F00BF0C3719
:1039F000BD4680BC704700BF00E100E080B483B0EA
:103A000000AF0346FB7197F90730002B0CDBFB7905
:103A100003F01F02074997F907305B09012000FAFC
:103A200002F2603341F8232000BF0C37BD4680BC52
:103A3000704700BF00E100E080B588B000AFF860DB
:103A4000B9607A60FB68BB61BB695B6ADB6A1B6952
:103A50007B610023FB61BB68012B02D0022B05D0E8
:103A600009E0FB6943F48073FB6109E0FB6943F4FF
:103A70008063FB6104E0FB6943F48053FB6100BF9A
:103A80007B691B68002B13D07B695B7B002B0FD0FD
:103A9000BB699A69FB691A43BB699A617B69002219
:103AA0001A73BB695B6A00221946B86900F027FEE9
:103AB000BB699A69FB691A43BB699A61BB695B6A16
:103AC00000221946B86900F01AFE00BF2037BD4633
:103AD00080BD80B588B000AFF860B9607A60FB68DF
:103AE000BB61BB691B6ADB6A1B697B610023FB61ED
:103AF000BB68012B02D0022B05D009E0FB6943F41F
:103B00000073FB6109E0FB6943F40063FB6104E0BF
:103B1000FB6943F40053FB6100BF7B691B68002B0A
:103B200013D07B695B7B002B0FD0BB699A69FB6963
:103B30001A43BB699A617B6900221A73BB691B6ACD
:103B400001221946B86900F0DAFDBB699A69FB6980
:103B50001A43BB699A61BB691B6A01221946B8699D
:103B600000F0CDFD00BF2037BD4680BD80B586B0DA
:103B700000AFF8607A603B600B46FB720023FB826B
:103B80003B6A00221A607B683B613A6800217868D2
:103B900008F0FEF8FB681B016E4A1A443B695A6044
:103BA0006C4AFB681B01134408331A683B699A602E
:103BB0003B69FA7A1A707B6830337B60FDF722F933
:103BC000FB7A012B3CD03B697A681A623B691B6A1D
:103BD000002283F834203B691A6A3B691B6A9A62A7
:103BE0003B691A6A3B691B6A1A633B691A6A3B693B
:103BF0001B6ADA623B691B6A0022DA633B691B6A53
:103C0000554A9A633B691A6A3B691B6A14321A6106
:103C10003B691A6A3B691B6A5A623B695B681B789D
:103C20003A694E491846FDF735F90346002B04D092
:103C3000386900F09BF80F2387E07B6840337B6096
:103C4000FB7A002B39D03B697A685A623B695B6A20
:103C5000002283F834203B695A6A3B695B6A9A62A6
:103C60003B695A6A3B695B6A1A633B695A6A3B69FA
:103C70005B6ADA623B695B6A0022DA633B695B6A12
:103C8000374A9A633B695A6A3B695B6A14321A6124
:103C90003B695A6A3B695B6A5A623B695B685B785D
:103CA0003A6930491846FDF7F5F80346002B04D071
:103CB000386900F05BF80F2347E0F968386900F0D5
:103CC000C7FD3B699B681B8C9BB203F00103002B73
:103CD00014BF01230023DAB23B6983F82D203B692E
:103CE0009B681B8C9BB29B119BB203F00303FB826E
:103CF000FB8A1D4AD25C3B6983F82E203B6A3A69F5
:103D00001A60144AFB681B0113440C333A691A60A9
:103D10003B695B6893F904301846FFF76FFE3B6917
:103D20005B6893F904301846FFF72AFE3B695B682D
:103D300093F902301846FFF723FE3B695B6893F95D
:103D400003301846FFF71CFE002318461837BD46FF
:103D500080BD00BFF4010420393E0000D33A0000CA
:103D6000A13F0000393A0000C833010080B582B09D
:103D700000AF78607B689B6800229A807B685B68F4
:103D800093F903301846FFF717FE7B685B6893F9D9
:103D900002301846FFF710FE7B685B6893F9043029
:103DA0001846FFF709FE7B685B680022DA60002393
:103DB00018460837BD4680BD80B584B000AFF860B6
:103DC000B9607A60FB70FB681B6A9B6ABA681A600C
:103DD000FB681B6A9B6A7A685A60FB681B6A9B6A6D
:103DE00000229A60FB681B6A9B6A01221A73FB68B7
:103DF0001B6A9B6AFA785A73FB681B6A9A6AFB68AB
:103E00001B6A12699A62FB681B6A93F83430002BB4
:103E10000DD1FB681B6A022283F83420FB681B6A01
:103E20009B6BFA68126AD26A1146F86898470023B9
:103E300018461037BD4680BD80B483B000AF7860AF
:103E400039603B685B7B002B56D07B685B681B78D6
:103E50001946314A01238B40C2F814387B685B68ED
:103E60001B7819462C4A01238B4093627B685B6860
:103E70001B781946284A01238B4053627B685B6894
:103E80001B781946244A01238B4053633B681B6807
:103E90001A463B685B681A44204B19687B685B686C
:103EA0001B781B010B44013A1A607B689B6819461A
:103EB0001A4B1A687B685B681B781B0113440A461F
:103EC0005A603B685B68013B1B01144A11687A68C1
:103ED0005268127812010A4443F0404343F0010350
:103EE00093607B689B689B889AB27B689B6842F072
:103EF000100292B29A8009E07B689B689B889AB214
:103F00007B689B6842F0020292B29A8000BF0C3735
:103F1000BD4680BC704700BF00000140AC330100CB
:103F200080B584B000AFF860B9607A60FB70FB6860
:103F30005B6A9B6ABA681A60FB685B6A9B6A7A680C
:103F40005A60FB685B6A9B6A00229A60FB685B6A46
:103F50009B6A01221A73FB685B6A9B6AFA785A7340
:103F6000FB685B6A9A6AFB685B6A12699A62FB6823
:103F70005B6A93F83430002B0DD1FB685B6A022238
:103F800083F83420FB685B6A9B6BFA68526AD26ADA
:103F90001146F8689847002318461037BD4680BD83
:103FA00080B483B000AF786039603B685B7B002BE6
:103FB00056D07B685B685B781946314A01238B4099
:103FC000C2F81C387B685B685B7819462C4A012371
:103FD0008B4093627B685B685B781946284A0123B3
:103FE0008B4053627B685B685B781946244A0123E7
:103FF0008B4053637B689B681946224B1A687B6829
:104000005B685B781B0113440A461A603B681B68B7
:104010001A463B685B681A441A4B19687B685B68F0
:104020005B781B010B44013A5A603B685B68013BBB
:104030001B01144A11687A685268527812010A44C6
:1040400043F0406343F0010393607B689B689B8867
:104050009AB27B689B6842F0200292B29A8009E093
:104060007B689B689B889AB27B689B6842F00102E0
:1040700092B29A8000BF0C37BD4680BC704700BF2B
:1040800000000140AC33010080B584B000AFF8609F
:10409000B9607A60FB70FB681B6A012283F83420E8
:1040A000FB681B6A9B6ABA681A60FB681B6A9B6A9A
:1040B0007A685A60FB681B6A9B6A00229A60FB68F8
:1040C0001B6A9B6A01221A73FB681B6A9B6AFA7857
:1040D0005A73FB681B6A9A6AFB681B6A12699A62C8
:1040E000FB681B6A9B6BFA68126AD26A1146F86811
:1040F0009847FB681B6ABA691946F86800F005F82A
:10410000034618461037BD4680BD80B586B000AF67
:10411000F860B9607A60BB683C3300221946002021
:10412000FDF7D0FD0346FB75FB7D002B01D001237D
:104130001FE0BB681B6B00221A60BB681B6B1A690F
:10414000BB681A63BB681B6B1B68002B03D1BB6881
:10415000002283F83420FB689B69002B08D0FB68A1
:104160009A697B681A60FB6800229A610D2300E05F
:10417000002318461837BD4680BD80B485B000AF17
:10418000F860B9607A60FB68BA68DA60FB687A68E0
:104190001A61002318461437BD4680BC704780B4AE
:1041A00085B000AF7860084611461A460346FB709A
:1041B0000B46BB7013467B707B689B689B899BB2E8
:1041C00023F00F03FB817A78BB781343DAB2FB78D4
:1041D0001343DBB29AB2FB891343FB817B689B6874
:1041E000FA899A81002318461437BD4680BC70476F
:1041F00080B485B000AFF860084611461A46034601
:104200007B810B467B721346FB80FB689B687A8937
:104210001A857B7A9BB2DB029AB2FB8813439BB26E
:10422000FA6892686FEA43436FEA53439BB2938400
:10423000FB689B683A7E92B29A8500231846143731
:10424000BD4680BC7047000080B582B000AF054B12
:10425000DB687B60786800F007F800BF0837BD4670
:1042600080BD00BFF401042080B58EB002AF78603D
:104270007B689B681B899BB203F00E030C2B00F23A
:104280006C8101A252F823F07D4300005B450000E1
:10429000BD4200005B450000D94200005B450000C4
:1042A000E94200005B4500005B4500005B45000003
:1042B0005B4500005B450000C5420000786800F0E7
:1042C000E1F94DE17B689B689B8E9BB2DBB219469E
:1042D000786800F071F943E17B6893F82E30194655
:1042E000786800F069F93BE10023FB627B689B681A
:1042F0009B8ABB83BB8B03F010039BB2002B05D0C2
:104300007B689B681B888023FB6209E0BB8B03F002
:1043100008039BB2002B03D0FB6A43F01003FB623F
:10432000BB8B03F004039BB2002B03D0FB6A43F06A
:104330002003FB62BB8B03F002039BB2002B03D074
:10434000FB6A43F04003FB62FB6A002B00F007812D
:104350007B681B7D83F00103DBB2002B00F0FF8044
:104360007B689A69FB6A1A437B689A617B685B6A1F
:1043700004221946786800F0C2F9F0E00023BB621D
:104380007B689B68B3F844309BB203F00F037B83D8
:104390007B689B68B3F840309BB203F001033B831A
:1043A0007B8B002B00F0C9803B8B002B00F0C5807D
:1043B00007F10C0319460020FDF728FB0346002BEC
:1043C00001D00023FB607B689B68B3F848309BB248
:1043D0001B037B617B689B68B3F844309BB21B096D
:1043E0009BB21A467B6913437B617B8B03F001030D
:1043F000002B6FD07B689B689B8C9BB203F40043BF
:10440000B3F5004F4DD1002387F827304FF40063F8
:104410003B610123FB837B693F2B06D87B695B02F1
:10442000DA083B69D31A3B6228E07B697F2B09D805
:104430007B691B02DA083B69D31A3B62012387F8C8
:1044400027301BE07B69FF2B09D87B69DB01DA0889
:104450003B69D31A3B62022387F827300EE07B6961
:104460001B0AFB837B699A01FB8BDB00B2FBF3F237
:104470003B69D31A3B62032387F827303B6A9AB221
:10448000F98B97F827300093134601227868FFF7DD
:10449000AFFEFB68DA007B69B2FBF3F27B689A62DD
:1044A00006E0FB68DA007B69B2FBF3F27B689A6294
:1044B0007B68DB68002B3DD07B6893F82C30002BA9
:1044C00038D07B68DB687A6810697A68926A032161
:1044D00098472FE07B8B03F00203002B03D0BB6ACD
:1044E00043F40073BB627B8B03F00403002B03D007
:1044F000BB6A43F48073BB627B8B03F00803002B21
:1045000003D0BB6A43F48063BB627B68DB68002B2B
:104510000DD07B685B6A93F83430022B07D17B683F
:10452000DB687A681069BA6A0521984702E07B68FF
:10453000BA6ADA617B689B681B887B689B68B3F802
:1045400040309AB27B689B6822F0070292B2A3F8CF
:1045500040207B6800221A7502E000BF00E000BF27
:1045600000BF3037BD4680BD80B582B000AF074B7D
:10457000DB687B607B681B6A01221946786800F063
:10458000BEF800BF0837BD4680BD00BFF40104205F
:1045900080B582B000AF074BDB687B607B685B6AED
:1045A00000221946786800F0AAF800BF0837BD4617
:1045B00080BD00BFF401042080B586B000AF7860F4
:1045C0000B46FB707B685B6ADB6A7B617B691B68FF
:1045D0003B613B69002B05D07B691B7B002B01D025
:1045E000012300E00023FB73FB7B03F00103FB735B
:1045F000FB7B002B28D00EE07B689B681B8899B260
:104600007B699B683A691344CAB21A707B699B68DC
:104610005A1C7B699A60FB785A1EFA70002B05D0F1
:104620007B699A687B695B689A42E5D37B699A6883
:104630007B695B689A4221D17B685B6A00221946DC
:10464000786800F05CF819E07B68DB68002B06D026
:104650007B68DB687A6810690022022198477B69D1
:104660001B68002B0AD17B691B7B83F00103DBB243
:10467000002B03D07B689B681B8800BF00BF1837E6
:10468000BD4680BD80B584B000AF78607B681B6A92
:10469000DB6A1B68002B2ED07B681B6ADB6A1B7BE6
:1046A000002B28D07B681B6ADB6A1B68FB607B6879
:1046B0001B6ADB6A9B68FA6813441B78DAB27B6872
:1046C0009B6892B21A807B681B6ADB6A9A68013227
:1046D0009A607B681B6ADB6A9A687B681B6ADB6A84
:1046E0005B689A4207D37B681B6A01221946786887
:1046F00000F005F800BF00BF1037BD4680BD80B593
:1047000086B000AFF860B9601346FB71BB68DB6A26
:1047100000221A73BB68DB6A1A69BB68DA62FB792C
:10472000012B0AD1FB689B689B889AB2FB689B6847
:1047300022F0120292B29A801BE0FB689B689B8871
:104740009AB2FB689B6822F0200292B29A80FB68C2
:1047500093F82D3083F00103DBB2002B09D0FB6806
:104760009B689B889AB2FB689B6822F0010292B218
:104770009A80FB68DB68002B38D0BB6893F8343034
:10478000022B33D1FB689B697B61FB6800229A6135
:10479000BB681B6B1B683B61BB681B6B00221A600C
:1047A000BB681B6B1A69BB681A63BB681B6B1B6811
:1047B000002B03D1BB68002283F834207B69002BD7
:1047C00007D0FB68DB68FA6810697A6904219847AA
:1047D00006E0FB68DB68FA681069F9793A6998477E
:1047E000BB683C331846FDF70BFB20E0FB79012B3F
:1047F0000ED100BFFB689B689B8A9BB203F040030D
:10480000402BF7D1FB689B681B8F9BB2002BF1D12B
:10481000BB681B6B1B691B68002B03D1BB680022A4
:1048200083F83420BB683C331846FDF7E9FABB68CF
:10483000DB6A1B7B002B06D0BB689B6BBA68D26A15
:104840001146F868984700BF1837BD4680BD000084
:1048500080B485B000AF786039603A681346DB00F9
:104860009B1A5B00154A1344FB607B689B68FA68DF
:1048700012889A817B689B68FA6852881A857B68DF
:104880009B68FA6892889A847B689B68FA68D288E9
:104890009A857B689B68FA6812891A847B689B6892
:1048A000FA6852899A877B689B68FA6892899A802D
:1048B00000BF1437BD4680BC704700BFB83301004D
:1048C00080B483B000AF0346FB7197F90730002B2B
:1048D0000BDBFB7903F01F02064997F907305B09F0
:1048E000012000FA02F241F8232000BF0C37BD4638
:1048F00080BC704700E100E080B483B000AF0346A5
:10490000FB7197F90730002B10DBFB7903F01F02D6
:10491000094997F907305B09012000FA02F22033B8
:1049200041F82320BFF34F8FBFF36F8F00BF0C37C9
:10493000BD4680BC704700BF00E100E080B582B09A
:1049400000AF78603960084B1B68002B07D13A68CC
:104950000021786807F01CFA034A7B681360002383
:1049600018460837BD4680BD1419042080B58AB0AA
:1049700000AF03460A46FB711346BB710023FB617F
:10498000FB799B000F2202FA03F3BB61FB79052B35
:1049900008D1BB795B0543F480137B62042387F85D
:1049A00023300EE0BB7943F00803DBB21A46FB79F3
:1049B0009B0002FA03F37B62FB790133DBB287F8D9
:1049C0002330EFF31083FB60FB68FB6172B60F4B83
:1049D0001B687B61BB69DB437A6913407B617A6941
:1049E0007B6A13437B61094A7B691360FB693B6106
:1049F0003B6983F3108897F923301846FFF760FF6F
:104A0000002318462837BD4680BD00BF80C0044043
:104A100080B588B000AF0346FB710023BB61FB7912
:104A2000052B02D10423FB7703E0FB790133DBB2D2
:104A3000FB7797F91F301846FFF75EFFFB799B0065
:104A40000F2202FA03F37B61EFF31083BB60BB68B4
:104A5000BB6172B60A4B1B683B617B69DB433A69F9
:104A600013403B61064A3B691360BB69FB60FB680E
:104A700083F31088002318462037BD4680BD00BF51
:104A800080C0044080B489B000AF0346B9607A604A
:104A9000FB730023FB61EFF310837B617B69FB6198
:104AA00072B60C4B1A68FB7BDB001344BA681A60C1
:104AB000084B1A68FB7BDB0013447A685A60FB6979
:104AC000BB61BB6983F31088002318462437BD46B9
:104AD00080BC70471419042080B582B000AF034633
:104AE000FB71FB790F4A012101FA03F313610E4BAD
:104AF0001A68FB79DB0013441B68002B0ED00A4BAD
:104B00001A68FB79DB0013441B68074A1168FA79BD
:104B1000D2000A445068F9790022984700BF08374C
:104B2000BD4680BD80C004401419042080B500AF8C
:104B30000020FFF7D1FF00BF80BD80B500AF01208E
:104B4000FFF7CAFF00BF80BD80B500AF0220FFF7AE
:104B5000C3FF00BF80BD000080B500AF074B5B689E
:104B600003F02003202B03D10520FFF7B5FF02E05F
:104B70000320FFF7B1FF00BF80BD00BF80C004402D
:104B800080B582B000AF0A4B7B600A4B3B6007E008
:104B90007A68131D7B603B68191D396012681A60C2
:104BA0003B68054A9342F3D300F080F8FBF718FB0B
:104BB000D83D010000000420140C042080B400AF94
:104BC000FEE7000080B500AF024807F085F900BF9E
:104BD00080BD00BFCC33010080B487B000AF2E4B46
:104BE0001B6803F00303032B50D801A252F823F0F3
:104BF000014C0000094C0000114C0000794C0000F1
:104C0000264B274A1A603CE0244B254A1A6038E0BC
:104C1000214B1B6803F40063002B02D0204B7B6107
:104C200001E01F4B7B611C4BDB6803F01F033B6102
:104C3000194BDB68DB0A03F00F03FB60164BDB68E4
:104C40001B0C03F00103BB60134BDB681B0A03F072
:104C500001037B607A69BB6802FA03F33A6902FBDD
:104C600003F2FB68B2FBF3F27B6822FA03F37B6189
:104C70000A4A7B69136004E00A4B1B68074A136009
:104C800000BF064B1B68084A136000E000BF1C37DA
:104C9000BD4680BC704700BF00C304401819042003
:104CA00080BA8C011C1904202019042080B584B01E
:104CB00000AF0121062000F01FF8EFF310837B60A6
:104CC0007B68FB6072B60A4B0A4A9A60084B4FF445
:104CD000E0225A62BFF36F8FBFF34F8FFB68BB6058
:104CE000BB6883F3108800BF1037BD4680BD00BF8E
:104CF00000ED00E00000000080B483B000AF7860F9
:104D00000B46FB700E4B44F65902DA60FB78002B21
:104D100007D00B4B5A697B685B08094913434B6109
:104D200007E0074B5A697B685B08DB430449134083
:104D30004B61002318460C37BD4680BC704700BF4E
:104D400000C0044080B58AB000AF786039603C494B
:104D50003C4801F0E9FC78627B6A002B59DB3B6838
:104D6000BB61384B1B687B61364B1B683B6204237D
:104D7000FB6107F114031946334804F0D9FD78624A
:104D80007B6A002B47DB304B1B68304A30491846A2
:104D900004F05AFE78627B6A002B3EDB2A4B1B68CC
:104DA00007F10C021146184604F075FE00233B6122
:104DB00007F10C031946274803F062FA78627B6A10
:104DC000002B2CDB234B1B682349184603F09CFA6D
:104DD00078627B6A002B24DB1E4B1B681F4A136022
:104DE0001E491F4801F0A0FD78627B6A002B1ADB88
:104DF0001B4B1B6800221B49184601F0F3FD78622B
:104E00007B6A002B11DB164B1A687B681A60002343
:104E100012E000BF0AE000BF08E000BF06E000BFEC
:104E200004E000BF02E000BF00E000BF054B1B68CC
:104E3000184601F053FD012318462837BD4680BDB2
:104E4000080204203019042024190420FC33010036
:104E5000083401002C190420180204202002042028
:104E6000281904204402042080B582B000AF786085
:104E70003960104B1B78002B0BD039687868FFF72E
:104E800061FF034683F00103DBB2002B01D0002356
:104E90000CE0084B00221A700749786801F044FCC6
:104EA0000346002B01D1002300E0012318460837F8
:104EB000BD4680BD540204200802042080B588B09D
:104EC00000AFF860B9607A600F4B1B78002B10D0F0
:104ED00000233B74BB687B617B68BB6101233B772C
:104EE00007F110031A460949F86801F0BDFD0346B1
:104EF00006E07B681A46B968F86801F083FB034650
:104F000018462037BD4680BD5402042018340100E5
:104F100090B486B000AFF860B9607A60FB687B61DE
:104F20007B69D3E900124B1C42F100047A69C2E9A3
:104F3000003400BF1837BD4690BC704790B589B0AB
:104F400000AF786039607B68002B02D03B68002B93
:104F500002D16FF015037AE05021012006F06EFBBC
:104F60000346FB61FB69002B05D17B6800221A60B8
:104F70006FF00B036BE0FB6903F144023B68DB68F5
:104F80001946104600F014FBB861BB69002B04DA27
:104F9000314806F0A1FFBB6959E0FB695B6C18461C
:104FA00000F070FBB861BB69002B04DA2B4806F0F7
:104FB00093FFBB694BE03B681B7A1A46284BFB60AA
:104FC000FB693B617A613B685A68FB69DA643B685C
:104FD0001A68FB699A64FB69986C3B685B6807F127
:104FE0000C02194600F004FCB861BB69002B04DA1E
:104FF0001C4806F071FFBB6929E0FB699A6C3B68AD
:105000005B681946104600F0C3FDB861BB69002B10
:1050100004DA154806F060FFBB6918E0FB6910333D
:105020002822FF21184606F0B3FEFA694FF000036C
:105030004FF00004C2E90034FB6900229A63FB6967
:10504000002283F840207B68FA691A600023184622
:105050002437BD4690BD00BF2C3401004034010010
:10506000114F0000543401007C34010080B582B03F
:1050700000AF78607B685B6C184600F0DDFA7B68F7
:105080009A6C7B68DB6C1946104600F0C3FC7B68A9
:105090009A6C7B68DB6C1946104600F0F5FD786869
:1050A00006F066FB00BF0837BD4680BD000000006B
:1050B00090B587B000AF78607B6818CB1A467B68E4
:1050C00003F10804D4E90034D31AFB607B6818CBE1
:1050D0007A68C2E90234FB687B617B6803F11004E3
:1050E000D4E90034B4F1FF3F08BFB3F1FF3F12D160
:1050F00000233B610CE0FB684FF0000479683A69DB
:105100000232D2000A44C2E900343B6901333B61F8
:105110003B69042BEFD901233B611AE07A683B69B4
:105120000233DB00134418CB1A467B6913447B61BE
:105130003B695A1E79683B690233DB000B4418CB8C
:1051400079680232D2000A44C2E900343B69013373
:105150003B613B69042BE1D9FB684FF000047A689E
:10516000C2E90C34786905F01FFF03461849184658
:1051700006F026F803461749184605F06DFF03466A
:10518000184606F0B9F802467B689A637B689B6B09
:10519000184605F009FF0346184605F095FB0AA3DB
:1051A000D3E9002305F0E8FB03460C4618462146E8
:1051B00005F0F4FD02467B68DA6300BF1C37BD468C
:1051C00090BD00BFAFF300807B14AE47E17A843F0F
:1051D0000000A04000004041F0B58BB006AFF86081
:1051E000B9607A607B683B60FB68D3E90045FB6887
:1051F0009E6BFB68DB6B184605F066FB02460B46B0
:10520000CDE904230296CDE90045054A3968B8681E
:1052100007F036F8034618461437BD46F0BD00BF08
:105220009834010080B500AFFCF792FB0346002BD9
:1052300001D0002312E001210120FCF71BFC0346F2
:10524000002B01D0002309E001210020FCF712FC13
:105250000346002B01D0002300E00123184680BD47
:1052600080B487B000AFF860B9607A60FB687B619A
:10527000094B1B680133084A1360074B1B68052B59
:1052800005D17B6901221A70034B00221A6000BF0E
:105290001C37BD4680BC70473419042080B483B0ED
:1052A00000AF78607B681B78002B04D07B680022FD
:1052B0001A70012300E0002318460C37BD4680BC5D
:1052C0007047000090B599B000AFF860B9607A609F
:1052D0003B6000237B650023BB6507F1540319463F
:1052E000386800F039FA3B681B681946B868FFF760
:1052F000BBFDF865FB6D002B04DA394806F0ECFDC8
:10530000FB6D68E007F1480300221A605A609A605A
:105310002123BB643B681B68BB630323FB6300233F
:1053200087F8403007F148037B6407F138031946DA
:10533000F868FFF703FEF865FB6D002B04DA2948D7
:1053400006F0CAFDFB6D46E0274B07F128040FCBA2
:1053500084E80F0007F128031946786800F000FD83
:10536000F865FB6D002B04DA204806F0B5FDFB6DF7
:1053700031E07B681B68184600F078FD7B681B688D
:105380003B6240237B621A4B7B613B6FBB6107F141
:105390002003FB613B681B6807F1140205211846D6
:1053A00000F026FAF865FB6D002B04DA114806F0D0
:1053B00093FDFB6D0FE03B681B680521184600F06C
:1053C000E7FBF865FB6D002B04DA0B4806F084FD63
:1053D000FB6D00E0002318466437BD4690BD00BF5A
:1053E000CC340100E83401005035010004350100DF
:1053F00061520000143501003835010090B5CDB080
:1054000002AF3B1D18603B46196005F0DBF8FFF763
:1054100009FF0346002B01D1012350E007F11F03D0
:1054200000221A7007F1100407F1140207F10C01B1
:1054300007F1180007F11F0300932346FFF742FF0F
:10544000C7F82401D7F82431002B05DA1E4806F0EE
:1054500043FDD7F8243132E007F11F031846FFF768
:105460001DFF0346002BF7D007F118031B681846F1
:10547000FFF71EFE07F118031B6807F120014FF428
:1054800080721846FFF7A8FEC7F8200107F10C0349
:105490001B6807F12001D7F820211846FFF70EFD01
:1054A000C7F82401D7F82431002B00DBD4E700BF74
:1054B00007F118031B681846FFF7D8FD00231846AC
:1054C00007F59677BD4690BD6035010080B586B082
:1054D00000AF7860396000233B813B68002B01D02E
:1054E000144B01E04FF47A73FB6000233B613B688F
:1054F000002B0FD007F1080319460F4800F0E4FC19
:105500000346002B01D0002310E00B4B1B6818460C
:1055100000F0F8FD07F108031946786800F0D4FCA4
:105520000346002B01D0002300E001231846183762
:10553000BD4680BD40420F003819042080B584B0BC
:1055400000AF786039600021786800F031FF78683A
:1055500000F0D8FD07F10C031946786800F04AFE08
:10556000FB683A689A42F5D8786800F005FE00BFFB
:105570001037BD4680BD000080B582B000AF7860B6
:105580000A4B1B68002B06D100210848FFF79EFF3D
:105590000346002B06D0054B1B6879681846FFF7B9
:1055A000CDFF00E000BF0837BD4680BD3C19042098
:1055B00080B582B000AF786039607B68002B02D084
:1055C0003B68002B01D101232EE00C21012006F0C5
:1055D00035F803461A467B681A607B681B68002B07
:1055E00001D1012320E07B681B683A6812681A60C9
:1055F0000F4B1B78002B10D110210E48FBF754FEE7
:105600000346002B09D07B681B68184606F0B0F8EB
:105610007B6800221A60012306E0054B1B780133EA
:10562000DAB2034B1A70002318460837BD4680BD16
:10563000501904204019042080B582B000AF786072
:105640007B68002B03D00E4B1B78002B01D101236C
:1056500011E0786806F08CF8094B1B78013BDAB250
:10566000074B1A70064B1B78002B03D1FBF74CFE3F
:10567000034600E0002318460837BD4680BD00BF42
:105680005019042080B582B000AF78607B68002B91
:1056900003D0114B1B78002B01D1012318E07B684C
:1056A0001B681B11DBB203F00F03D8B27B681B68C9
:1056B00003F00F03012202FA03F39BB20122194601
:1056C000FBF7BCFE0346002B01D0012300E00023C2
:1056D00018460837BD4680BD5019042080B483B0F9
:1056E00000AF0346FB7197F90730002B0BDBFB790A
:1056F00003F01F02064997F907305B09012000FA01
:1057000002F241F8232000BF0C37BD4680BC704731
:1057100000E100E080B483B000AF0346FB7197F96D
:105720000730002B10DBFB7903F01F02094997F9C2
:1057300007305B09012000FA02F2203341F82320F0
:10574000BFF34F8FBFF36F8F00BF0C37BD4680BCD8
:10575000704700BF00E100E080B584B000AF786022
:1057600039607B68002B06D03B68002B03D01F4BB1
:105770001B68002B01D0012333E00821012005F034
:105780005DFF03461A467B681A607B681B68002B26
:1057900001D1012325E05C21012005F04FFF0346E4
:1057A000FB60FB68002B09D17B681B68184605F07D
:1057B000DFFF7B6800221A60012312E07B681B6810
:1057C000FA685A607B681B683A6812681A60FB685E
:1057D000283330211846FFF7B1F8044B01221A6034
:1057E000002318461037BD4680BD00BF5419042061
:1057F00080B58CB000AFF860B9607A60FB68002BB0
:105800000AD0FB685B68002B06D0804B1B68002B1E
:1058100002D0BB68072B01D90123F3E07B68002B82
:1058200005D1B968F86800F0F5F80346EAE0FB68CE
:105830005B68FB62BB68072B00F2DB8001A252F8B9
:1058400023F000BF6558000065580000655800004F
:10585000655800008D580000BF580000FB5800003C
:10586000FB5800007B689B68D9B2FB6ABA6803F8F2
:105870002210674ABB6852F82330D8B27B68196897
:105880007B685B681A46FFF7FDF8B4E07B689968AF
:10589000FB6ABA6843F82210FB6ABA6853F82230F0
:1058A0007B617B69002B01D10123ABE07B681A6827
:1058B0007B699A607B685A687B69DA609BE07B68E9
:1058C0009968FB6ABA6843F82210FB6ABA6853F811
:1058D00022301B68FB61FB69002B01D1012391E0A1
:1058E000FB69DB68BB61BB6918687B6819687B680A
:1058F0005B681A46FCF7A8FD7DE0BB68062B01D16A
:10590000092300E00A2387F82B307B689968FB6A3B
:10591000BA6843F82210FB6ABA6853F822301B6851
:105920007B627B6A002B01D101236BE07B681B68E3
:10593000002B08D097F82B007B6819687B685B68A0
:105940001A46FBF7B5FD7B6A1B681B11DBB203F03F
:105950000F0387F8233097F82B1007F1120297F8FE
:1059600023301846FBF712FD7B6A1B6803F00F0318
:10597000012202FA03F31AB27B8A1BB213431BB251
:105980009BB27B8297F82B107A8A97F823301846BF
:10599000FBF7CAFC07F1120297F8233011461846AC
:1059A000FBF734FD7B6A1B6803F00F03012202FA48
:1059B00003F31BB2DB431AB27B8A1BB213401BB248
:1059C0009BB27B82FB6ABA6853F822301B791A4675
:1059D000012393401AB27B8A1BB213431BB29BB2C2
:1059E0007B827A8A97F8233011461846FBF7F6FC3B
:1059F00001E0012306E0FA6ABB6813442033012268
:105A00001A70002318463037BD4680BD5419042053
:105A10007835010080B58AB000AF786039607B6866
:105A2000002B0AD07B685B68002B06D0564B1B68A6
:105A3000002B02D03B68072B01D90123A0E07B6833
:105A40005B683B623B68072B7ED801A252F823F0CB
:105A5000715A0000715A0000715A0000715A00001A
:105A6000875A0000AB5A0000E35A0000E35A0000D6
:105A7000464A3B6852F82330DBB200220021184628
:105A8000FFF700F867E03B6A3A6853F82230002BD2
:105A90005CD03B6A3A6853F82230FB60FB68002216
:105AA000DA60FB6800229A6050E03B6A3A6853F87B
:105AB0002230002B4CD03B6A3A6853F822301B68E6
:105AC0007B617B69002B01D1012359E07B69DB6895
:105AD0003B613B691B68002200211846FCF7B4FCBF
:105AE00036E03B68062B01D1092300E00A23FB774F
:105AF0003B6A3A6853F82230002B2BD03B6A3A6855
:105B000053F822301B68BB61BB69002B01D1012314
:105B100036E0FB7F002200211846FBF7C9FC00237A
